:020000040800F2
:1000000070070020ED0100087D46000875410008DA
:1000100079460008D90900080D53000800000000C7
:1000200000000000000000000000000085490008FA
:10003000010A000800000000814600088949000804
:10004000070200080702000807020008070200086C
:10005000070200080702000807020008070200085C
:10006000070200080702000807020008DD0900086F
:10007000E9090008F509000807020008070200085E
:10008000070200080000000007020008070200083D
:10009000070200080702000807020008070200081C
:1000A000070200080702000807020008070200080C
:1000B00007020008070200080702000807020008FC
:1000C00007020008070200080702000807020008EC
:1000D0000702000801530008070200080702000891
:1000E00007020008070200080702000807020008CC
:1000F00007020008070200080702000800000000CD
:1001000000000000070200080000000007020008CD
:1001100007020008000000000702000807020008AC
:10012000070200080702000807020008070200088B
:10013000070200080000000000000000070200089D
:10014000070200080702000800000000000000008D
:10015000000000000000000000000000000000009F
:10016000000000000000000000000000070200087E
:10017000070200080000000000000000000000006E
:10018000000000000702000800000000000000005E
:10019000000000000000000000000000000000005F
:1001A000000000000000000007020008070200082D
:1001B000070200080702000807020008000000000C
:1001C000000000000702000800000000000000001E
:1001D0000702000807020008DFF80CD000F0B6FAAA
:1001E0000048004731530008700700200648804748
:1001F00006480047FEE7FEE7FEE7FEE7FEE7FEE70C
:10020000FEE7FEE7FEE7FEE78D490008D90100089A
:100210002DE9F05F0546002092469B46884606463B
:10022000814640241BE0284641464746224600F0CE
:10023000DAF853465A46C01A914110D3114618466F
:10024000224600F0C1F82D1A67EB01084F462246FE
:100250000120002100F0B8F817EB00094E41201EE4
:10026000A4F10104DFDC484631462A464346BDE896
:10027000F09FD2B201E000F8012B491EFBD270477B
:100280000022F6E710B513460A4604461946FFF762
:10029000F0FF204610BD2DE9FE4F81EA030404F073
:1002A000004421F0004100944FF0000B23F0004384
:1002B00050EA01045ED052EA03045BD0C3F30A544F
:1002C000C1F30A552C44A4F2F3340194A0FB025468
:1002D000C1F3130141F48011C3F3130343F48013FA
:1002E00001FB024400FB034E840A970A44EA81544E
:1002F00047EA8357A4FB076802958D0A05FB07852B
:100300004FEA932C04FB0C542705029D4FEA065834
:1003100047EA1637B5EB08056EEB070C870E920E11
:1003200047EA811742EA8312A7FB0201B6EB0B01F1
:1003300064EB00042B0D43EA0C335E1844EB1C50B5
:10034000DA465146E7FB0201C5F313044FEA0B33CB
:1003500043EA14534FEA0432019C43EA0603A4F132
:100360000C040294009CCDE900B400F05BF803B0EB
:10037000BDE8F08F00200146F9E70EB5C10F80EA15
:10038000E0700844CA07002140F233438DE80E00B4
:100390000A460B4600F046F803B000BD30B50B46E8
:1003A000014600202022012409E021FA02F59D42A5
:1003B00005D303FA02F5491B04FA02F52844151E79
:1003C000A2F10102F1DC30BD202A04DB203A00FA60
:1003D00002F1002070479140C2F1200320FA03F39C
:1003E000194390407047202A04DB203A21FA02F09A
:1003F0000021704721FA02F3D040C2F1200291405F
:1004000008431946704710B5141E73F1000408DA4A
:10041000401C41F1000192185B411A4301D120F0C8
:10042000010010BD2DE9F04D92469B4611B1B1FA85
:1004300081F202E0B0FA80F220329046FFF7C4FF6A
:1004400004460F4640EA0A0041EA0B0153465A4669
:10045000084313D0114653EA010019D0C8F14002F5
:100460005046FFF7C0FF05460E46504659464246E5
:10047000FFF7AAFF084305D0012004E020463946D3
:10048000BDE8F08D0020054346EAE0762C43374373
:100490000A986305E40AA0EB08000022FD0A44EA7A
:1004A00047540A3002D500200146E9E7010510193A
:1004B0006941DDE9084500196941BDE8F04DA2E751
:1004C0002DE9FE4F804681EA0300C00F0C460090E4
:1004D00021F0004123F00045B8EB0200A94105D20C
:1004E0004046214690461C460B46024623F00040FB
:1004F000104347D0270DC7F30A00C3F30A510290F7
:10050000401A019040286BDAC3F3130040F4801BBB
:100510000098924620B10023D2EB030A63EB0B0B49
:1005200001985946C0F140025046FFF74DFF06467C
:100530000D4650465946019A00F020F910EB08008C
:100540006141002487EA115284EAE7731A4340D0DC
:10055000009A62B3019A012A4FEA075215DC001B88
:1005600061EB02014FF0004202EA0752CDE900427E
:10057000001C41F5801132462B46FFF753FF03B0B4
:10058000BDE8F08F40462146F9E7001B61EB020110
:10059000001C41F5801300185B412018A2F50017DC
:1005A00047EB030140EAD570B6196D4111E06D08C3
:1005B0004FEA360645EAC0754FEA0752001B61EB69
:1005C0000201001C41F5801149084FEA3000001972
:1005D000514132462B4603B0BDE8F04FFFF713BF41
:1005E0000098012240000023D0EB020263EBE0738D
:1005F000009821464FEAE074B8EB000061EB04017B
:10060000E9E783F000435BE781F0004158E72DE91B
:10061000F04D81EA030404F0004B21F0004514463C
:100620004FF0000A23F0004150EA050220D054EABE
:1006300001021DD0C5F30A570246C5F31303C1F3E7
:100640001300C1F30A5640F4801543F48013A7EB5E
:100650000608101BD64608F2FD3873EB050002D3DE
:1006600008F1010801E092185B41B8F1000F03DACC
:1006700000200146BDE8F08D00204FF480110646B1
:1006800084460EE0171B73EB050705D3121B63EBC3
:10069000050306434CEA010C49084FEA3000921862
:1006A0005B4150EA0107EDD152EA030012D082EA21
:1006B000040083EA0501084305D0101BAB4106D2B4
:1006C0000122002306E000224FF0004302E06FF019
:1006D000010253101AEB06004CEB085110EB0A0014
:1006E00041EB0B01BDE8F04DFFF78DBEC1F30A529F
:1006F000C1F3130140F2FF3341F480119A4202DA50
:1007000000200146704740F233439A42A2F233423E
:1007100002DC5242FFF767BEFFF756BE30B5041E3B
:1007200071F1000404DB4FF00044404264EB01012E
:10073000141E73F1000405DB1C464FF000435242C7
:1007400063EB0403994208BF904230BD1CB50948D1
:100750000090094801900546009C06E0E06840F0E2
:10076000010394E8070098471034AC42F6D3FFF732
:1007700037FD0000C85E0008E85E0008202A06DB9E
:10078000CB17203A41FA02F043EAE07306E041FA5F
:1007900002F3D040C2F1200291400843194670474D
:1007A0000146806AC36DC26D13F0500F08D0D206A7
:1007B00048BF00F0C5BB406D426B0846104700BF04
:1007C00042F40071C16501680B68CA681B0703D455
:1007D000910707D500F0B0BB12F4406FFAD1C96899
:1007E0008904F7D4C16D21F48071C165C16DC9045C
:1007F00048BF00F0A1BBC16D41F00101C16500F02F
:100800009BBB0000806AC16D41F04001C165016E73
:1008100041F00401016600F093BB0000806A00F023
:100820008DBB0000B0B5016804468A688868C007BF
:100830004FF0000031D012F0020218BFB0BD88683E
:1008400000F00D0001281FD188684FF6C072C7F66E
:10085000FF721040023088600320086001F038F811
:1008600021688968C90704BF0020B0BD054602E0C1
:100870008068C00712D001F02BF8411B20680329C3
:10088000F6D38168C907F3D0E06D40F01000E06551
:10089000206E40F0010020660120B0BD0020B0BDF8
:1008A00070B582B004460020019021688A68D207A2
:1008B00011D14FF6C076C7F6FF76886806F17F0241
:1008C00010420BD0E06D40F01000E065206E40F06B
:1008D00001002066012002B070BD00BF8868304072
:1008E00040F00100886040F20830C5F20000006866
:1008F000000221D400F0ECFF21680A68D20717D16A
:10090000054602E00868C00712D18868C00704D114
:100910008868304040F00100886000F0D9FF401B3B
:1009200021680328EED30868C007EBD1CAE700BFEF
:10093000002002B070BD00BF40F20C00C2F2000007
:10094000006842F663518009C0F23E51A0FB0101EC
:10095000880900EB40000C2101EB80000190019818
:100960000028C7D001980138019001980028C1D013
:1009700001980138019001980028BBD001980138F6
:10098000019001980028B5D0019801380190019894
:100990000028E7D1AEE7000040F2280040F2DC1169
:1009A000C2F20000C2F2000101604FF0904181608C
:1009B0004FF4004201618161802182814022818364
:1009C00040F200418282C4F600010122C0E908120F
:1009D0000021818070470000FEE7000040F2BC006B
:1009E000C2F2000000F01CBD40F27C10C2F2000018
:1009F00000F016BD40F21C10C2F2000000F010BD65
:100A000070470000EFF3108072B600BFFEE70000F1
:100A1000B0B582B004460020019094F85800012837
:100A200002D1022002B0B0BD012084F85800204657
:100A30000D46FFF7F7FEE16D10B141F010014BE0FC
:100A400041F2021291430231E16521684FF6C07311
:100A5000D1F808C0C3F6FF7303EA0C0305F0804524
:100A60004DF601622B44C0F2040203F100438B6097
:100A70008B68B3F1FF3F2BDC019B01330193019B9A
:100A800093421DD88B68B3F1FF3F21DC019B0133FA
:100A90000193019B934213D88B68B3F1FF3F17DC9E
:100AA000019B01330193019B934209D88B68B3F1F9
:100AB000FF3F0DDC019B01330193019B9342D7D98A
:100AC000E06D40F0100020F00201012004E000BFC2
:100AD000E16D012262F30101E165002184F8581003
:100AE00002B0B0BD90F85820012A04BF0220704720
:100AF00070B582B00022019200920268B2F1A04F5C
:100B000030D140F208324FF6006C4FF60055C5F276
:100B10000002CFF6FF7CCFF6FF7552F80C40535918
:100B200023435B071ED4D1F800E01368BEF1000F29
:100B300023F4604424D04B6890F8386043EA46338D
:100B400023431360535952F80C603343DB0723D11E
:100B5000136840F61F768968B343194341EA0E01D2
:100B600019E000BFC16D41F02001C16501210022E3
:100B700080F8582002B0BDE870400846704700BFBA
:100B80001460515952F80C301943C90704D1116847
:100B900040F61F73994311600021E8E7F0B581B07A
:100BA0000022009290F85820012A03D10221084621
:100BB00001B0F0BD0123076880F85830BB685B07BF
:100BC00034D4D1E900351F26C5F3012407EB840492
:100BD000226B05F01F05AE40C3F38463B243AB4004
:100BE0001A432263BA68BB6802F0040203F00803E8
:100BF000D21840F0BC800A6807F114030426C2F33F
:100C00004064D1F808E006EAD25C53F82440C2F30D
:100C100004550722AA40BEF1004F24EA02040BD17A
:100C200043F80C401A6842F000430DE0C16D41F0FA
:100C30002001C165012178E10EFA05F2224343F853
:100C40000C201A6822F000437B61D1E90435FC686E
:100C5000042B5FD13A6E3A6E0B68C2F3846293FA4A
:100C6000A3F6C3F3846C6FF3DF43B6FA86F5002B6B
:100C70002C464FF6FF7E08BF6446A242C0F2070E24
:100C80000CD13A6E22F000423A660A6802EA0E037C
:100C9000C2F3846C92FAA2F2B2FA82F57A6E7A6E9C
:100CA000002BC2F384622C4608BF6446A2420CD1DA
:100CB0007A6E22F000427A660A6802EA0E03C2F3F4
:100CC000846C92FAA2F2B2FA82F5BA6EBA6E002B76
:100CD000C2F384622C4608BF6446A2420CD1BA6EAD
:100CE00022F00042BA660A6802EA0E03C2F3846C7C
:100CF00092FAA2F2B2FA82F5FA6EFA6E002BC2F301
:100D0000846208BF6546AA4231D1FA6E22F00042E1
:100D1000FA662CE0062202EA940205FA02FC0E684A
:100D200007F1600555F823404FF20002C0F2FF3290
:100D300006F0F846224046EA0C06324342F00042F2
:100D400045F823200A698B6955F8226026F08076E1
:100D5000334345F822300A690B7F55F82260012B96
:100D600026F0007608BF06F1007645F82260BA68E2
:100D70000D68D20750D1CA68D7F8B0602B466FF320
:100D8000DF4326EA030C4FF6FF7602F01804C0F2A8
:100D90000706E64000242E40C4F27F0446EA0C0613
:100DA000A242C7F8B06037D193B195FAA5F2B2FA72
:100DB00082F2013202F01E03092B02F01F0310D849
:100DC00001229A4003EB430342EA035315E000BFBC
:100DD000012202EB956202F01E030A2B02F01F03B0
:100DE000EED3012200269A4003EB4303CFF62066A0
:100DF00006EB03531A4342F00073C3F3406607EB5C
:100E000086068A687569C3F3045307249C40A5438A
:100E10009A402A4372610D680021C8F208010D4210
:100E200000F0828040F2083CC5F2000CDCF8004083
:100E30000021CCF221318D4204F0E07E04D010215B
:100E4000C9F2C0018D4241D1B7F1A04F4FF000016E
:100E500008BF14F4000268D1DCF8001042F66352B7
:100E600021F0E07141EA0E0141F40001CCF80010DC
:100E700040F20C01C2F200010968C0F23E52890939
:100E8000A1FB0212910901EB41010C2202EB81014D
:100E900000910099002947D00099013900910099EB
:100EA000002941D00099013900910099E1B30099DE
:100EB000013900910099B9B3009901390091009965
:100EC00000294FF00001E7D12FE000BF0021CCF254
:100ED00052718D4210D10021B1EB1E6F0CD1ACF5D7
:100EE00002718F4220D0DCF8001021F0E07141EA5D
:100EF0000E0141F0807115E0ACF502718F424FF0A8
:100F0000000112D00022CCF68432954208BF14F4BE
:100F100080020AD1DCF8001021F0E07141EA0E01F4
:100F200041F48001CCF800100021002280F8582004
:100F3000084601B0F0BD0000704700007047000097
:100F400070470000B0B582B00446002001904CB15B
:100F5000E06D58B121688868800012D48868C000AC
:100F600019D54CE0012002B0B0BD00BF204600F012
:100F700009F90020206684F85800216888688000FC
:100F8000ECD588684FF6C072C5F6FF7210408860D5
:100F90008868C00033D44FF6C0728868C5F6FF7207
:100FA00002F18052104000F18050886040F20C0045
:100FB000C2F20000006842F663528009C0F23E525D
:100FC000A0FB02029009022202EB4000019001986E
:100FD000A8B100BF019801380190019878B101983B
:100FE00001380190019850B10198013801900198A1
:100FF00028B101980138019001980028EAD1886849
:10100000C00009D4E06D40F01000E065206E40F0B3
:1010100001002066012000E000208A68E36D02F0F4
:10102000040203F01003D218E26D71D122F4817230
:101030000232E2658A68D2071AD140F2083C4FF6C4
:1010400000534FF60062C5F2000CCFF6FF73CFF6E7
:10105000FF725CF803305CF802201A43D20707D114
:101060006268DCF8003023F47C131A43CCF80020CB
:1010700094F81DE0E36BD4E902C243EA4E331A430D
:1010800094F8243042EA0C02012B42EA034207D1D1
:10109000D4F828C00023CFF6FE7303EB4C431A4369
:1010A000E36A33B1D4F830C003F4787343EA0C0335
:1010B0001A43D1F80CC044F20703CFF6F07303EAE9
:1010C0000C031A43CA600A69636B22F040621A4338
:1010D0000A618A68120744D494F83820237F5200AA
:1010E00042EA833CCB6844F2020223EA020242EA6B
:1010F0000C02CA6022690B6982B143F480330B6130
:10110000D1F8C0C043F6FF732CEA03031A430DE085
:1011100042F010010120E16502B0B0BD23F480323D
:101120000A61D1F8C02043F6FF739A43C1F8C0208A
:1011300094F840300A69012B10D140F2FD7322EA85
:10114000030CD4E91132D4E913E543EA0C031A4342
:1011500042EA0E022A4342F0010201E022F00102BB
:101160000A6162690B6B012A23F00F0202D1236A24
:10117000013B1A430A63E16D012262F30101E1655B
:1011800002B0B0BD70B598B004460020CDE916009D
:1011900002A804304021FFF773F82068B0F1A04F97
:1011A00002D018B070BD00BF4FF4004002904FF065
:1011B0000050119002A800F0DBFC002818BFFFF7D8
:1011C00021FC41F24C00C4F202000168002641F407
:1011D00000510160016801F4005101910199016819
:1011E00041F001010160006813A900F001000190C5
:1011F00001980F201390032014904FF09040159603
:1012000000F082FA40F2BC050820C2F20005C4F2E8
:10121000020005214FF4807385E8430005F11400B6
:1012200080224FF4806C4FF0200E80E80850284652
:10123000C5E903622E6200F049F9002818BFFFF7E4
:10124000E1FB6565AC6218B070BD00002DE9F041AE
:1012500040F200170446C5F20007D7F808022368D9
:1012600090469B685A0704D40E4694F858100129FA
:1012700002D10220BDE8F08100F01F050120092DF8
:1012800084F8580008D8A84040F22121084203D031
:101290002046FFF705FB28B1002084F85800012004
:1012A000BDE8F0812168E06D40F60172904300F5E1
:1012B0008070E0650DB1B94203D0E06D20F480107C
:1012C000E065E06D40F2A173C0044FF0000044BF40
:1012D000206E20F006002066606D40F61D07C0F607
:1012E0000003C0F6000740F605050022C0F6000521
:1012F000C0E90B371C2345630B6084F858204A680B
:10130000434642F010024A60CA6842F00102CA60D5
:101310004031324600F070F921684FF6C0738A6898
:10132000C7F6FF731A4004328A60BDE8F0810000FE
:10133000014690F82500022828D180B50868D1E937
:1013400010CE8A6C036823F00E030360136823F445
:1013500080731360026822F0010202600EF01F0029
:10136000012202FA00F0CCF80400D1E91320506009
:10137000486D30B1026822F480720260D1E9160231
:1013800042600020BDE8804003E000BF0420C86345
:101390000120012281F82520002281F824207047B5
:1013A00090F82510022931D180B50168D0E910CE1E
:1013B000826C0B6823F00E030B600B6823F00103B3
:1013C0000B60116821F4807111600EF01F02012181
:1013D00001FA02F2CCF80420D0E913325A60426DCF
:1013E00032B1136823F480731360D0E9162353607D
:1013F00080F82510826B002180F824100AB19047F4
:101400000021BDE880400846704700BF0421C16349
:101410000121002280F8251080F82420084670471A
:10142000B0B5D0E910C30268DCF8001003F01F0368
:101430000424D2F800E09C400C4218BF1EF00405C2
:1014400022D102249C400C4218BF1EF0020529D173
:10145000D940090724D51EF0080108BFB0BD1168A6
:1014600021F00E011160012101FA03F2CCF80420F1
:10147000C16380F82510416B002280F8242079B1E7
:10148000BDE8B040084700BF1168890603D4116861
:1014900021F004011160CCF80440016B0029EFD168
:1014A000B0BD00BF1168890606D4116821F00A0199
:1014B0001160012180F82510CCF80440C16A002297
:1014C000002980F82420DBD1EAE7000000284FF053
:1014D000010100F08E802DE9F04740F2000CC4F2CB
:1014E000020C03684FF6F8320CF5816ECBF6FD72F4
:1014F000734538BF02F580624CF6CD441A44CCF6F1
:10150000CC44A2FB042803F0FC02A2F10802A2FBD7
:1015100004290CF580656FF00304D0E90262D0F86D
:1015200010A03CBF0025C4F2020504EA9804C0E9FB
:101530001054022580F825501D6847F6F07725EAFB
:1015400007073A43476942EA0A0285693A43C7698D
:101550002A43056A3A432A4332431A600CF5026271
:10156000734538BF0CF50062A3180CF50862C2641D
:10157000C9F3041240F6840C01FA02F2B6F5804F6A
:10158000C4F2020C8364026506D100214160196037
:10159000CCF800201EE000BF41685FFA81FE0139EF
:1015A00003294FF00001C3F800E0CCF8002011D867
:1015B000AEF101020CEB820747F87C1F02F01F011D
:1015C000012202FA01F30CF1BC023946CCF8C0301A
:1015D00002E000BF0022002300F1540C8CE80E0052
:1015E00000210122C16380F8252080F82410BDE885
:1015F000F04708467047000090F824C0BCF1010F86
:1016000047D04FF0010C80F824C090F825C0BCF101
:10161000010F3BD12DE9F0414FF0020C80F825C0BD
:101620004FF0000CC0F83CC0D0F800C000F14C0EE8
:101630009EE83040DCF80060BEF1000F26F00106A5
:10164000CCF8006065601CBFD0E916456560D0E944
:101650001056012706F01F06846807FA06F6D0F830
:1016600030806E60CCF804300B46102C04BF13465B
:101670000A46CCF80830CCF80C20DCF80010B8F1A1
:10168000000F09D041F00E010EE000BF002180F8EC
:1016900024100220704700BF21F00401CCF8001094
:1016A000DCF8001041F00A01CCF80010806C0168F1
:1016B000C90303D5016841F480710160BEF1000FD8
:1016C00005D0DEF8000040F48070CEF80000DCF8B1
:1016D000000040F00100CCF800000020BDE8F081DF
:1016E000B0B5044600F0F4F8054640F20400C2F23A
:1016F00000004068611C18BF044400BF00F0E8F817
:10170000401BA042FAD3B0BD2DE9F04F82B00D6866
:10171000002D00F0C58000F13847860546EA97277E
:1017200041F20046C4F60006062240F2004EB042E6
:1017300008BF0522C4F2010E052F38BF3A464FF00C
:10174000000C012400270026009209E00D680136F4
:1017500035FA06F207F102070CF1040C00F0A08044
:1017600004FA06FB15EA0B08F0D0D1F804A0032315
:101770000AF003056A1EBB40012A6FEA03090FD86D
:101780008268CB6802EA0902BB401A438260426861
:10179000CAF3001322EA0B02B3401A43426003E08B
:1017A000032D01D103251FE0C2688B6802EA0902FC
:1017B000BB401A43022DC26016D16FF0030202EA49
:1017C000560202440CF01C050F23D2F820A003FAA5
:1017D00005FB0B692AEA0B0AAB4043EA0A031362D2
:1017E000D1F804A00AF00305026805FA07F302EA3B
:1017F00009021A431AF4403F0260A7D041F2600385
:10180000C4F202031A684FF6084A42F001021A6055
:101810001A68CFF6FF7A02F001020192019A26F0CF
:101820000302724452F80A900CF00C050F23009C3E
:10183000AB4029EA030304FA05F52B4342F80A30CA
:10184000DEF808204B6842EA080540F20C49DC0249
:1018500058BF22EA0805CEF80850C4F20109D9F8A9
:1018600000209D0242EA080458BF22EA0804C9F891
:101870000040DEF804209D0342EA080458BF22EA33
:101880000804CEF80440DEF80020DB0342EA080436
:1018900058BF22EA0804CEF80040012456E700BFF2
:1018A00002B0BDE8F08F00000069084018BF0120B9
:1018B00070470000426902EA0103914341EA034193
:1018C000816170471823002A08BF2823C150704740
:1018D00040F26C30C2F200000068704740F2040031
:1018E00040F26C31C2F20000C2F2000140680A68A6
:1018F000104408607047000080B5032000F08AF8AB
:101900000F2000F009F800281CBF012080BD00F066
:1019100029F8002080BD000070B540F20406C2F234
:1019200000067168E1B1044640F20C00C2F200000A
:101930004FF47A720068B2FBF1F1B0FBF1F001F004
:10194000D7F80F2C4FF0010508D838B94FF0FF3009
:1019500021460022002500F031F83460284670BD91
:10196000012070BD82B041F25800C4F202008168CB
:1019700041F001018160816801F00101019101994B
:10198000016841F080510160006800F080500090D3
:10199000009802B000F0E2B8002848BF704700F09D
:1019A0001F01012202FA01F11C2202EAD0004EF2CC
:1019B0000012CEF2000281507047000010B54EF6C2
:1019C0000C5CCEF2000CDCF80030C3F3022E8EF07B
:1019D0000704042C28BF0424BEF103034FF0FF3E8C
:1019E0000EFA04F438BF0023A14399400EFA03F322
:1019F0009A43114300F00F0200F160430901043AD9
:101A000003F564436244002848BF02F10C031970D7
:101A100010BD00004EF60C51CEF200010A684FF6E0
:101A2000FF031A4060F30A2242F0806040F0FD702C
:101A300008607047B0F5007F42D0002840F08080F9
:101A400047F21400C4F2000050F8141CC26E01F4F6
:101A5000C06122F48072B1F5806FC2662ED150F859
:101A6000141C012262F34A2140F8141C40F20C01BC
:101A7000C2F200010968322251434DF68362C4F27A
:101A80001B32A1FB0212910C0268520511D54A1CAF
:101A90000FD0026852050CD559B10268520508D51D
:101AA000012906D00268520503D50229A1F10401DB
:101AB000EAD10068400544BF03207047002070470A
:101AC00047F21400C4F2000050F8141CC26E01F476
:101AD000C06142F48072B1F5806FC266EED150F8F9
:101AE000141C012262F34A2140F8141C40F20C013C
:101AF000C2F200010968322251434DF68362C4F2FA
:101B00001B32A1FB0212910C0268520511D54A1C2E
:101B10000FD0026852050CD559B10268520508D59C
:101B2000012906D00268520503D50229A1F104015A
:101B3000EAD10068400544BF03207047BEE700BFFC
:101B400047F21400C4F2000050F8141C022262F3A1
:101B50004A2140F8141C00207047000047F208009A
:101B6000C4F20000016841F4804101607047000048
:101B70002DE9F04182B00446807841F288060007E2
:101B8000C4F2020602D400202FE000BF56F8300C49
:101B90005FEAC0080BD456F8300C40F0805046F88D
:101BA000300C56F8300C00F080500190019847F24C
:101BB0000007C4F20007386840F480703860FFF70F
:101BC00087FE05463868C00500F1D680FFF780FE25
:101BD000401B0228F6D90320B8F1000F05D456F8AF
:101BE000301C21F0805146F8301C2168CA0713D1FF
:101BF0008A0719D44A071FD40A0725D48A062BD48A
:101C00004A0631D40A0637D4CA053DD48A0543D4DE
:101C10004A0549D457E000BF3268636822F00302E6
:101C20001A4332608A07E5D53268A36822F00C02B5
:101C30001A4332604A07DFD53268E36822F0300287
:101C40001A4332600A07D9D53268236922F0C002EC
:101C50001A4332608A06D3D53268636922F440623F
:101C60001A4332604A06CDD53268A36922F4405245
:101C70001A4332600A06C7D53268E36922F440424B
:101C80001A433260CA05C1D53268236A22F4403251
:101C90001A4332608A05BBD53268636A22F4402257
:101CA0001A4332604A050ED53268A36A22F4401204
:101CB0001A43B3F5801F326005D156F87C2C42F4EC
:101CC000801246F87C2C0A050ED53268E36A22F4AD
:101CD00040021A43B3F5800F326005D156F87C2CD0
:101CE00042F4801246F87C2CCA040ED53268236B6D
:101CF00022F040721A43B3F1807F326005D156F86A
:101D00007C2C42F4801246F87C2C8A040ED5326872
:101D1000636B22F040621A43B3F1006F326005D169
:101D200056F87C2C42F4801246F87C2C4A040ED5DE
:101D30003268A36B22F040621A43B3F1006F326045
:101D400005D156F87C2C42F4801246F87C2C09040C
:101D50000ED53168E26B21F040511143B2F1805F42
:101D6000316005D156F87C1C41F4803146F87C1C6A
:101D700002B0BDE8F08100BFB06810F4407010D030
:101D8000216C88420BD0B068B16820F4407041F4F7
:101D90008031B160B16821F48031B160B060C007BA
:101DA0000CD1B068216C20F440700843B060002072
:101DB000B8F1000F3FF519AF11E700BFFFF788FD3D
:101DC000054641F2883700BFB0688007E9D4FFF7C5
:101DD0007FFD401BB842F7D9FDE600002DE9F04732
:101DE000002865D042F2000AC4F2020A0446DAF87A
:101DF00000000D4600F00F0088420CD2DAF8000017
:101E000020F00F002843CAF80000DAF8000000F0C4
:101E10000F00A8424CD1216841F20808C807C4F25B
:101E2000020803D1880740F1D480B9E06068022835
:101E30003AD0032840D158F8082C920138D5D8F868
:101E40000420D8F8043042F20046C3F3031302F032
:101E50000302D8F804700133C0F2F406032A04BF69
:101E600041F20026C0F27A06B6FBF3F2D8F804304D
:101E7000C7F306277A43C3F34163022707EB430303
:101E8000B2FBF3F24BF20043C0F2C4439A425DD975
:101E9000D8F8002012F0F00F4DD0890756D5A16870
:101EA000002953D147E000BF58F8081C890307D424
:101EB0000120BDE8F08700BF58F8081C4905F7D598
:101EC000D8F8001001F00C0104293FD0D8F8001018
:101ED00001F00C01082939D0D8F8001001F00C01EC
:101EE0000C2933D1D8F80410D8F8042042F2004766
:101EF000C2F3031201F00301D8F804300132C0F23A
:101F0000F407032904BF41F20027C0F27A07B7FBA8
:101F1000F2F1D8F80420C3F306235943C2F3416217
:101F2000022303EB4202B1FBF2F14BF20042C0F29A
:101F3000C44291420AD9D8F80010082262F307116E
:101F40004FF00109C8F8001002E000BF4FF000098F
:101F5000D8F8001021F003010843C8F80000FFF78B
:101F6000B7FC064641F28837D8F80000616800F0F7
:101F70000C00B0EB810F07D0FFF7AAFC801BB84222
:101F8000F2D90320BDE8F0872168880708D4B9F1A9
:101F9000000F1ED0D8F8000020F0F00017E000BFBE
:101FA000480705D5D8F8000040F4E060C8F8000004
:101FB000080706D5D8F80000072262F30D20C8F8FC
:101FC0000000D8F80000A26820F0F0001043C8F824
:101FD0000000DAF8000000F00F00A8421BD9DAF880
:101FE000000020F00F002843CAF80000FFF770FC43
:101FF000064641F2883700BFDAF8000000F00F0013
:10200000A84207D0FFF764FC801BB842F4D9032034
:10201000BDE8F0872168480707D5D8F80000E268D6
:1020200020F4E0601043C8F80000080708D5D8F88D
:102030000000216920F4605040EAC100C8F80000A7
:10204000D8F8000042F20041C0F2F40100F00C00A8
:10205000042808462DD0D8F8000000F00C0008280D
:1020600041F20020C0F27A0023D0D8F8002002F01C
:102070000C020C2A1CD1D8F80420D8F8043002F045
:102080000302C3F30313D8F804700133032A08BF13
:102090000146B1FBF3F0D8F80410C7F30627C1F3EB
:1020A00041610222784302EB4101B0FBF1F000E014
:1020B0000020D8F8001045F67862C1F30311C0F68D
:1020C0000002515C40F20C0201F01F0120FA01F104
:1020D00040F20400C2F200000068C2F20002116087
:1020E000BDE8F047FFF718BC40F20C0041F20801D0
:1020F000C2F20000C4F202010068096845F6886275
:10210000C1F30221C0F60002515C01F01F01C8407A
:102110007047000040F20C0041F20801C2F20000DA
:10212000C4F202010068096845F68862C1F3C22161
:10213000C0F60002515C01F01F01C840704700006A
:1021400041F20C01C4F2020151F8040C42F20042C7
:10215000C0F2F40200F00C000428104608BF7047DB
:1021600051F8040C00F00C00082841F20020C0F2E5
:102170007A0025D051F8043C03F00C030C2B1CBF53
:102180000020704780B5D1F800C00B680CF0030C3C
:10219000C3F3031E0B680EF1010EBCF1030F08BF61
:1021A00002460968B2FBFEF0C3F30623C1F34161A6
:1021B0000222584302EB4101B0FBF1F0BDE8804040
:1021C00070470000002804BF012070472DE9F0414E
:1021D00082B00446007841F20006C007C4F202064D
:1021E0001ED1207880073DD42078000764D4207861
:1021F000400700F187802078800600F1D980E569EA
:10220000002D00F04482B06800F00C000C2840F073
:102210003181012D40F09081012002B0BDE8F081B4
:10222000B06800F00C01F068082961D0032281F049
:102230000C0122EA00000844B0FA80F0400957D1AE
:102240006068B0F5803F07D0B0F5A02F40F0E48083
:10225000306840F480203060306840F48030306076
:10226000E5E000BFB068F16800F00C00042871D010
:1022700001F0030180F00C0081F002010844B0FA83
:1022800080F0400966D1E1683068002900F0E08004
:1022900040F480703060FFF71BFB05463068400556
:1022A00000F10A81FFF714FB401B0228F6D9032036
:1022B00002B0BDE8F08100BF6169D6F89400002942
:1022C00000F0948040F00100C6F89400FFF700FB96
:1022D000054600BFD6F8940080073FF588AFFFF7AA
:1022E000F7FA401B0228F5D9032002B0BDE8F081BF
:1022F000306880037FF575AF606800287FF471AFA8
:102300003EE000BFB06D5FEAC00808D4B06D40F099
:102310008050B065B06D00F080500190019847F298
:102320000007C4F200073868C0052DD4386840F4AF
:1023300080703860FFF7CCFA054600BF3868C005EA
:1023400022D4FFF7C5FA401B0228F7D9032002B0B8
:10235000BDE8F0813068400501D5E06880B1706863
:10236000216920F0FE4040EA0160706040F2040004
:10237000C2F200000068FFF7CFFA00283FF434AF44
:10238000012002B0BDE8F081A068012808D005282E
:1023900040F0B080D6F8900040F00400C6F89000FD
:1023A000D6F8900040F00100C6F89000B0E000BF01
:1023B000A169D6F89800002900F0868040F001005D
:1023C000C6F89800FFF784FA054600BFD6F89800D3
:1023D00080073FF514AFFFF77BFA401B02284FF050
:1023E0000300F3D902B0BDE8F08100BF20F0010086
:1023F000C6F89400FFF76CFA054600BFD6F89400C3
:1024000080077FF5F4AEFFF763FA401B0228F5D989
:10241000032002B0BDE8F0813168002821F480314A
:102420003160316821F48021316000F0BF80FFF716
:102430004FFA0546306880033FF5D3AEFFF748FA00
:10244000401B6428F6D9032002B0BDE8F08100BF2C
:1024500020F480703060FFF73BFA05463068400595
:102460007FF5C2AEFFF734FA401B02284FF003009D
:10247000F4D9B7E7306820F080703060FFF728FAB1
:10248000022D05460CD100BF3068800140F1BA80B2
:10249000FFF71EFA401B02284FF00300F4D9A1E712
:1024A0003068800140F1EC80FFF712FA401B0228EF
:1024B0004FF00300F4D995E77068216920F0FE40E1
:1024C00040EA016070608FE620F00100C6F89800D5
:1024D000FFF7FEF9054600BFD6F8980080077FF5A4
:1024E0008EAEFFF7F5F9401B02284FF00300F3D939
:1024F00078E700BFD6F89010002821F00101C6F857
:102500009010D6F8901021F00401C6F890105DD01C
:10251000FFF7DEF9054641F2883700BFD6F8900094
:10252000800765D4FFF7D4F9401BB842F6D90320E1
:1025300002B0BDE8F08100BFF068216A00F003023C
:102540008A427FF41DAF626A6FF00F0300F0F00162
:1025500003EB021291427FF413AFA16A00F4FE4232
:10256000B2EB012F7FF40CAFE16A00F07842B2EBDE
:10257000C16F7FF405AF226B0023CFF6E07303EA4F
:10258000025200F4C001A2F5001291427FF4F8AEAD
:10259000616B4FF07E4202EA016100F0C06001F120
:1025A0007E4188427FF4ECAE71E000BFFFF790F906
:1025B000054600BF306880037FF513AEFFF788F94A
:1025C000401B64284FF00300F4D90BE7FFF780F9B4
:1025D000054641F2883700BFD6F89000800707D53E
:1025E000FFF776F9401BB8424FF00300F4D9F9E643
:1025F000B8F1000F3FF5FFADB06D20F08050B06531
:10260000F9E500BFF06848F20C01C0F29F1104F137
:10261000200700EA010C8ECF6FF00F00D4E90C54B4
:1026200000EB02100022CFF6E07241EA0C0102EA50
:1026300005520843A2F500124FF07E4540EA032000
:1026400005EA0465104305F17E4540EAC76028436A
:10265000F060306840F080703060F06840F080706A
:10266000F060FFF735F90446306880010FD4FFF7BA
:102670002FF9001B02284FF00300F5D9B2E600BF86
:10268000F0684FF6FC71CFF6EE610840F060002074
:1026900002B0BDE8F0810000002804BF01207047AF
:1026A000B0B50446406A28B10020206104F114004E
:1026B00006E000BF6068B0F5827F03D004F11C0023
:1026C000002101600025A56294F85D0020B9204634
:1026D00084F85C5000F052F8022084F85D00206815
:1026E000D4F80CE00268BEF5E06F22F04002026010
:1026F0004EF4006298BF0125B2F5706F1CBF002335
:10270000A3624FEA053CD4E90135D4E9042103F47E
:10271000827305F404452B4402F002021A44A369B3
:1027200001F00101E569114403F40072114405F060
:102730003802256A114405F08002A56A114405F4A7
:102740000052114301600421626A0EF4706501EACF
:102750001341636B45EA0C0502F01002294303F0B4
:102760000803114319434160C16921F40061C1614B
:1027700000200121206684F85D10B0BD006843F29E
:102780000001C4F20101884218BF704780B586B0CD
:1027900041F24C00C4F20200416941F480514161B0
:1027A000416901F4805101910199016841F00201F0
:1027B0000160006801A900F0020001900198382032
:1027C0000190022002900020CDE903000520059031
:1027D00040F20040C4F60000FEF796FF06B0BDE8E8
:1027E000804070472DE9F04381B0044690F85C00CA
:1027F000012803D1022001B0BDE8F08301201E466C
:1028000015460F4684F85C00FFF762F894F85D10F7
:10281000814601290CD1002F4FF0010018BF002D77
:1028200014D1002184F85C1001B0BDE8F08300BF32
:102830006068B0F5827F40F0B18004294FF002005B
:10284000EFD1A1680029E6D0EBE700BF002EE8D069
:1028500094F85D0004281CBF052084F85D0000206A
:1028600020662564A4F84660A4F84460A763E68760
:10287000C4E913002068A687E1684268B1F5E06FFB
:1028800022F48052134698BF03F58053012E88BF6F
:10289000134643600268520603D4026842F04002C5
:1028A00002606268731EB2FA82F2B3FA83F3DDF853
:1028B000208052095B09B1F5E06F43EA020175D946
:1028C00031B137F8021BC160A763E08F0138E087A0
:1028D000012518F1010036D102E000BFFEF7F8FF34
:1028E000E08F20B9B4F84600002800F0CD802068C1
:1028F000816889070CD5E18F51B1012D08D1A16BF9
:10290000002531F8022BC260A163E18F0139E18714
:102910008168C907E2D0B4F846100029DED0C0684B
:10292000216C012521F8020B2164B4F8460001381E
:10293000A4F84600D2E700BFFEF7CAFFA0EB0900EB
:10294000404580F09F80E08F20B9B4F84600002811
:1029500000F09A802068816889070CD5E18F51B119
:10296000012D08D1A16B002531F8022BC260A163B3
:10297000E18F0139E1878168C907DDD0B4F84610DD
:102980000029D9D0C068216C012521F8020B2164EF
:10299000B4F846000138A4F84600CDE70220002133
:1029A00084F85C1001B0BDE8F08300BF89B1E18F0D
:1029B00002294FF6FE7103D337F8022BC26004E000
:1029C0003A7801310273A06B471CA763E08F08447B
:1029D000E087012608F10105E08F18B9B4F8460038
:1029E000002851D020688168890719D5E18FB9B1D5
:1029F000012E15D1E28FA16B022A07D331F8022BE9
:102A0000C260A163E18F023908E000BF0978017359
:102A1000A16B20680131A163E18F01390026E187B4
:102A20008168C90726D0B4F8461019B3B4F8461027
:102A3000022913D3C168226C22F8021B2264B4F865
:102A400046100239A4F84610B4F84610012910D8EF
:102A5000416841F4805141600BE000BF007B216C74
:102A60000870206C01302064B4F846000138A4F8E6
:102A700046000126FEF72CFF002DADD0A0EB09008B
:102A80004045A9D3032029E020464FF4C0514246D7
:102A90004B4601F04FFE68B9204641464A4601F0D8
:102AA00009FF38B920464FF4C06142464B4601F059
:102AB00041FE78B1206E40F0200020662020206684
:102AC0000120216E51B10120002184F85C1001B079
:102AD000BDE8F0830020216E0029F4D1012184F8A3
:102AE0005D10002184F85C1001B0BDE8F0830000A7
:102AF000411E0020B0EB116F1CBF012070474EF249
:102B00001002CEF2000251604EF62351CEF20001C7
:102B1000F0230B70072190601160704790F83C2003
:102B2000012A04BF02207047B0B5D1E90232D1E9D1
:102B300000CE22F47C5223F4705343EA020448F29C
:102B4000FF73CEF6F0730EEA0302224303F500642E
:102B500004EA0C0442EA040C0C6903F5C05222405A
:102B60004C6942EA0C02224303F5605422400C6B8C
:102B700003F5F04323401A438B6940F2000CCC6903
:102B8000CEF6FF7C0CEA03431443D0F800C043F2B6
:102B90000042C4F20102944543EA040305D042F620
:102BA0000042C4F20102944516D14FF6FF72CDF6F1
:102BB0000F421A40D1E9083ED1E90A410025CDF67D
:102BC000F04505EA0454224323F008531A432EF03B
:102BD00000531A4342EA01030021CCF8443080F844
:102BE0003C10BDE8B04008467047000090F83C201B
:102BF000012A4FF002024AD070B580F83D200268E9
:102C000043F2004C54689368C4F2010C42F6004E43
:102C10006245C4F2010E01D0724503D14D6824F41F
:102C200070042C434FF68F75CFF6FF550E682C407D
:102C300042F6FF35C4F201053443AA4254600FDC6A
:102C4000B2F1804F16D040F20046C4F20006B24204
:102C500010D040F60006C4F20006B2420AD00EE0E0
:102C6000724507D044F20006C4F20106B24201D018
:102C7000624504D1896823F08003194391600121E2
:102C8000002280F83D1080F83C20BDE870401046DE
:102C900070470000002804BF0120704710B50446AB
:102CA00090F83D0028B9002084F83C00204600F050
:102CB00023F8022084F83D002068211D01F070FEF9
:102CC000012084F8480084F83E0084F83F0084F82E
:102CD000400084F8410084F8420084F8430084F8FE
:102CE000440084F8450084F8460084F8470084F8DE
:102CF0003D00002010BD0000006842F60041C4F213
:102D00000101884218BF704781B041F26000C4F2EF
:102D10000200016841F400610160006800F4006095
:102D20000090009801B0704790F83C20012A4FF0C5
:102D3000020200F0AC8080B580F83D20D0F800C0E1
:102D40008822DCF80830CFF6CE721A40CCF8082082
:102D50000B686F2B10DD1F22C0F21002934237DC8C
:102D6000B3F5005F46DA702B00F09480B3F5805F16
:102D700000F08480D8E000BF2F2B35DD4F2B3FDCE7
:102D8000302B6FD0402B40F0CF80D1F804E0C968E1
:102D9000DCF82030DCF8202022F00102CCF82020E2
:102DA000DCF8182022F0F00242EA011123F00A02B6
:102DB00042EA0E02CCF81810CCF82020DCF80810FB
:102DC0004FF68872CFF6CF721140473154E000BF02
:102DD0003F21C0F210018B423ADC2021C0F21001E9
:102DE0008B423FD0302139E0E3B3102B3AD0202B77
:102DF00038D099E062D0B3F1101F33D094E000BF17
:102E0000502B6FD0602B40F08F80D1F804E0C96860
:102E1000DCF82030DCF8202022F01002CCF8202052
:102E2000DCF8182022F4704242EA013123F0A002BB
:102E300042EA0E12CCF81810CCF82020DCF808106A
:102E40004FF68872CFF6CF721140673114E000BFA1
:102E50004021C0F210018B4204D07021C0F2100159
:102E60008B4261D1DCF808104FF68872CFF6CF7232
:102E70001140194341F00701CCF80810002201214C
:102E800080F83D10002180F83C10BDE880401046DD
:102E9000704700BFD1E901E3C968DCF8082043EAC4
:102EA0000E0322F47F4243EA01211143CCF80810BB
:102EB000DCF8081041F07701DEE700BFD1E901E35B
:102EC000C968DCF8082043EA0E0322F47F4243EA93
:102ED00001211143CCF80810DCF8081041F48041BE
:102EE000CAE700BFD1F804E0C968DCF82030DCF89C
:102EF000202022F00102CCF82020DCF8182022F05B
:102F0000F00242EA011123F00A0242EA0E02CCF872
:102F10001810CCF82020DCF808104FF68872CFF695
:102F2000CF7211405731A7E70122A8E7002804BF5C
:102F3000012070472DE9F047044690F83D000D460A
:102F400028B9002084F83C00204600F04BF802200D
:102F500084F83D0020684BF6F8728168CFF6FE7267
:102F600011408160211D01F01BFD20684FF6FF78A4
:102F700081688269D0F820C0D5E9003ED5E9026AAF
:102F800043EA0109AB6922EA080246EA03234FF645
:102F9000FC46B343D5E9076742EA0A0229691A43A6
:102FA00042EA062242EA01112CF0AA026B6942EAC7
:102FB0000E0241EA073142EA0312C0F8089081612B
:102FC0000262012084F8480084F83E0084F83F0043
:102FD00084F8440084F8450084F83D000020BDE8F2
:102FE000F08700007047000090F83C30012B04BFD0
:102FF000022070474FEAB202032A2DD8F0B5DFE86D
:1030000002F003314F6F00BF0368D1E900C5D1F86A
:103010000CE01C6A1A6A42F6FF3722F001021A62BB
:103020001A4652F8186FC4F20107BB4200F37E80C3
:10303000B3F1804F00F08C8040F20047C4F20007EB
:10304000BB4200F0858040F60007C4F20007BB4297
:1030500000F07E8098E000BF0121002280F83C2033
:10306000084670470368D1E900E6D1E902C11C6A4D
:103070001A6A360222F010021A621A4652F8185FD3
:103080004FF2FF07BE4325F4734561F30F3624F07A
:10309000A0040EF00A0746EA050144EA07173CE0DF
:1030A0000768D1E900C5D1E902313C6A3A6A61F3A7
:1030B000071522F480723A623A4652F81C6F26F0E5
:1030C000F30645EA060124F420660CF00A0546EAF8
:1030D000052611603E62116821F00C01116048E084
:1030E0000368D1E900E6D1E902C11C6A1A6A360216
:1030F00022F480521A621A4652F81C5F4FF2FF0700
:10310000BE4325F4734561F30F3624F420440EF0DA
:103110000A0746EA050144EA073711601F62116891
:103120004FEA0C2321F44061116022E042F600478F
:10313000C4F20107BB420BD044F20007C4F20107FE
:10314000BB4205D043F20047C4F20107BB421BD18A
:1031500026F00306354324F00A070CF00A066EF346
:10316000071537449D611F629F6927F00C079F6117
:103170008B681168194311600021BDE8F0400022FE
:1031800080F83C200846704746F00105E3E7000060
:10319000002804BF0120704710B5044690F83D0098
:1031A00028B9002084F83C00204600F023F80220D3
:1031B00084F83D002068211D01F0F2FB012084F815
:1031C000480084F83E0084F83F0084F8400084F80A
:1031D000410084F8420084F8430084F8440084F8F5
:1031E000450084F8460084F8470084F83D0000203C
:1031F00010BD0000006840F20041C4F200018842A6
:1032000018BF704770B586B041F24C00C4F202009E
:10321000C16801AC41F00201C160C168022501F042
:103220000201019101990168002641F0010101604C
:10323000016801F0010101910199016841F0020169
:1032400001600068214600F0020001900198C02052
:1032500001904FF090400295CDE903660595FEF789
:1032600053FA012001A961C140F20040C4F60000F8
:103270002146CDE90465FEF747FA06B0BDE8704087
:1032800070470000006842F60041C4F20101884224
:1032900018BF70472DE9F04186B041F24C00C4F2EE
:1032A0000200016840F2004441F00201016001683F
:1032B000C4F6000401F0020101910199016801AD19
:1032C00041F0010101600068022600F00100019058
:1032D00001984FF4C040019000274FF006082046A7
:1032E00029460296CDE90376CDF81480FEF70CFA54
:1032F0004FF4004001A9C1C1042005902046294691
:103300000496FEF701FA4FF4E06001A9C1C14FF045
:1033100090402946CDE90468FEF7F6F906B0BDE80D
:10332000F041704790F83C30012B04BF02207047F9
:103330004FEAB202052A00F25381F0B5DFE812F03D
:10334000060046008E00D6001E0156010268146A6F
:10335000136AA2F1804523F001031362A5F59635A7
:1033600096055368D2F818C046EA95258E68D1F8BC
:1033700000E024F00204072D44EA06040AD80126DE
:10338000AE4016F0E50F1FBFCE6824F00C0426F007
:1033900004063443072D0BD8012606FA05F515F06F
:1033A000E50F1FBFD1E9055623F440732B43334388
:1033B0004FF68C75CFF6FE750CEA050646EA0E064A
:1033C0005360966149685163146241E1026843F2B7
:1033D0000045146A136AC4F2010523F01003136256
:1033E0005368D2F818C0AA428D68D1F800E024F0E2
:1033F000200444EA051405D042F60045C4F2010554
:10340000AA4207D1CD686FF0400624F0C00406EA56
:1034100005152C43A2F18045A5F59635960546EA9B
:103420009525072D0CD8012606FA05F515F0E50FB0
:103430001FBFD1E9055623F44063354343EA8503B2
:1034400048F6FF45CFF6FF650CEA050646EA0E266C
:1034500053609661496891631462F9E0026843F22F
:103460000045146A136AC4F2010523F480731362E1
:103470005368D2F81CC0AA428D68D1F800E024F449
:10348000007444EA052405D042F60045C4F2010563
:10349000AA4207D1CD6840F2FF462D0224F44064D1
:1034A000B5432C43A2F18045A5F59635960546EA2D
:1034B0009525072D0CD8012606FA05F515F0E50F20
:1034C0001FBFD1E9055623F44053354343EA0513A2
:1034D0004FF68C75CFF6FE750CEA050646EA0E0629
:1034E0005360D6614968D1631462B1E0026843F267
:1034F0000045146A136AC4F2010523F48053136271
:103500005368D2F81CC0AA428D68D1F800E024F4B8
:10351000005444EA053405D042F60045C4F20105E2
:10352000AA4207D1CD6844F6FF762D0324F4404427
:10353000B5432C43A2F18045A5F59635960546EA9C
:103540009525072D0CD8012606FA05F515F0E50F8F
:103550001FBFD1E9055623F44043354343EA8513A1
:1035600048F6FF45CFF6FF650CEA050646EA0E264B
:103570005360D66149681164146269E00268D2F848
:1035800020C0136AA2F1804623F480331362A6F5AB
:10359000963697055368146D0D68D1F808E047EA30
:1035A0009626072E0AD8012707FA06F616F0E50F29
:1035B0001EBF4E6923F4803343EA06234FF68C7610
:1035C000CFF6FE760336344044EA050653601665AE
:1035D0002CF40037496847EA0E43916437E000BF96
:1035E0000121002280F83C20084670470268D2F88A
:1035F00020C0136AA2F1804623F480131362A6F55B
:10360000963697055368156D0C68D1F808E047EABF
:103610009626072E0AD8012707FA06F616F0E50FB8
:103620001EBF4E6923F4802343EA862348F6FF46F3
:10363000CFF6FF6606F54076354045EA042653602E
:10364000166549682CF4001747EA0E53D1641362DB
:103650000021BDE8F040002280F83C200846704779
:10366000002804BF0120704710B5044690F83D00C3
:1036700028B9002084F83C00204600F023F80220FE
:1036800084F83D002068211D01F08AF9012084F8AA
:10369000480084F83E0084F83F0084F8400084F835
:1036A000410084F8420084F8430084F8440084F820
:1036B000450084F8460084F8470084F83D00002067
:1036C00010BD00007047000090F88410012904BF6D
:1036D000022070472421C0F888100268116813681E
:1036E00023F00103136021F00053002141661360B1
:1036F0002022C0F8882080F8841008467047000017
:10370000704700007047000090F88420012A04BF31
:1037100002207047B0B52422C0F888200268D0F893
:1037200064E0D2F800C01368BEF1000F23F001037B
:103730001360936823F0606341EA0301916019D03C
:103740009368916845F6B86E490FC0F6000E45F6CD
:10375000C0651EF80140C0F60005695CC3F3426312
:10376000E400B4FBF1F11EF80340EB5CE500B5FBAF
:10377000F3F301E001210123A0F86A102021A0F851
:103780006830C2F800C0C0F88810002180F88410AA
:10379000BDE8B0400846704790F88420012A04BF75
:1037A00002207047B0B52422C0F888200268D0F803
:1037B00064E0D2F800C01368BEF1000F23F00103EB
:1037C0001360936823F0604341EA0301916019D0CC
:1037D0009368916845F6B86E490FC0F6000E45F63D
:1037E000C0651EF80140C0F60005695CC3F3426382
:1037F000E400B4FBF1F11EF80340EB5CE500B5FB1F
:10380000F3F301E001210123A0F86A102021A0F8C0
:103810006830C2F800C0C0F88810002180F8841019
:10382000BDE8B04008467047704700007047000090
:103830007047000070B5016840F62F03CA6904465E
:1038400008688E681340202B0CD100F0200306F08E
:1038500080555B1917D0616F69B32046BDE8704091
:10386000084700BF40F60F031A420CD00123C1F2F3
:10387000000306EA030C40F22013C0F200430340A9
:1038800013EB0C0328D1E36ED50615D5012B13D10C
:1038900010F0100310D0102008628868400627D46A
:1038A000B4F85C00B4F85E10B4F85E20002A18BFCB
:1038B000884240F03F8270BDD30240F1D58016F4BB
:1038C000800300F0D1804FF4801220460A62BDE8E8
:1038D0007040FFF7ABBF00BFD30718BF10F4807371
:1038E00040F00C81930706F0010E00F113811CE1FA
:1038F000D4F88000006841688AB2002ADBD0B4F8AE
:103900005C309A42D7D2A4F85E100068800600F1BD
:103910009E80206850E8000F216820F4807041E804
:103920000002DAB1206850E8000F216820F48070AE
:1039300041E8000292B1206850E8000F216820F4AD
:10394000807041E800024AB1206850E8000F216809
:1039500020F4807041E80002002ADAD1206850E8A3
:10396000020F216820F0010041E80202BAB320688A
:1039700050E8020F216820F0010041E8020272B312
:10398000206850E8020F216820F0010041E802029F
:103990002AB3206850E8020F216820F0010041E8B6
:1039A0000202002ADAD11AE0206850E8020F2168EA
:1039B00020F0400041E80202DAB1206850E8020F2E
:1039C000216820F0400041E8020292B1206850E8EE
:1039D000020F216820F0400041E802024AB120684D
:1039E00050E8020F216820F0400041E80202002A5E
:1039F000DAD12020C4F88C000020E066206850E86E
:103A0000000F216820F0100041E80002DAB12068C0
:103A100050E8000F216820F0100041E8000292B148
:103A2000206850E8000F216820F0100041E80002F3
:103A30004AB1206850E8000F216820F0100041E8EA
:103A40000002002ADAD1D4F88000FDF771FC0220D0
:103A50002067B4F85C00B4F85E10401A81B22046CA
:103A6000BDE87040FFF74CBE110606D500F080019E
:103A700006F40003C91840F0DF81510632D510F07A
:103A800040012FD0206850E8000F216820F040004E
:103A900041E80002DAB1206850E8000F216820F008
:103AA000400041E8000292B1206850E8000F216810
:103AB00020F0400041E800024AB1206850E8000FC1
:103AC000216820F0400041E80002002ADAD12020DD
:103AD0000021C4F888002046A167BDE8704000F0CE
:103AE00047BB00BF110240F1B38110F0804100F0EC
:103AF000AF812046BDE87040FFF796BE01230B6200
:103B0000D4F8903043F00103C4F89030930706F0E6
:103B1000010E0AD5BEF1000F07D002230B62D4F8C4
:103B2000903043F00403C4F8903053070AD5BEF137
:103B3000000F07D004230B62D4F8903043F0020347
:103B4000C4F8903013070CD500F0200353EA0C039F
:103B500007D008230B62D4F8903043F00803C4F870
:103B6000903013050BD510F0806308D04FF400633C
:103B70000B62D4F8903043F02003C4F89030D4F8AE
:103B80009030002B3FF497AE92060AD500F020004B
:103B900006F08052801804D0626F12B12046904720
:103BA0002168D4F89000896800F0280001F04001F5
:103BB000401807D12046FFF73BFE0020C4F89000D4
:103BC00070BD00BF206850E8000F216820F490709D
:103BD00041E80002DAB1206850E8000F216820F4C3
:103BE000907041E8000292B1206850E8000F21680F
:103BF00020F4907041E800024AB1206850E8000FBC
:103C0000216820F4907041E80002002ADAD14FF6D2
:103C1000FE70CEF6FF7000BF216851E8021F2268D7
:103C2000014042E80213C3B1216851E8021F226833
:103C3000014042E8021383B1216851E8021F226863
:103C4000014042E8021343B1216851E8021F226893
:103C5000014042E80213002BDED1E06E012824D19E
:103C6000206850E8000F216820F0100041E80002B1
:103C7000DAB1206850E8000F216820F0100041E818
:103C8000000292B1206850E8000F216820F0100077
:103C900041E800024AB1206850E8000F216820F096
:103CA000100041E80002002ADAD12020C4F88C007C
:103CB0000020E066216860678868400640F1C280A5
:103CC000206850E8020F216820F0400041E802021D
:103CD000DAB1206850E8020F216820F0400041E886
:103CE000020292B1206850E8020F216820F04000E3
:103CF00041E802024AB1206850E8020F216820F032
:103D0000400041E80202002ADAD1D4F880000028FD
:103D100000F0988044F62151C0F600018163FDF760
:103D20003FFB00283FF4C7ADD4F88000816BBDE8AD
:103D300070400847401A00BF216851E8001F226800
:103D400021F4907142E80013DBB1216851E8001FB3
:103D5000226821F4907142E8001393B1216851E880
:103D6000001F226821F4907142E800134BB12168D2
:103D700051E8001F226821F4907142E80013002BE3
:103D8000DAD14FF6FE71CEF6FF7100BF226852E81D
:103D9000022F23680A4043E80226C6B1226852E88F
:103DA000022F23680A4043E8022686B1226852E8BF
:103DB000022F23680A4043E8022646B1226852E8EF
:103DC000022F23680A4043E80226002EDED120217C
:103DD000C4F88C100021E166616700BF216851E8DA
:103DE000001F226821F0100142E80013DBB12168B6
:103DF00051E8001F226821F0100142E8001393B13E
:103E0000216851E8001F226821F0100142E80013E8
:103E10004BB1216851E8001F226821F0100142E8EF
:103E20000013002BDAD1022281B220462267BDE8BE
:103E30007040FFF765BC00BFA16F00297FF40DAD96
:103E400039E500BF2046BDE87040FFF7F1BC00BF78
:103E5000D1017FF530ADB0F1FF3FC8BF70BD204646
:103E6000BDE87040FFF74EBC10B5D0B10446D0F8A5
:103E7000880028B9002084F88400204600F026F845
:103E80002420C4F888002068A16A026822F0010298
:103E9000026011B1204600F015FE204600F048FFF8
:103EA00010B1012010BD00BF2168486820F4904087
:103EB0004860886820F02A008860086840F00102A5
:103EC00020460A60BDE8104000F072BE2DE9F041C6
:103ED00096B00446684608303C21FCF7D1F92068CA
:103EE00043F60001C4F20101884203D016B0BDE8D8
:103EF000F08100BF01200090002668460196FDF782
:103F000037FE002818BFFCF77DFD41F24C00C4F2DB
:103F10000200416940F21C0841F48041416141695D
:103F2000C4F2020801F4804111911199016841F035
:103F300002010160006811A900F0020011901198BF
:103F4000C02011900220CDE912060720159040F202
:103F50000040C4F600001496FDF7D6FB40F27C1535
:103F6000C2F2000519201021C5E9008005F1080002
:103F70008027C2C0C5E90566EE614FF48056284629
:103F80002E62FDF7A3FA002818BFFCF73BFDE5679A
:103F9000AC6240F21C1508F11400C2F200051821B1
:103FA000002285E807002846C5E90327C5E9052260
:103FB000C5E90726FDF78AFA002818BFFCF722FD9D
:103FC000252000210022C4F88050AC62FDF7F6FCE9
:103FD0002520FDF7E1FC16B0BDE8F0812DE9F041A8
:103FE0000446D0F8880020281CBF0220BDE8F081DC
:103FF0000D4600294FF0010000F0B8801646002A57
:1040000008BFBDE8F0810020C4F890002120984648
:10401000C4F88800FDF75CFCA4F85460A4F856606E
:10402000A1680646B1F5805F02D1206900286BD0F7
:104030002F460025B4F8560000286BD018F1010077
:104040001CD0B8F1000F3DD121680BE017F8010B2F
:104050008862B4F856000138A4F85600B4F8560047
:10406000002858D0C869000640F17A80002FEDD1B1
:1040700035F8020B00276FF35F20E9E7216802E0C3
:10408000C869000609D4C869000606D4C8690006D4
:104090005CBFC8695FEA0060F2D51FB117F8010B79
:1040A00005E000BF35F8020B00276FF35F20886240
:1040B000B4F856000138A4F85600B4F856000028A9
:1040C000E1D128E0216800BFC869000608D4FDF7E7
:1040D000FFFB801B404545D821680868F4E700BF16
:1040E00017B117F8010B04E035F8020B00276FF346
:1040F0005F208862B4F856000138A4F85600B4F87E
:1041000056000028E0D106E00027B4F85600002849
:104110007FF494AF2168C86940061FD4B8F1000F3E
:104120001ED018F101000FD1C869400616D4C86925
:10413000400613D4C869400610D4C86940064FF041
:104140000000F1D50FE000BFFDF7C2FB801B40452A
:1041500008D820680168C0694006F5D5002002E053
:10416000FDF7B6FB03202021C4F88810BDE8F081DC
:1041700070470000FEE7000010B58CB040F2500020
:10418000C2F200004FF0A04100244FF440324FF043
:10419000010C042380E816004FF480710B94CDE9E4
:1041A0000944CDE90744CDE90544CDE90344CDE90F
:1041B0000144C0E90344C0E905C38183036280F878
:1041C0002440C0E90B4480F83840C46380F8404084
:1041D000FCF7B8FE002818BFFCF714FC40F25000B2
:1041E000C2F2000009A90994FCF77CFC002818BF62
:1041F000FCF708FC0220C0F23040019006207F212D
:1042000002900020049104210390CDE9051040F2B2
:104210005000C2F2000001A9FCF7C0FC002818BF42
:10422000FCF7F0FB0C20029040F25000C2F20000BC
:1042300001A9FCF7B3FC002818BFFCF7E3FB122030
:10424000029040F25000C2F2000001A9FCF7A6FC67
:10425000002818BFFCF7D6FB1820029040F250004F
:10426000C2F2000001A9FCF799FC002818BFFCF776
:10427000C9FB0CB010BD000080B582B041F248000F
:10428000C4F202000168002241F0040101600168EB
:1042900001F0040101910199016841F001010160FF
:1042A0000068002100F00100009000980B20FDF74D
:1042B00085FB0B20FDF770FB0C2000210022FDF791
:1042C0007DFB0C20FDF768FB0D2000210022FDF78F
:1042D00075FB0D2002B0BDE88040FDF75DBB00001E
:1042E0002DE9F04387B0002641F24C00CDE9056688
:1042F000C4F20200016840F2004441F02001016074
:104300000168C4F6000401F02001019101990168DF
:10431000002241F00101016001684FF4805801F072
:10432000010101910199016841F0020101600068F9
:104330004FF4805100F00200019001982046FDF7F3
:10434000C1FA4FF090404FF4006100224FF4006931
:10435000FDF7B8FA4FF090404FF4004101220127D9
:10436000FDF7B0FA102002A902ADC1C14FF0904094
:104370002946FDF7C9F920462946CDE9029604965B
:10438000FDF7C2F920462946CDE90287CDE904763A
:10439000FDF7BAF94FF40840CDE902074FF090401D
:1043A0002946CDE90466FDF7AFF907B0BDE8F08313
:1043B000B0B540F2DC1043F20001C2F20000C4F2DA
:1043C00001014FF4827200234FF4706C4FF0010E24
:1043D0004FF40074202580E80E100721C0E9043E48
:1043E000C0E90645C0E90833C0E90A31C0E90C3329
:1043F000FEF752F9002808BFB0BDBDE8B040FCF799
:1044000001BB000010B59CB0002401A834211B940E
:10441000CDE91944CDE91644CDE91444CDE912445F
:10442000CDE91044CDE90E44FBF72AFF40F24020CD
:1044300042F60041C2F20000C4F201014FF6FF72E1
:10444000C0E90014C0E90242C0E904448461FEF7F7
:1044500021FC002818BFFCF7D5FA4FF480501890C3
:1044600040F24020C2F2000018A9FEF75DFC0028CF
:1044700018BFFCF7C7FA40F24020C2F20000FFF775
:10448000EFF8002818BFFCF7BDFA40F240200024E6
:10449000C2F2000015A9CDE915441794FEF7A6FB5A
:1044A000002818BFFCF7AEFA40F24020C2F200002C
:1044B0000EA900221494CDE91244CDE91044CDE9AF
:1044C0000E44FEF72FFF002818BFFCF79BFA40F2BE
:1044D0004020C2F200000EA90422FEF723FF0028AC
:1044E00018BFFCF78FFA40F24020C2F200000EA97C
:1044F0000822FEF717FF002818BFFCF783FA0020F8
:104500004FF40051CDE906104FF000710590CDE950
:104510000300CDE90100CDE90800CDE90A10CDE99D
:104520000C0040F24020C2F2000001A9FEF7F6FAAA
:10453000002818BFFCF766FA40F24020C2F20000E3
:10454000FEF7A0FE1CB010BD10B590B040F28C205C
:1045500040F200410024C2F20000C4F200014FF614
:10456000FF720694CDE90444CDE90244CDE900444C
:10457000C0E90014C0E9024204618461FEF708FE4C
:10458000002818BFFCF73EFA0120CDE90704CDE969
:104590000904CDE90D0440F28C20C2F2000007A905
:1045A000CDE90B440F94FEF7C1FC002818BFFCF7BF
:1045B00029FA40F28C200024C2F2000004A90494DD
:1045C0000694FEF713FB002818BFFCF71BFA012026
:1045D000CDE9010440F28C20C2F2000069460822B5
:1045E00000940394FEF700FD002818BFFCF70AFAB8
:1045F00010B010BD80B540F2D82043F60001C2F2E1
:104600000000C4F2010100234FF00C0C4FF4E13222
:1046100080E80E00C0E90333C0E905C3C0E90733F1
:10462000C0E90933FFF720FC002818BFFCF7EAF9BE
:1046300040F2D820C2F200000021FFF7ADF80028B8
:1046400018BFFCF7DFF940F2D820C2F200000021C9
:10465000FFF75AF8002818BFFCF7D4F940F2D82029
:10466000C2F20000FFF730F8002808BF80BDBDE8A7
:104670008040FCF7C7B90000FEE70000FEE700003D
:104680007047000010B5044644F2010000F026FF18
:1046900044F4804080EA102181EA111181EA9101FD
:1046A00081EA5101C90718BF44F4404000F016FFE9
:1046B000002000F013FF410412D402466FF3DF32F2
:1046C000C10B4FF00004FAB182EA122282EA121200
:1046D00082EA920282EA520202F0010215E000BF71
:1046E000012000F0FBFE0020002400F0F7FE40F265
:1046F0002802C2F2000200F0030107A0918000F03E
:1047000029FF204610BD00BF00226FF39F30914269
:1047100008BF0446204610BD6173353034375F65ED
:104720006E636F6465722E6572726F723A202564D3
:104730000A0000002DE9F04782B000261F4690468F
:104740000D4681468DF80360FDF7C2F8381A00EB7C
:104750000807FDF7BDF840F20C01C2F2000109683C
:1047600023225143090DD9F8004079430191A168F2
:10477000294235D0824618F1010035D0B5F5C06F19
:104780001AD100BF207B8DF803009DF80300FDF7D0
:104790009FF8A0EB0A00B8425ED201980199002868
:1047A000A1F101010191D9F80010896808BF0746FD
:1047B00011F4C06FE6D112E0FDF78AF8A0EB0A0011
:1047C000B84249D2019801990028A1F10101019153
:1047D000D9F80010896808BF07462942ECD10026A5
:1047E000304602B0BDE8F0870026B5F5C06F25D190
:1047F000207B8DF803009DF80300A06810F4C06FC3
:10480000EDD0207B8DF803009DF80300A06810F424
:10481000C06FE4D0207B8DF803009DF80300A068F2
:1048200010F4C06FDBD0207B8DF803009DF80300EF
:10483000A06810F4C06FDBD1D2E700BFA0682842A7
:10484000CDD0A0682842CAD0A0682842C7D0A068AE
:104850002842F3D1C4E700BFD9E900014268B1F5AD
:10486000827F22F0E00242600BD1D9F80810B1F546
:10487000004F02D0B1F5806F03D1016821F04001F3
:104880000160D9F82810B1F5005F07D1016821F463
:1048900000510160016841F400510160012089F874
:1048A0005D00002089F85C000326304602B0BDE8B8
:1048B000F0870000F0B581B015460E460446FDF7BE
:1048C00007F8281A8719FDF703F840F20C01C2F225
:1048D00000010968C1F3CB317943009121688A68EE
:1048E000120622D50546701C15D000BFFCF7F0FF5C
:1048F000401BB8421CD2009800990028A1F1010188
:1049000000912168896808BF07460806EED40CE0CC
:104910008868000609D58868000606D588680006FC
:1049200044BF88685FEA0060F2D4002001B0F0BDA7
:10493000D4E900014268B1F5827F22F0E0024260D2
:104940000AD1A168B1F5004F02D0B1F5806F03D153
:10495000016821F040010160A16AB1F5005F07D153
:10496000016821F400510160016841F400510160C7
:10497000012084F85D00002084F85C00032001B071
:10498000F0BD000070470000FCF7A8BF4EF688504D
:10499000CEF20000016841F4700101607047000030
:1049A00040F2FF7C0268C4F2000C604522DD40F654
:1049B0000003C4F20003984225D043F20043C4F23E
:1049C000010398421FD042F60043C4F2010398420B
:1049D00019D043F2FF33C4F2010398421DDC604555
:1049E0002ADCB0F1804F3DD040F20043C4F2000316
:1049F00036E000BFB0F1804F05D040F20043C4F272
:104A000000039842E5D14B6822F070021A4343F24A
:104A1000FF33C4F201039842E1DD44F2FF33C4F2F4
:104A20000103984212DC43F20043C4F201039842AE
:104A300018D044F2000311E040F60003C4F2000372
:104A400098420FD042F6004308E000BF44F600034E
:104A5000C4F20103984205D044F20043C4F20103BA
:104A6000984203D1CB6822F440721A4380B54B6957
:104A700022F0800E8A6843EA0E03D1F800C003607A
:104A8000C262A0F18042A2F59632830543EA9222E7
:104A9000072AC0F828C0BDE8804007D8012303FAE0
:104AA00002F212F0E50F1CBF0969016301214161A7
:104AB0000169C90708BF7047016921F0010101615F
:104AC00070470000816A0A070ED4CA0717D18A0707
:104AD00020D44A0729D4CA0632D48A063BD480B5EA
:104AE0004A0644D458E000BF0268D0F838C0536882
:104AF00023F4004343EA0C035360CA07E7D002687B
:104B0000D0F82CC0536823F4003343EA0C035360FD
:104B10008A07DED50268D0F830C0536823F48033AA
:104B200043EA0C0353604A07D5D50268D0F834C075
:104B3000536823F4802343EA0C035360CA06CCD5A0
:104B40000268D0F83CC0936823F4805343EA0C0316
:104B500093608A06C3D50268D0F840C0936823F4F6
:104B6000005343EA0C03936080B54A0614D50268EB
:104B7000D0F844C05368BCF5801F23F4801343EA87
:104B80000C03536008D1D2F804C0D0F848E02CF4EC
:104B9000C00343EA0E035360090658BF80BD016895
:104BA000C06C4A6822F400221043486080BD0000B7
:104BB000B0B582B004460020C4F89000FCF788FE2F
:104BC000216805460A68120737D56FF07E4C2046EB
:104BD0004FF4001100222B46CDF800C000F0F4F98C
:104BE00050B300BF206850E8000F216820F080001B
:104BF00041E80002DAB1206850E8000F216820F097
:104C0000800041E8000292B1206850E8000F21685E
:104C100020F0800041E800024AB1206850E8000F0F
:104C2000216820F0800041E80002002ADAD120202B
:104C3000C4F8880060E000BF21680868400761D5BB
:104C40006FF07E4C20464FF4800100222B46CDF8B9
:104C500000C000F0B9F9002854D000BF206850E827
:104C6000000F216820F4907041E80002E2B1206852
:104C700050E8000F216820F4907041E800029AB1DA
:104C8000206850E8000F216820F4907041E800028D
:104C900052B1206850E8000F216820F4907041E87C
:104CA0000002002ADAD100BF206850E8020F216814
:104CB00020F0010041E80202DAB1206850E8020F5A
:104CC000216820F0010041E8020292B1206850E81A
:104CD000020F216820F0010041E802024AB1206879
:104CE00050E8020F216820F0010041E80202002A8A
:104CF000DAD12020C4F88C000320002184F884102D
:104D000002B0B0BD2020C4F88800C4F88C00002098
:104D1000E0662067002184F8841002B0B0BD000076
:104D2000806A0021A0F85E10A0F85610FEF780BD42
:104D300070B5054605F108041ECC0068194341EA28
:104D40000403EE69046846F6F311CCF6FF712140C6
:104D5000194331430160416848F2000C21F440518D
:104D600011434160AA69C4F2000C60451CBF296A66
:104D70000A4381684FF2FF43C1F2FF131940114308
:104D80008160C16AD5F824E021F00F0141EA0E01EB
:104D9000C16244F6FF31C4F2000188424FF01003B3
:104DA00014DD44F60041C4F20001884222D060457F
:104DB00028D043F60001C4F20101884238D141F203
:104DC0008801C4F202010B687BA22DE044F200418D
:104DD000C4F2000188421DD044F60001C4F2000173
:104DE000884225D141F28801C4F2020109680B0909
:104DF00016E000BF41F28801C4F2020109688B0984
:104E00000EE000BF41F28801C4F2020109688B0A7A
:104E100006E000BF41F28801C4F2020109688B0874
:104E200045F6A862C0F6000203F0030152F82130F3
:104E3000604542F20040C0F2F40015D0B6F5004FD4
:104E400022D1082B4FF0010100F2AD80DFE803F022
:104E5000065C6AAB60ABABAB680000BFFDF744F922
:104E6000002840F059809AE0082B4FF0010100F231
:104E70009A80DFE803F0059825981B9898982300FE
:104E8000FDF732F9B0B98AE0082B4FF0010100F2CA
:104E90008A80DFE803F005636F88678888886D0083
:104EA000FDF722F9002860D179E000BFFDF748F94D
:104EB000002874D0D5F824E002E000BF4FF4004091
:104EC00045F69061C0F6000131F81E106A68B0FB2B
:104ED000F1F002EB420188424FF0010163D313036A
:104EE000984260D8010E000210EB520041F100011F
:104EF0000023FBF78DF94FF60052A0F54071C0F288
:104F00000F02914249D34DE0FDF704F920B946E084
:104F1000FDF716F9002842D0D5F824E002E000BFE2
:104F20004FF4004045F69061C0F6000131F81E10C4
:104F30006A68B0FBF1F0510801EB4000B0FBF2F001
:104F40004FF6EF72A0F1100191422BD84FF6F0719D
:104F50000140C0F3420008441FE000BFFDF7DAF84B
:104F600018B91CE0FDF7ECF8C8B1D5F824E001E071
:104F70004FF4004045F69061C0F6000131F81E1074
:104F80004FF6EF72B0FBF1F0696800EB5100B0FB37
:104F9000F1F0A0F11001914204D82968C860002105
:104FA00001E000BF01214FF00110A8660022084671
:104FB0006A67AA6770BD00BF01000000040000001E
:104FC00002000000080000002DE9F0418046006862
:104FD0001546C2690E461140891BB1FA81F1490993
:104FE000A94223D1069C2CB3611C29D1C16931404F
:104FF000891BB1FA81F14909A94217D1C169314030
:10500000891BB1FA81F14909A9420FD1C169314027
:10501000891BB1FA81F14909A94207D1C16931401F
:10502000891BB1FA81F14909A942DFD00020BDE80E
:10503000F08100BFFCF74CFC0320BDE8F08100BF0D
:105040001F4607E0C0693040801BB0FA80F040097D
:10505000A842EBD1FCF73CFCC01BA04200F2AE80A2
:10506000D8F8000001684907ECD5402EEAD0802E20
:10507000E8D0C169090700F1A580C1690905E1D53A
:105080004FF400610162D8F8000050E8000FD8F832
:10509000001020F4907041E800020AB3D8F8000034
:1050A00050E8000FD8F8001020F4907041E800029A
:1050B000B2B1D8F8000050E8000FD8F8001020F482
:1050C000907041E800025AB1D8F8000050E8000F93
:1050D000D8F8001020F4907041E80002002AD2D1E4
:1050E0004FF6FE70CEF6FF70D8F8001051E8021FA0
:1050F000D8F80020014042E80213F3B1D8F80010BC
:1051000051E8021FD8F80020014042E80213A3B181
:10511000D8F8001051E8021FD8F80020014042E8FA
:10512000021353B1D8F8001051E8021FD8F800203C
:10513000014042E80213002BD6D1D8F86C000128B8
:105140002CD1D8F8000050E8000FD8F8001020F05B
:10515000100041E800020AB3D8F8000050E8000F40
:10516000D8F8001020F0100041E80002B2B1D8F8E1
:10517000000050E8000FD8F8001020F0100041E8BF
:1051800000025AB1D8F8000050E8000FD8F800101B
:1051900020F0100041E80002002AD2D12020002196
:1051A000C8F88C00C8F86C10C8F87410C8F89000E3
:1051B000032088F88410BDE8F08100BF0320BDE81B
:1051C000F08100BF08210162D8F8000050E8000F0C
:1051D000D8F8001020F4907041E800020AB3D8F823
:1051E000000050E8000FD8F8001020F4907041E85B
:1051F0000002B2B1D8F8000050E8000FD8F8001053
:1052000020F4907041E800025AB1D8F8000050E84C
:10521000000FD8F8001020F4907041E80002002A36
:10522000D2D14FF6FE70CEF6FF70D8F8001051E8DC
:10523000021FD8F80020014042E80213F3B1D8F869
:10524000001051E8021FD8F80020014042E8021384
:10525000A3B1D8F8001051E8021FD8F8002001408F
:1052600042E8021353B1D8F8001051E8021FD8F8F1
:105270000020014042E80213002BD6D1D8F86C0080
:1052800001282CD1D8F8000050E8000FD8F8001001
:1052900020F0100041E800020AB3D8F8000050E8FE
:1052A000000FD8F8001020F0100041E80002B2B161
:1052B000D8F8000050E8000FD8F8001020F01000D7
:1052C00041E800025AB1D8F8000050E8000FD8F8C1
:1052D000001020F0100041E80002002AD2D1202066
:1052E000C8F88C0000200821C8F86C00C8F87400C9
:1052F000C8F8901088F884000120BDE8F081000013
:1053000040F2D820C2F20000FEF794BAFEE7000097
:1053100080B582B0019040F2D820C2F2000001A90D
:1053200001226423FEF75AFE019802B080BD0000FE
:1053300094B0FCF7E1FA002400200C94CDE90A4473
:10534000CDE90844FCF776FB01204FF480310325BA
:10535000069007910221CDE90E502A20CDE91001D7
:1053600006A80D91CDE91211FCF72CFF20B1EFF347
:10537000108072B6FEE700BF0F20CDE9010501A83D
:105380000421CDE903440594FCF728FD20B1EFF397
:10539000108072B6FEE700BFFEF7A2FFFEF76CFFBB
:1053A000FEF7EAFEFFF704F8FFF72CF8FFF7CCF85A
:1053B000FFF720F90A20FCF793F940F25004C2F2FB
:1053C000000420467F21FBF723FB40F2100BC2F2C2
:1053D000000B0BF1040120460422FBF737FFFBF71B
:1053E000DBFA9FED310B9FED321B55EC10AB57EC08
:1053F000116B0FF2C40800BF43F6FF70FFF742F9CC
:105400000FFA80F94846FAF7B8FF52462B46FAF7EA
:1054100042FF32463B46FAF73EFF41EC100B024694
:1054200040460B468BED040BCDF8009000F092F84F
:105430000A2000F009FD4FF090401021FCF734FAEB
:105440000028D9D13220FCF74BF94FF090401021C1
:10545000FCF72AFA0028CFD140F20040C4F6000041
:105460004FF48051FCF726FADBF800204FF400617E
:10547000B2FA82F044094FF09040002A18BF01228E
:10548000FCF720FA12A02146CBF8004000F062F8A9
:1054900010A000F0DFFC00BF4FF090401021FCF79F
:1054A00003FA0028F8D0A7E700000000008076404B
:1054B000000000000000103F616E676C653A202517
:1054C000662076616C203A202025642F6E00000053
:1054D00025640A006E6968616F20000010B582B013
:1054E00040F22804C2F20004ADF80600A068A189C9
:1054F0000022ADF80420FCF7E5F940F2DC104FF093
:10550000FF3CC2F200000DF1060101AA0123CDF813
:1055100000C0FDF767F958B10AA000F09BFCA06835
:10552000A1890122FCF7CEF9002002B010BD00BF16
:10553000A068A1890122FCF7C5F9BDF8040002B0FA
:1055400010BD00BF737069315F726561645F657221
:10555000726F72000FB4054B10B503A9044A02988C
:1055600000F0DAF810BC5DF814FB000011530008DD
:105570000000002002E008C8121F08C1002AFAD16A
:1055800070477047002001E001C1121F002AFBD1C3
:10559000704700002DE9FF5F82B00021DDE9043093
:1055A000020DDDF840B0034318D044F61050A2F2CB
:1055B000FF3242431514119801281FD0A5EB0B00B0
:1055C000401C5FEA000A4FF000064E4FDFF83891AA
:1055D000B046504615D5CAF1000413E011980124D5
:1055E0004AA3012801D16FEA0B010298119AC0E980
:1055F0000031C0E9024206B0BDE8F09FCBF10000E7
:10560000DFE704460021404A491842EB0450CDE947
:10561000001012E0E00707D032463B4640464946BC
:10562000FAF739FE8046894632463B46104619460F
:10563000FAF731FE06460F466410002CEAD1DDE988
:105640000401DDE90023BAF1000F06DAFAF723FEC0
:1056500042464B46FAF71FFE05E0FAF7D8FF4246EE
:105660004B46FAF7D4FF04460E460022284BFBF7C0
:1056700055F803D84FF0FF30014607E00022254BD4
:1056800020463146FAF71CFFFBF730F8102409E0FA
:10569000002C0ADB0A220023FAF7BAFD039B303202
:1056A0001A55641E50EA0102F2D1641C039AC4F137
:1056B00011031444119A012A03D0012208430DD189
:1056C0000AE0084304D000204FF0110B119072E75C
:1056D000A3EB0B056D1E0DE05B4504DD4FF00002F2
:1056E00005F1010504E003DA4FF00002A5F1010520
:1056F000002AECD002981199C0E90231C0E90045B6
:1057000079E70000000014400000F03F3000000086
:105710000000F0430000E03F2DE9FF4F95B09B46AD
:105720008946064600250FE2252877D10024274622
:10573000F84A0121059400E0044316F8013F203B9C
:1057400001FA03F01042F7D130782A2811D06FF017
:105750002F033078A0F13002092A16D8059A44F0B8
:10576000020402EB820203EB42021044761C059015
:10577000EFE759F8042B0592002A03DA504244F46B
:105780000054059044F00204761C30782E2816D17F
:1057900016F8010F44F004042A280DD06FF02F02F0
:1057A0003078A0F13003092B09D807EB870302EB0F
:1057B0004303C718761CF3E759F8047B761C30784E
:1057C0006C280FD006DC4C2817D068280DD06A282A
:1057D00014D104E0742810D07A280FD10DE044F4DD
:1057E00000140AE044F4801401E044F44014727898
:1057F000824202D104F58014761C761C307866282B
:105800000BD013DC582877D009DC002875D0452848
:10581000F6D04628F4D047281AD19DE118E0632835
:1058200035D0642879D0652812D195E1702873D0DD
:1058300008DC6728F1D069286FD06E280DD06F285A
:1058400006D1B5E073282CD0752875D0782874D08F
:105850005A46179990476D1C75E1C4F3025002280F
:1058600009D003280DD0D9F8001004280DD00D6000
:1058700009F1040967E1D9F80010EA17C1E90052FB
:10588000F6E7D9F800100D80F2E70D70F0E719F88F
:10589000041B8DF8001000208DF80100EA4601205D
:1058A00003E059F804AB4FF0FF3061074FF00001FF
:1058B00002D40DE008F101018846B9420FDA8045B3
:1058C000F8DB1AF808100029F4D108E008F101010A
:1058D00088468142FADB1AF808100029F6D10598AB
:1058E0005B46A0EB080721463846179A00F094FA69
:1058F000284400EB080507E04DE029E10DE01AF827
:10590000010B5A4617999047B8F10108F7D25B4648
:1059100021463846179A13E142E00A220092C4F366
:1059200002524FF0000A022A08D059F804CB032A89
:105930004FEAEC710AD00DE029E02AE009F10701F5
:1059400021F00702F2E802C1914609E00FFA8CFC4F
:105950004FEAEC71042A03D14FFA8CFC4FEAEC7148
:10596000002907DA0A460021DCF1000C61EB020194
:105970002D2202E0220504D52B228DF804200122DD
:1059800003E0E20701D02022F7E7904659E00A2120
:1059900002E010220DE010214FF0000A00910BE010
:1059A00010224FF0000A44F004040827009203E09C
:1059B00008224FF0000A0092C4F30252022A05D0D6
:1059C00059F804CB0021032A08D009E009F10701A6
:1059D00021F00702F2E802C1914605E01FFA8CFCB3
:1059E000042A01D10CF0FF0C4FF00008220728D543
:1059F000702806D0009B83F0100353EA0A0305D0F9
:105A00000EE040228DF80420012208E05CEA010249
:105A100006D030228DF804208DF805000222904631
:105A2000009B83F0080353EA0A030AD15CEA0102EF
:105A300001D1620705D530228DF804204FF001080E
:105A40007F1E582804D034A003900EA802900DE0C9
:105A500036A0F9E753466046009AFAF7D9FB844628
:105A60000398825C0298401E029002705CEA01007A
:105A7000F0D1029806A9081A00F1200A600702D5A1
:105A800024F4803400E00127574502DDA7EB0A002B
:105A900000E0002000EB0A01009005984144401A04
:105AA0000590E00306D45B462146179A059800F05E
:105AB000B3F90544002706E001A85A46C05D1799CE
:105AC00090476D1C7F1C4745F6DBE0030CD55B4619
:105AD0002146179A059800F09FF9054404E030200C
