:020000040800F2
:1000000098080020ED010008414700080D41000854
:100010003D470008D509000889530008000000008A
:100020000000000000000000000000004947000838
:10003000FD09000800000000454700084D47000882
:10004000070200080702000807020008070200086C
:100050000702000807020008010A0008070200085A
:100060000702000807020008090A0008D909000869
:10007000E5090008F1090008070200080702000866
:10008000070200080000000007020008070200083D
:10009000070200080702000807020008070200081C
:1000A000070200080702000807020008070200080C
:1000B0000702000865470008070200080702000859
:1000C00007020008070200080702000807020008EC
:1000D000070200087D530008070200080702000815
:1000E00007020008070200080702000807020008CC
:1000F00007020008070200080702000800000000CD
:1001000000000000070200080000000007020008CD
:100110000702000800000000714700087D47000842
:10012000070200080702000807020008070200088B
:10013000070200080000000000000000070200089D
:10014000070200080702000800000000000000008D
:10015000000000000000000000000000000000009F
:10016000000000000000000000000000070200087E
:10017000070200080000000000000000000000006E
:10018000000000000702000800000000000000005E
:10019000000000000000000000000000000000005F
:1001A000000000000000000007020008070200082D
:1001B000070200080702000807020008000000000C
:1001C000000000000702000800000000000000001E
:1001D0000702000807020008DFF80CD000F0B8FAA8
:1001E00000480047C553000898080020064880478B
:1001F00006480047FEE7FEE7FEE7FEE7FEE7FEE70C
:10020000FEE7FEE7FEE7FEE751470008D9010008D8
:100210002DE9F05F0546002092469B46884606463B
:10022000814640241BE0284641464746224600F0CE
:10023000DCF853465A46C01A914110D3114618466D
:10024000224600F0C3F82D1A67EB01084F462246FC
:100250000120002100F0BAF817EB00094E41201EE2
:10026000A4F10104DFDC484631462A464346BDE896
:10027000F09FD2B201E000F8012B491EFBD270477B
:100280000022F6E710B513460A4604461946FFF762
:10029000F0FF204610BD2DE9FE4F81EA030404F073
:1002A000004421F0004100944FF0000B23F0004384
:1002B00050EA01045ED052EA03045BD0C3F30A544F
:1002C000C1F30A552C44A4F2F3340194A0FB025468
:1002D000C1F3130141F48011C3F3130343F48013FA
:1002E00001FB024400FB034E840A970A44EA81544E
:1002F00047EA8357A4FB076802958D0A05FB07852B
:100300004FEA932C04FB0C542705029D4FEA065834
:1003100047EA1637B5EB08056EEB070C870E920E11
:1003200047EA811742EA8312A7FB0201B6EB0B01F1
:1003300064EB00042B0D43EA0C335E1844EB1C50B5
:10034000DA465146E7FB0201C5F313044FEA0B33CB
:1003500043EA14534FEA0432019C43EA0603A4F132
:100360000C040294009CCDE900B400F05DF803B0E9
:10037000BDE8F08F00200146F9E700F0004230F0C0
:1003800000400AD0C10D01F56071C0F3160042EAC9
:100390000151C208400711437047002001467047D1
:1003A00030B50B46014600202022012409E021FA45
:1003B00002F59D4205D303FA02F5491B04FA02F542
:1003C0002844151EA2F10102F1DC30BD202A04DB15
:1003D000203A00FA02F1002070479140C2F1200358
:1003E00020FA03F3194390407047202A04DB203A97
:1003F00021FA02F00021704721FA02F3D040C2F145
:100400002002914008431946704710B5141E73F13D
:10041000000408DA401C41F1000192185B411A43C4
:1004200001D120F0010010BD2DE9F04D92469B4610
:1004300011B1B1FA81F202E0B0FA80F220329046B6
:10044000FFF7C4FF04460F4640EA0A0041EA0B01E9
:1004500053465A46084313D0114653EA010019D0B7
:10046000C8F140025046FFF7C0FF05460E46504611
:1004700059464246FFF7AAFF084305D0012004E091
:1004800020463946BDE8F08D0020054346EAE07677
:100490002C4337430A986305E40AA0EB08000022C6
:1004A000FD0A44EA47540A3002D500200146E9E734
:1004B000010510196941DDE9084500196941BDE8E8
:1004C000F04DA2E72DE9FE4F804681EA0300C00F00
:1004D0000C46009021F0004123F00045B8EB0200EB
:1004E000A94105D24046214690461C460B4602468D
:1004F00023F00040104347D0270DC7F30A00C3F391
:100500000A510290401A019040286BDAC3F313009D
:1005100040F4801B0098924620B10023D2EB030ADE
:1005200063EB0B0B01985946C0F140025046FFF7B0
:100530004DFF06460D4650465946019A00F020F9F7
:1005400010EB08006141002487EA115284EAE77346
:100550001A4340D0009A62B3019A012A4FEA075227
:1005600015DC001B61EB02014FF0004202EA07526A
:10057000CDE90042001C41F5801132462B46FFF7C1
:1005800053FF03B0BDE8F08F40462146F9E7001B5A
:1005900061EB0201001C41F5801300185B4120183B
:1005A000A2F5001747EB030140EAD570B6196D417B
:1005B00011E06D084FEA360645EAC0754FEA07526A
:1005C000001B61EB0201001C41F5801149084FEA54
:1005D00030000019514132462B4603B0BDE8F04FC0
:1005E000FFF713BF0098012240000023D0EB020266
:1005F00063EBE073009821464FEAE074B8EB00002B
:1006000061EB0401E9E783F000435BE781F000411F
:1006100058E72DE9F04D81EA030404F0004B21F086
:10062000004514464FF0000A23F0004150EA05024D
:1006300020D054EA01021DD0C5F30A570246C5F383
:100640001303C1F31300C1F30A5640F4801543F4B9
:100650008013A7EB0608101BD64608F2FD3873EB93
:10066000050002D308F1010801E092185B41B8F1DE
:10067000000F03DA00200146BDE8F08D00204FF4A2
:100680008011064684460EE0171B73EB050705D361
:10069000121B63EB050306434CEA010C49084FEAC1
:1006A000300092185B4150EA0107EDD152EA030095
:1006B00012D082EA040083EA0501084305D0101B2A
:1006C000AB4106D20122002306E000224FF0004396
:1006D00002E06FF0010253101AEB06004CEB0851D8
:1006E00010EB0A0041EB0B01BDE8F04DFFF78DBEAA
:1006F000C1F30A52C1F3130140F2FF3341F48011F8
:100700009A4202DA00200146704740F233439A428F
:10071000A2F2334202DC5242FFF767BEFFF756BE39
:1007200030B5041E71F1000404DB4FF00044404278
:1007300064EB0101141E73F1000405DB1C464FF04D
:100740000043524263EB0403994208BF904230BD1C
:100750001CB509480090094801900546009C06E038
:10076000E06840F0010394E8070098471034AC4279
:10077000F6D3FFF735FD00007C5E00089C5E0008A4
:10078000202A06DBCB17203A41FA02F043EAE07355
:1007900006E041FA02F3D040C2F120029140084342
:1007A000194670470146806AC36DC26D13F0500F41
:1007B00008D0D20648BF00F0C9BB406D426B084666
:1007C000104700BF42F40071C16501680B68CA6838
:1007D0001B0703D4910707D500F0B4BB12F4406F98
:1007E000FAD1C9688904F7D4C16D21F48071C1655B
:1007F000C16DC90448BF00F0A5BBC16D41F0010146
:10080000C16500F09FBB0000806AC16D41F04001EE
:10081000C165016E41F00401016600F097BB000064
:10082000806A00F091BB0000B0B5016804468A6898
:100830008868C0074FF0000031D012F0020218BFE4
:10084000B0BD886800F00D0001281FD188684FF600
:10085000C072C7F6FF721040023088600320086043
:1008600001F072F821688968C90704BF0020B0BD93
:10087000054602E08068C00712D001F065F8411B10
:1008800020680329F6D38168C907F3D0E06D40F0F2
:100890001000E065206E40F0010020660120B0BD30
:1008A0000020B0BD70B582B00446002001902168E0
:1008B0008A68D20711D14FF6C076C7F6FF768868EE
:1008C00006F17F0210420BD0E06D40F01000E065B1
:1008D000206E40F001002066012002B070BD00BF14
:1008E0008868304040F00100886040F20830C5F26E
:1008F00000000068000221D401F026F821680A688F
:10090000D20717D1054602E00868C00712D18868EF
:10091000C00704D18868304040F00100886001F0D1
:1009200013F8401B21680328EED30868C007EBD1F9
:10093000CAE700BF002002B070BD00BF40F208004F
:10094000C2F20000006842F663518009C0F23E51D5
:10095000A0FB0101880900EB40000C2101EB8000A5
:10096000019001980028C7D00198013801900198A2
:100970000028C1D001980138019001980028BBD00F
:1009800001980138019001980028B5D001980138EC
:10099000019001980028E7D1AEE7000040F2D8119D
:1009A000C2F2000101604FF0904181604FF40042BB
:1009B00001618161802182814022818340F2004176
:1009C00000238282C4F600018380203001220EC001
:1009D00070470000FEE7000040F2B800C2F20000DD
:1009E00000F024BD40F27810C2F2000000F01EBDFD
:1009F00040F21810C2F2000000F018BD704700006D
:100A0000012000F0B1BE0000102000F0ADBE0000DB
:100A1000EFF3108072B600BFFEE70000B0B582B001
:100A200004460020019094F85800012802D10220C9
:100A300002B0B0BD012084F8580020460D46FFF7F3
:100A4000F3FEE16D10B141F010014BE041F20212F2
:100A500091430231E16521684FF6C073D1F808C0B7
:100A6000C3F6FF7303EA0C0305F080454DF60162FF
:100A70002B44C0F2040203F100438B608B68B3F196
:100A8000FF3F2BDC019B01330193019B93421DD857
:100A90008B68B3F1FF3F21DC019B01330193019B84
:100AA000934213D88B68B3F1FF3F17DC019B0133EE
:100AB0000193019B934209D88B68B3F1FF3F0DDC92
:100AC000019B01330193019B9342D7D9E06D40F024
:100AD000100020F00201012004E000BFE16D0122BE
:100AE00062F30101E165002184F8581002B0B0BD45
:100AF00090F85820012A04BF0220704770B582B0D8
:100B00000022019200920268B2F1A04F30D140F26F
:100B100008324FF6006C4FF60055C5F20002CFF6D2
:100B2000FF7CCFF6FF7552F80C40535923435B0707
:100B30001ED4D1F800E01368BEF1000F23F4604426
:100B400024D04B6890F8386043EA4633234313605F
:100B5000535952F80C603343DB0723D1136840F636
:100B60001F768968B343194341EA0E0119E000BFBB
:100B7000C16D41F02001C1650121002280F858209B
:100B800002B0BDE870400846704700BF146051597C
:100B900052F80C301943C90704D1116840F61F738D
:100BA000994311600021E8E7F0B581B0002200927E
:100BB00090F85820012A03D10221084601B0F0BD67
:100BC0000123076880F85830BB685B0734D4D1E94B
:100BD00000351F26C5F3012407EB8404226B05F0C2
:100BE0001F05AE40C3F38463B243AB401A43226394
:100BF000BA68BB6802F0040203F00803D21840F0A0
:100C0000BC800A6807F114030426C2F34064D1F8DB
:100C100008E006EAD25C53F82440C2F304550722E8
:100C2000AA40BEF1004F24EA02040BD143F80C4065
:100C30001A6842F000430DE0C16D41F02001C1652A
:100C4000012178E10EFA05F2224343F80C201A68DC
:100C500022F000437B61D1E90435FC68042B5FD1AD
:100C60003A6E3A6E0B68C2F3846293FAA3F6C3F34A
:100C7000846C6FF3DF43B6FA86F5002B2C464FF6F3
:100C8000FF7E08BF6446A242C0F2070E0CD13A6E46
:100C900022F000423A660A6802EA0E03C2F3846C4C
:100CA00092FAA2F2B2FA82F57A6E7A6E002BC2F351
:100CB00084622C4608BF6446A2420CD17A6E22F0B0
:100CC00000427A660A6802EA0E03C2F3846C92FA62
:100CD000A2F2B2FA82F5BA6EBA6E002BC2F3846247
:100CE0002C4608BF6446A2420CD1BA6E22F00042E4
:100CF000BA660A6802EA0E03C2F3846C92FAA2F2A0
:100D0000B2FA82F5FA6EFA6E002BC2F3846208BF63
:100D10006546AA4231D1FA6E22F00042FA662CE012
:100D2000062202EA940205FA02FC0E6807F1600549
:100D300055F823404FF20002C0F2FF3206F0F846A9
:100D4000224046EA0C06324342F0004245F8232096
:100D50000A698B6955F8226026F08076334345F89E
:100D600022300A690B7F55F82260012B26F00076AD
:100D700008BF06F1007645F82260BA680D68D20710
:100D800050D1CA68D7F8B0602B466FF3DF4326EA2C
:100D9000030C4FF6FF7602F01804C0F20706E64097
:100DA00000242E40C4F27F0446EA0C06A242C7F893
:100DB000B06037D193B195FAA5F2B2FA82F201325E
:100DC00002F01E03092B02F01F0310D801229A40E3
:100DD00003EB430342EA035315E000BF012202EB99
:100DE000956202F01E030A2B02F01F03EED30122CC
:100DF00000269A4003EB4303CFF6206606EB03532D
:100E00001A4342F00073C3F3406607EB86068A6814
:100E10007569C3F3045307249C40A5439A402A43B1
:100E200072610D680021C8F208010D4200F0828055
:100E300040F2083CC5F2000CDCF800400021CCF286
:100E400021318D4204F0E07E04D01021C9F2C001AE
:100E50008D4241D1B7F1A04F4FF0000108BF14F40B
:100E6000000268D1DCF8001042F6635221F0E07114
:100E700041EA0E0141F40001CCF8001040F20801F3
:100E8000C2F200010968C0F23E528909A1FB0212B8
:100E9000910901EB41010C2202EB810100910099C3
:100EA000002947D00099013900910099002941D0CB
:100EB0000099013900910099E1B30099013900913D
:100EC0000099B9B3009901390091009900294FF0B8
:100ED0000001E7D12FE000BF0021CCF252718D421A
:100EE00010D10021B1EB1E6F0CD1ACF502718F4215
:100EF00020D0DCF8001021F0E07141EA0E0141F051
:100F0000807115E0ACF502718F424FF0000112D0F4
:100F10000022CCF68432954208BF14F480020AD134
:100F2000DCF8001021F0E07141EA0E0141F480018B
:100F3000CCF800100021002280F85820084601B0AB
:100F4000F0BD0000704700007047000070470000CF
:100F5000B0B582B00446002001904CB1E06D58B1AC
:100F600021688868800012D48868C00019D54CE0D8
:100F7000012002B0B0BD00BF204600F009F90020FA
:100F8000206684F85800216888688000ECD588685D
:100F90004FF6C072C5F6FF72104088608868C000C6
:100FA00033D44FF6C0728868C5F6FF7202F18052E2
:100FB000104000F18050886040F20800C2F200004A
:100FC000006842F663528009C0F23E52A0FB020262
:100FD0009009022202EB400001900198A8B100BFE5
:100FE000019801380190019878B101980138019079
:100FF000019850B1019801380190019828B10198E9
:101000000138019001980028EAD18868C00009D40D
:10101000E06D40F01000E065206E40F001002066B9
:10102000012000E000208A68E36D02F0040203F072
:101030001003D218E26D71D122F481720232E2659E
:101040008A68D2071AD140F2083C4FF600534FF697
:101050000062C5F2000CCFF6FF73CFF6FF725CF8AA
:1010600003305CF802201A43D20707D16268DCF82B
:10107000003023F47C131A43CCF8002094F81DE0D0
:10108000E36BD4E902C243EA4E331A4394F82430A6
:1010900042EA0C02012B42EA034207D1D4F828C0ED
:1010A0000023CFF6FE7303EB4C431A43E36A33B1DC
:1010B000D4F830C003F4787343EA0C031A43D1F830
:1010C0000CC044F20703CFF6F07303EA0C031A4393
:1010D000CA600A69636B22F040621A430A618A6837
:1010E000120744D494F83820237F520042EA833C0C
:1010F000CB6844F2020223EA020242EA0C02CA600E
:1011000022690B6982B143F480330B61D1F8C0C00E
:1011100043F6FF732CEA03031A430DE042F010017B
:101120000120E16502B0B0BD23F480320A61D1F83C
:10113000C02043F6FF739A43C1F8C02094F84030B2
:101140000A69012B10D140F2FD7322EA030CD4E9A5
:101150001132D4E913E543EA0C031A4342EA0E02C2
:101160002A4342F0010201E022F001020A616269B1
:101170000B6B012A23F00F0202D1236A013B1A43B1
:101180000A63E16D012262F30101E16502B0B0BDC5
:1011900070B598B004460020CDE9160002A80430CE
:1011A0004021FFF76DF82068B0F1A04F02D018B0D1
:1011B00070BD00BF4FF4004002904FF000501190FE
:1011C00002A800F011FD002818BFFFF721FC41F232
:1011D0004C00C4F202000168002641F40051016095
:1011E000016801F4005101910199016841F0010188
:1011F0000160006813A900F00100019001980F2020
:101200001390032014904FF09040159600F0B8FA18
:1012100040F2B8050820C2F20005C4F20200052120
:101220004FF4807385E8430005F1140080224FF4E9
:10123000806C4FF0200E80E808502846C5E9036214
:101240002E6200F049F9002818BFFFF7E1FB656541
:10125000AC6218B070BD00002DE9F04140F20017FB
:101260000446C5F20007D7F80802236890469B6839
:101270005A0704D40E4694F85810012902D10220CE
:10128000BDE8F08100F01F050120092D84F8580009
:1012900008D8A84040F22121084203D02046FFF799
:1012A00001FB28B1002084F858000120BDE8F0813E
:1012B0002168E06D40F60172904300F58070E065B2
:1012C0000DB1B94203D0E06D20F48010E065E06D0F
:1012D00040F2A573C0044FF0000044BF206E20F020
:1012E00006002066606D40F62107C0F60003C0F6D8
:1012F000000740F609050022C0F60005C0E90B37DB
:101300001C2345630B6084F858204A68434642F02A
:1013100010024A60CA6842F00102CA604031324697
:1013200000F070F921684FF6C0738A68C7F6FF7342
:101330001A4004328A60BDE8F0810000014690F84E
:101340002500022828D180B50868D1E910CE8A6C22
:10135000036823F00E030360136823F480731360A3
:10136000026822F0010202600EF01F00012202FA60
:1013700000F0CCF80400D1E913205060486D30B182
:10138000026822F480720260D1E9160242600020F5
:10139000BDE8804003E000BF0420C86301200122B3
:1013A00081F82520002281F82420704790F825102C
:1013B000022931D180B50168D0E910CE826C0B686A
:1013C00023F00E030B600B6823F001030B60116820
:1013D00021F4807111600EF01F02012101FA02F266
:1013E000CCF80420D0E913325A60426D32B1136850
:1013F00023F480731360D0E91623536080F825101E
:10140000826B002180F824100AB190470021BDE8CA
:1014100080400846704700BF0421C16301210022BB
:1014200080F8251080F8242008467047B0B5D0E930
:1014300010C30268DCF8001003F01F030424D2F884
:1014400000E09C400C4218BF1EF0040522D102248B
:101450009C400C4218BF1EF0020529D1D940090753
:1014600024D51EF0080108BFB0BD116821F00E019F
:101470001160012101FA03F2CCF80420C16380F865
:101480002510416B002280F8242079B1BDE8B040DE
:10149000084700BF1168890603D4116821F00401D0
:1014A0001160CCF80440016B0029EFD1B0BD00BF42
:1014B0001168890606D4116821F00A011160012122
:1014C00080F82510CCF80440C16A0022002980F879
:1014D0002420DBD1EAE7000000284FF0010100F0F2
:1014E0008E802DE9F04740F2000CC4F2020C036834
:1014F0004FF6F8320CF5816ECBF6FD72734538BFAE
:1015000002F580624CF6CD441A44CCF6CC44A2FBE2
:10151000042803F0FC02A2F10802A2FB04290CF546
:1015200080656FF00304D0E90262D0F810A03CBFE0
:101530000025C4F2020504EA9804C0E9105402250B
:1015400080F825501D6847F6F07725EA07073A43EB
:10155000476942EA0A0285693A43C7692A43056A2C
:101560003A432A4332431A600CF50262734538BF8E
:101570000CF50062A3180CF50862C264C9F30412EA
:1015800040F6840C01FA02F2B6F5804FC4F2020C68
:101590008364026506D1002141601960CCF8002007
:1015A0001EE000BF41685FFA81FE013903294FF058
:1015B0000001C3F800E0CCF8002011D8AEF1010220
:1015C0000CEB820747F87C1F02F01F01012202FA90
:1015D00001F30CF1BC023946CCF8C03002E000BF88
:1015E0000022002300F1540C8CE80E00002101229F
:1015F000C16380F8252080F82410BDE8F047084634
:101600007047000090F824C0BCF1010F47D04FF0A4
:10161000010C80F824C090F825C0BCF1010F3BD12B
:101620002DE9F0414FF0020C80F825C04FF0000C7E
:10163000C0F83CC0D0F800C000F14C0E9EE830402D
:10164000DCF80060BEF1000F26F00106CCF8006067
:1016500065601CBFD0E916456560D0E910560127CA
:1016600006F01F06846807FA06F6D0F830806E6030
:10167000CCF804300B46102C04BF13460A46CCF8B5
:101680000830CCF80C20DCF80010B8F1000F09D0BD
:1016900041F00E010EE000BF002180F8241002206E
:1016A000704700BF21F00401CCF80010DCF80010F6
:1016B00041F00A01CCF80010806C0168C90303D521
:1016C000016841F480710160BEF1000F05D0DEF8C1
:1016D000000040F48070CEF80000DCF8000040F01C
:1016E0000100CCF800000020BDE8F081B0B5044650
:1016F00000F02AF9054640F20000C2F200004068FE
:10170000611C18BF044400BF00F01EF9401BA0423A
:10171000FAD3B0BD012811D0102824D140F24801DD
:10172000C2F200010878002818BF704740F26C3000
:101730000122C2F200000A7001F00CBA40F2D4207B
:10174000C2F20000006840F24C410068C2F20001A1
:101750000A6CC0064FF0FF334FF0FF3058BF012333
:101760001A440A640860704740F21441C4F201014F
:101770000A68024214BF08607047FFF7CBBF000041
:101780002DE9F04F82B00D68002D00F0C58000F10A
:101790003847860546EA972741F20046C4F6000618
:1017A000062240F2004EB04208BF0522C4F2010EEC
:1017B000052F38BF3A464FF0000C012400270026C1
:1017C000009209E00D68013635FA06F207F10207CA
:1017D0000CF1040C00F0A08004FA06FB15EA0B08DB
:1017E000F0D0D1F804A003230AF003056A1EBB4021
:1017F000012A6FEA03090FD88268CB6802EA09025E
:10180000BB401A4382604268CAF3001322EA0B020B
:10181000B3401A43426003E0032D01D103251FE0CA
:10182000C2688B6802EA0902BB401A43022DC260FB
:1018300016D16FF0030202EA560202440CF01C05B6
:101840000F23D2F820A003FA05FB0B692AEA0B0A42
:10185000AB4043EA0A031362D1F804A00AF003057F
:10186000026805FA07F302EA09021A431AF4403F34
:101870000260A7D041F26003C4F202031A684FF677
:10188000084A42F001021A601A68CFF6FF7A02F0A5
:1018900001020192019A26F00302724452F80A9062
:1018A0000CF00C050F23009CAB4029EA030304FA5B
:1018B00005F52B4342F80A30DEF808204B6842EA6F
:1018C000080540F20C49DC0258BF22EA0805CEF8B0
:1018D0000850C4F20109D9F800209D0242EA080428
:1018E00058BF22EA0804C9F80040DEF804209D032E
:1018F00042EA080458BF22EA0804CEF80440DEF8A1
:101900000020DB0342EA080458BF22EA0804CEF8AC
:101910000040012456E700BF02B0BDE8F08F000090
:101920000069084018BF012070470000426902EAC0
:101930000103914341EA0341816170471823002A62
:1019400008BF2823C150704740F29440C2F2000003
:101950000068704740F2000040F29441C2F200007B
:10196000C2F2000140680A68104408607047000035
:1019700080B5032000F08AF80F2000F009F8002855
:101980001CBF012080BD00F029F8002080BD0000B0
:1019900070B540F20006C2F200067168E1B104467B
:1019A00040F20800C2F200004FF47A720068B2FB05
:1019B000F1F1B0FBF1F000F051FF0F2C4FF00105F9
:1019C00008D838B94FF0FF3021460022002500F03A
:1019D00031F83460284670BD012070BD82B041F2FC
:1019E0005800C4F20200816841F001018160816801
:1019F00001F0010101910199016841F080510160FC
:101A0000006800F080500090009802B000F0E2B84A
:101A1000002848BF704700F01F01012202FA01F1BF
:101A20001C2202EAD0004EF20012CEF200028150D7
:101A30007047000010B54EF60C5CCEF2000CDCF8DE
:101A40000030C3F3022E8EF00704042C28BF0424B8
:101A5000BEF103034FF0FF3E0EFA04F438BF00233B
:101A6000A14399400EFA03F39A43114300F00F0289
:101A700000F160430901043A03F56443624400281D
:101A800048BF02F10C03197010BD00004EF60C5156
:101A9000CEF200010A684FF6FF031A4060F30A22F3
:101AA00042F0806040F0FD7008607047B0F5007F44
:101AB00042D0002840F0808047F21400C4F20000B9
:101AC00050F8141CC26E01F4C06122F48072B1F5AA
:101AD000806FC2662ED150F8141C012262F34A2195
:101AE00040F8141C40F20801C2F2000109683222D9
:101AF00051434DF68362C4F21B32A1FB0212910CDA
:101B00000268520511D54A1C0FD0026852050CD547
:101B100059B10268520508D5012906D0026852055C
:101B200003D50229A1F10401EAD10068400544BFB0
:101B3000032070470020704747F21400C4F20000F1
:101B400050F8141CC26E01F4C06142F48072B1F509
:101B5000806FC266EED150F8141C012262F34A2154
:101B600040F8141C40F20801C2F200010968322258
:101B700051434DF68362C4F21B32A1FB0212910C59
:101B80000268520511D54A1C0FD0026852050CD5C7
:101B900059B10268520508D5012906D002685205DC
:101BA00003D50229A1F10401EAD10068400544BF30
:101BB00003207047BEE700BF47F21400C4F20000E4
:101BC00050F8141C022262F34A2140F8141C002031
:101BD0007047000047F20800C4F20000016841F4B9
:101BE00080410160704700002DE9F04182B0044659
:101BF000807841F288060007C4F2020602D4002071
:101C00002FE000BF56F8300C5FEAC0080BD456F83E
:101C1000300C40F0805046F8300C56F8300C00F094
:101C200080500190019847F20007C4F2000738681D
:101C300040F480703860FFF787FE05463868C005BD
:101C400000F1D680FFF780FE401B0228F6D9032062
:101C5000B8F1000F05D456F8301C21F0805146F839
:101C6000301C2168CA0713D18A0719D44A071FD428
:101C70000A0725D48A062BD44A0631D40A0637D45B
:101C8000CA053DD48A0543D44A0549D457E000BF6C
:101C90003268636822F003021A4332608A07E5D58E
:101CA0003268A36822F00C021A4332604A07DFD57B
:101CB0003268E36822F030021A4332600A07D9D54D
:101CC0003268236922F0C0021A4332608A06D3D5F3
:101CD0003268636922F440621A4332604A06CDD505
:101CE0003268A36922F440521A4332600A06C7D50B
:101CF0003268E36922F440421A433260CA05C1D512
:101D00003268236A22F440321A4332608A05BBD516
:101D10003268636A22F440221A4332604A050ED5C3
:101D20003268A36A22F440121A43B3F5801F32606E
:101D300005D156F87C2C42F4801246F87C2C0A051A
:101D40000ED53268E36A22F440021A43B3F5800FDD
:101D5000326005D156F87C2C42F4801246F87C2C77
:101D6000CA040ED53268236B22F040721A43B3F1D5
:101D7000807F326005D156F87C2C42F4801246F800
:101D80007C2C8A040ED53268636B22F040621A43C1
:101D9000B3F1006F326005D156F87C2C42F480120A
:101DA00046F87C2C4A040ED53268A36B22F04062C0
:101DB0001A43B3F1006F326005D156F87C2C42F41F
:101DC000801246F87C2C09040ED53168E26B21F0B4
:101DD00040511143B2F1805F316005D156F87C1C4F
:101DE00041F4803146F87C1C02B0BDE8F08100BFB0
:101DF000B06810F4407010D0216C88420BD0B068ED
:101E0000B16820F4407041F48031B160B16821F4D0
:101E10008031B160B060C0070CD1B068216C20F493
:101E200040700843B0600020B8F1000F3FF519AFD3
:101E300011E700BFFFF788FD054641F2883700BF74
:101E4000B0688007E9D4FFF77FFD401BB842F7D99F
:101E5000FDE600002DE9F047002865D042F2000AB7
:101E6000C4F2020A0446DAF800000D4600F00F0042
:101E700088420CD2DAF8000020F00F002843CAF89C
:101E80000000DAF8000000F00F00A8424CD12168F1
:101E900041F20808C807C4F2020803D1880740F1DC
:101EA000D480B9E0606802283AD0032840D158F8BD
:101EB000082C920138D5D8F80420D8F8043042F222
:101EC0000046C3F3031302F00302D8F80470013391
:101ED000C0F2F406032A04BF41F20026C0F27A06DB
:101EE000B6FBF3F2D8F80430C7F306277A43C3F3FE
:101EF0004163022707EB4303B2FBF3F24BF20043CB
:101F0000C0F2C4439A425DD9D8F8002012F0F00F15
:101F10004DD0890756D5A168002953D147E000BFAD
:101F200058F8081C890307D40120BDE8F08700BFDA
:101F300058F8081C4905F7D5D8F8001001F00C0135
:101F400004293FD0D8F8001001F00C01082939D03D
:101F5000D8F8001001F00C010C2933D1D8F8041086
:101F6000D8F8042042F20047C2F3031201F0030143
:101F7000D8F804300132C0F2F407032904BF41F25B
:101F80000027C0F27A07B7FBF2F1D8F80420C3F3B8
:101F900006235943C2F34162022303EB4202B1FB21
:101FA000F2F14BF20042C0F2C44291420AD9D8F891
:101FB0000010082262F307114FF00109C8F8001061
:101FC00002E000BF4FF00009D8F8001021F0030133
:101FD0000843C8F80000FFF7B7FC064641F288370F
:101FE000D8F80000616800F00C00B0EB810F07D05A
:101FF000FFF7AAFC801BB842F2D90320BDE8F087A6
:102000002168880708D4B9F1000F1ED0D8F8000065
:1020100020F0F00017E000BF480705D5D8F8000011
:1020200040F4E060C8F80000080706D5D8F80000C2
:10203000072262F30D20C8F80000D8F80000A2685B
:1020400020F0F0001043C8F80000DAF8000000F0BB
:102050000F00A8421BD9DAF8000020F00F00284337
:10206000CAF80000FFF770FC064641F2883700BF4F
:10207000DAF8000000F00F00A84207D0FFF764FC78
:10208000801BB842F4D90320BDE8F08721684807D7
:1020900007D5D8F80000E26820F4E0601043C8F8E3
:1020A0000000080708D5D8F80000216920F4605026
:1020B00040EAC100C8F80000D8F8000042F2004130
:1020C000C0F2F40100F00C00042808462DD0D8F826
:1020D000000000F00C00082841F20020C0F27A0055
:1020E00023D0D8F8002002F00C020C2A1CD1D8F81A
:1020F0000420D8F8043002F00302C3F30313D8F825
:1021000004700133032A08BF0146B1FBF3F0D8F88D
:102110000410C7F30627C1F341610222784302EBA2
:102120004101B0FBF1F000E00020D8F8001045F6C6
:102130002C62C1F30311C0F60002515C40F20802A8
:1021400001F01F0120FA01F140F20000C2F200008C
:102150000068C2F200021160BDE8F047FFF718BC4A
:1021600040F2080041F20801C2F20000C4F202018C
:102170000068096845F63C62C1F30221C0F600021E
:10218000515C01F01F01C8407047000040F2080098
:1021900041F20801C2F20000C4F2020100680968BD
:1021A00045F63C62C1F3C221C0F60002515C01F069
:1021B0001F01C8407047000041F20C01C4F2020147
:1021C00051F8040C42F20042C0F2F40200F00C009C
:1021D0000428104608BF704751F8040C00F00C00AA
:1021E000082841F20020C0F27A0025D051F8043CC2
:1021F00003F00C030C2B1CBF0020704780B5D1F8F6
:1022000000C00B680CF0030CC3F3031E0B680EF147
:10221000010EBCF1030F08BF02460968B2FBFEF0D5
:10222000C3F30623C1F341610222584302EB41018B
:10223000B0FBF1F0BDE8804070470000002804BF0B
:10224000012070472DE9F04182B00446007841F248
:102250000006C007C4F202061ED1207880073DD4D4
:102260002078000764D42078400700F18780207828
:10227000800600F1D980E569002D00F04482B06845
:1022800000F00C000C2840F03181012D40F09081CD
:10229000012002B0BDE8F081B06800F00C01F068E8
:1022A000082961D0032281F00C0122EA00000844D1
:1022B000B0FA80F0400957D16068B0F5803F07D090
:1022C000B0F5A02F40F0E480306840F4802030600A
:1022D000306840F480303060E5E000BFB068F168FD
:1022E00000F00C00042871D001F0030180F00C0014
:1022F00081F002010844B0FA80F0400966D1E1683B
:102300003068002900F0E08040F480703060FFF712
:102310001BFB05463068400500F10A81FFF714FBFE
:10232000401B0228F6D9032002B0BDE8F08100BFAF
:102330006169D6F89400002900F0948040F0010013
:10234000C6F89400FFF700FB054600BFD6F89400DE
:1023500080073FF588AFFFF7F7FA401B0228F5D951
:10236000032002B0BDE8F081306880037FF575AFCF
:10237000606800287FF471AF3EE000BFB06D5FEA97
:10238000C00808D4B06D40F08050B065B06D00F06A
:1023900080500190019847F20007C4F200073868A6
:1023A000C0052DD4386840F480703860FFF7CCFA4F
:1023B000054600BF3868C00522D4FFF7C5FA401BA8
:1023C0000228F7D9032002B0BDE8F081306840054B
:1023D00001D5E06880B17068216920F0FE4040EAD4
:1023E0000160706040F20000C2F200000068FFF778
:1023F000CFFA00283FF434AF012002B0BDE8F081ED
:10240000A068012808D0052840F0B080D6F89000D8
:1024100040F00400C6F89000D6F8900040F00100AB
:10242000C6F89000B0E000BFA169D6F89800002976
:1024300000F0868040F00100C6F89800FFF784FAAB
:10244000054600BFD6F8980080073FF514AFFFF7A8
:102450007BFA401B02284FF00300F3D902B0BDE81D
:10246000F08100BF20F00100C6F89400FFF76CFA7D
:10247000054600BFD6F8940080077FF5F4AEFFF75D
:1024800063FA401B0228F5D9032002B0BDE8F081B1
:102490003168002821F480313160316821F48021D5
:1024A000316000F0BF80FFF74FFA054630688003C7
:1024B0003FF5D3AEFFF748FA401B6428F6D9032056
:1024C00002B0BDE8F08100BF20F480703060FFF7FB
:1024D0003BFA0546306840057FF5C2AEFFF734FA97
:1024E000401B02284FF00300F4D9B7E7306820F012
:1024F00080703060FFF728FA022D05460CD100BF2E
:102500003068800140F1BA80FFF71EFA401B0228B4
:102510004FF00300F4D9A1E73068800140F1EC806E
:10252000FFF712FA401B02284FF00300F4D995E799
:102530007068216920F0FE4040EA016070608FE61B
:1025400020F00100C6F89800FFF7FEF9054600BF2D
:10255000D6F8980080077FF58EAEFFF7F5F9401B9F
:1025600002284FF00300F3D978E700BFD6F89010A7
:10257000002821F00101C6F89010D6F8901021F043
:102580000401C6F890105DD0FFF7DEF9054641F270
:10259000883700BFD6F89000800765D4FFF7D4F9DC
:1025A000401BB842F6D9032002B0BDE8F08100BF5D
:1025B000F068216A00F003028A427FF41DAF626A6C
:1025C0006FF00F0300F0F00103EB021291427FF471
:1025D00013AFA16A00F4FE42B2EB012F7FF40CAFFF
:1025E000E16A00F07842B2EBC16F7FF405AF226B75
:1025F0000023CFF6E07303EA025200F4C001A2F513
:10260000001291427FF4F8AE616B4FF07E4202EA15
:10261000016100F0C06001F17E4188427FF4ECAEC0
:1026200071E000BFFFF790F9054600BF30688003F6
:102630007FF513AEFFF788F9401B64284FF00300C5
:10264000F4D90BE7FFF780F9054641F2883700BF60
:10265000D6F89000800707D5FFF776F9401BB842FF
:102660004FF00300F4D9F9E6B8F1000F3FF5FFADE4
:10267000B06D20F08050B065F9E500BFF06848F219
:102680000C01C0F29F1104F1200700EA010C8ECF6B
:102690006FF00F00D4E90C5400EB02100022CFF6CB
:1026A000E07241EA0C0102EA05520843A2F5001269
:1026B0004FF07E4540EA032005EA0465104305F12A
:1026C0007E4540EAC7602843F060306840F0807083
:1026D0003060F06840F08070F060FFF735F9044634
:1026E000306880010FD4FFF72FF9001B02284FF04C
:1026F0000300F5D9B2E600BFF0684FF6FC71CFF6E3
:10270000EE610840F060002002B0BDE8F0810000FA
:10271000002804BF01207047B0B50446406A28B1C4
:102720000020206104F1140006E000BF6068B0F5ED
:10273000827F03D004F11C00002101600025A56206
:1027400094F85D0020B9204684F85C5000F052F8FF
:10275000022084F85D002068D4F80CE00268BEF521
:10276000E06F22F0400202604EF4006298BF012543
:10277000B2F5706F1CBF0023A3624FEA053CD4E999
:102780000135D4E9042103F4827305F404452B4494
:1027900002F002021A44A36901F00101E569114443
:1027A00003F40072114405F03802256A114405F063
:1027B0008002A56A114405F400521143016004210E
:1027C000626A0EF4706501EA1341636B45EA0C0519
:1027D00002F01002294303F008031143194341603A
:1027E000C16921F40061C16100200121206684F8E3
:1027F0005D10B0BD006843F20001C4F201018842DF
:1028000018BF704780B586B041F24C00C4F2020098
:10281000416941F480514161416901F48051019164
:102820000199016841F002010160006801A900F00E
:1028300002000190019838200190022002900020AF
:10284000CDE903000520059040F20040C4F60000E9
:10285000FEF796FF06B0BDE880407047411E00209D
:10286000B0EB116F1CBF012070474EF21002CEF288
:10287000000251604EF62351CEF20001F0230B709E
:10288000072190601160704770470000704700009A
:102890007047000090F83C20012A04BF02207047D6
:1028A000B0B5D1E90232D1E900CE22F47C5223F452
:1028B000705343EA020448F2FF73CEF6F0730EEA57
:1028C0000302224303F5006404EA0C0442EA040C08
:1028D0000C6903F5C05222404C6942EA0C022243C3
:1028E00003F5605422400C6B03F5F04323401A4378
:1028F0008B6940F2000CCC69CEF6FF7C0CEA0343F6
:102900001443D0F800C043F20042C4F201029445DF
:1029100043EA040305D042F60042C4F201029445A2
:1029200016D14FF6FF72CDF60F421A40D1E9083E9C
:10293000D1E90A410025CDF6F04505EA04542243C9
:1029400023F008531A432EF000531A4342EA0103BE
:102950000021CCF8443080F83C10BDE8B040084677
:10296000704700007047000070470000704700008B
:1029700090F83C20012A4FF002024AD070B580F84E
:102980003D20026843F2004C54689368C4F2010C85
:1029900042F6004E6245C4F2010E01D0724503D1E9
:1029A0004D6824F470042C434FF68F75CFF6FF5515
:1029B0000E682C4042F6FF35C4F201053443AA42AA
:1029C00054600FDCB2F1804F16D040F20046C4F2E2
:1029D0000006B24210D040F60006C4F20006B24231
:1029E0000AD00EE0724507D044F20006C4F2010698
:1029F000B24201D0624504D1896823F080031943B3
:102A000091600121002280F83D1080F83C20BDE853
:102A1000704010467047000070470000002804BF57
:102A20000120704710B5044690F83D0028B90020F9
:102A300084F83C00204600F023F8022084F83D0092
:102A40002068211D01F0A0FE012084F8480084F8D0
:102A50003E0084F83F0084F8400084F8410084F888
:102A6000420084F8430084F8440084F8450084F868
:102A7000460084F8470084F83D00002010BD0000A7
:102A800080B582B0006841F2FF31C4F20001884293
:102A900020DCB0F1804F35D041F20001C4F20001DA
:102AA00088423CD141F25800C4F202000168002281
:102AB00041F0100101600068002100F01000019059
:102AC00001983620FEF7B6FF362002B0BDE8804000
:102AD000FEF79EBF41F20041C4F20001884221D0BE
:102AE00042F60041C4F20101884218D141F2580077
:102AF000C4F20200816841F400618160806800F4E2
:102B000000600AE041F25800C4F20200016841F09E
:102B100001010160006800F001000190019802B01D
:102B200080BD00BF41F25800C4F2020001680022DB
:102B300041F0200101600068002100F020000190B8
:102B400001983720FEF776FF372002B0BDE88040BD
:102B5000FEF75EBF90F83D1001291DD1022180F8DB
:102B60003D10016842F6FF32C868C4F2010291428A
:102B700040F00100C86011DCB1F1804F20D040F27C
:102B80000040C4F2000081421AD040F60000C4F2B6
:102B90000000814214D020E00120704742F600403E
:102BA000C4F2010081420BD044F20000C4F20100E3
:102BB000814205D043F20040C4F2010081420CD1B1
:102BC00088680722C0F201020240062A4FF0000086
:102BD000E3D0B2F5803F08BF7047086840F00100BD
:102BE00008600020704700000146006841F21113A0
:102BF000C26822F00102C260026A1A4204D00122B5
:102C0000002081F83D207047026A44F244431A4292
:102C1000F5D1026822F0010202600122002081F851
:102C20003D20704790F83C20012A4FF0020200F04E
:102C3000AC8080B580F83D20D0F800C08822DCF858
:102C40000830CFF6CE721A40CCF808200B686F2BF4
:102C500010DD1F22C0F21002934237DCB3F5005F93
:102C600046DA702B00F09480B3F5805F00F084802A
:102C7000D8E000BF2F2B35DD4F2B3FDC302B6FD042
:102C8000402B40F0CF80D1F804E0C968DCF8203058
:102C9000DCF8202022F00102CCF82020DCF81820FB
:102CA00022F0F00242EA011123F00A0242EA0E0287
:102CB000CCF81810CCF82020DCF808104FF68872F9
:102CC000CFF6CF721140473154E000BF3F21C0F230
:102CD00010018B423ADC2021C0F210018B423FD020
:102CE000302139E0E3B3102B3AD0202B38D099E0D3
:102CF00062D0B3F1101F33D094E000BF502B6FD0DF
:102D0000602B40F08F80D1F804E0C968DCF82030F7
:102D1000DCF8202022F01002CCF82020DCF818206B
:102D200022F4704242EA013123F0A00242EA0E127C
:102D3000CCF81810CCF82020DCF808104FF6887278
:102D4000CFF6CF721140673114E000BF4021C0F2CE
:102D500010018B4204D07021C0F210018B4261D16E
:102D6000DCF808104FF68872CFF6CF721140194385
:102D700041F00701CCF808100022012180F83D1035
:102D8000002180F83C10BDE880401046704700BF2D
:102D9000D1E901E3C968DCF8082043EA0E0322F414
:102DA0007F4243EA01211143CCF80810DCF80810F7
:102DB00041F07701DEE700BFD1E901E3C968DCF843
:102DC000082043EA0E0322F47F4243EA0121114323
:102DD000CCF80810DCF8081041F48041CAE700BFC5
:102DE000D1F804E0C968DCF82030DCF8202022F0BB
:102DF0000102CCF82020DCF8182022F0F00242EA90
:102E0000011123F00A0242EA0E02CCF81810CCF8A5
:102E10002020DCF808104FF68872CFF6CF721140F0
:102E20005731A7E70122A8E7002804BF0120704717
:102E30002DE9F047044690F83D000D4628B90020E2
:102E400084F83C00204600F04BF8022084F83D0056
:102E500020684BF6F8728168CFF6FE7211408160EF
:102E6000211D01F091FC20684FF6FF78816882698E
:102E7000D0F820C0D5E9003ED5E9026A43EA01094D
:102E8000AB6922EA080246EA03234FF6FC46B34345
:102E9000D5E9076742EA0A0229691A4342EA06228B
:102EA00042EA01112CF0AA026B6942EA0E0241EAE1
:102EB000073142EA0312C0F80890816102620120E2
:102EC00084F8480084F83E0084F83F0084F8440009
:102ED00084F8450084F83D000020BDE8F08700003C
:102EE000006840F20041C4F20001884218BF7047F8
:102EF00080B586B041F24C00C4F20200C16841F0D6
:102F00000201C160C16801F00201019101990168EB
:102F100041F0010101600068002100F00100019012
:102F20000198C020019002200290CDE90311059084
:102F300001A94FF09040FEF723FC1D200021002244
:102F4000FEF778FD1D20FEF763FD06B0BDE880406A
:102F50007047000080B590F83E2090F83F3090F820
:102F600044E090F845C004290AD0B9B9012A4FF0CD
:102F7000010208BFBEF1010F34D0104680BD00BF72
:102F8000012B4FF0010208BFBCF1010FF5D1022166
:102F900080F83F1080F8451000681EE0012A4FF0CD
:102FA000010208BF012BE8D1BEF1010FE5D1BCF150
:102FB000010FE2D1022280F83E2080F83F2080F805
:102FC000442080F8452091B10068016A21F0010198
:102FD0000162016A41F00101016210216FF01002EB
:102FE00009E000BF022180F83E1080F8441000681C
:102FF00001216FF00102036A1A400262026A114362
:1030000001620168002241F001010160104680BDAB
:1030100070470000F0B581B004460068C5680669D5
:10302000B10717D515F0020114D06FF0020101614C
:10303000012121778069800704D02046FFF7E8FF4F
:1030400006E000BF204600F0B9FA204600F0ECFA96
:1030500000202077700719D515F0040016D02068DD
:103060006FF00401016102212177806910F4407F33
:1030700004D02046FFF7CCFF06E000BF204600F05A
:103080009DFA204600F0D0FA00202077300717D5AF
:1030900015F0080014D020686FF0080101610421C8
:1030A0002177C069800703D02046FFF7B1FF05E014
:1030B000204600F083FA204600F0B6FA0020207780
:1030C000F00619D515F0100016D020686FF0100129
:1030D000016108212177C06910F4407F04D02046A7
:1030E000FFF796FF06E000BF204600F067FA204693
:1030F00000F09AFA00202077F00718BF15F00100C1
:1031000006D020686FF001010161204600F08EFAC0
:1031100016F4025F05F0800718BF002F02D1F005FA
:1031200009D410E020686FF4025101612046FFF7D6
:10313000ADFBF00507D537B120686FF480710161F0
:103140002046FFF7A1FB700609D515F0400006D018
:1031500020686FF040010161204600F0DFFAB00600
:1031600009D515F0200006D020686FF0200101611C
:103170002046FFF78DFBF00209D515F4801006D02C
:1031800020686FF4801101612046FFF7EDFBB0026B
:1031900009D515F4001006D020686FF40011016104
:1031A0002046FFF7DFFB700209D515F4800006D03A
:1031B00020686FF4800101612046FFF7D7FB3002E1
:1031C0000CD515F4000009D021686FF400022046E8
:1031D0000A6101B0BDE8F040FFF71EBC01B0F0BDD0
:1031E000006842F60041C4F20101884218BF7047EE
:1031F0002DE9F04186B041F24C00C4F202000168B2
:1032000040F2004441F0020101600168C4F600048C
:1032100001F0020101910199016801AD41F0010144
:1032200001600068022600F00100019001984FF44F
:10323000C040019000274FF006082046294602961C
:10324000CDE90376CDF81480FEF79AFA4FF40040EA
:1032500001A9C1C104200590204629460496FEF725
:103260008FFA4FF4E06001A9C1C14FF090402946A8
:10327000CDE90468FEF784FA06B0BDE8F041704776
:1032800090F83C30012B04BF022070474FEAB20295
:10329000052A00F25381F0B5DFE812F0060046007F
:1032A0008E00D6001E0156010268146A136AA2F14C
:1032B000804523F001031362A5F596359605536802
:1032C000D2F818C046EA95258E68D1F800E024F0BF
:1032D0000204072D44EA06040AD80126AE4016F07F
:1032E000E50F1FBFCE6824F00C0426F0040634431B
:1032F000072D0BD8012606FA05F515F0E50F1FBFBF
:10330000D1E9055623F440732B4333434FF68C75B4
:10331000CFF6FE750CEA050646EA0E065360966186
:1033200049685163146241E1026843F20045146A3E
:10333000136AC4F2010523F0100313625368D2F834
:1033400018C0AA428D68D1F800E024F0200444EAB5
:10335000051405D042F60045C4F20105AA4207D182
:10336000CD686FF0400624F0C00406EA05152C4332
:10337000A2F18045A5F59635960546EA9525072DD7
:103380000CD8012606FA05F515F0E50F1FBFD1E9A7
:10339000055623F44063354343EA850348F6FF4569
:1033A000CFF6FF650CEA050646EA0E2653609661E5
:1033B000496891631462F9E0026843F20045146AB7
:1033C000136AC4F2010523F4807313625368D2F8C0
:1033D0001CC0AA428D68D1F800E024F4007444EACD
:1033E000052405D042F60045C4F20105AA4207D1E2
:1033F000CD6840F2FF462D0224F44064B5432C43CF
:10340000A2F18045A5F59635960546EA9525072D46
:103410000CD8012606FA05F515F0E50F1FBFD1E916
:10342000055623F44053354343EA05134FF68C7594
:10343000CFF6FE750CEA050646EA0E065360D66125
:103440004968D1631462B1E0026843F20045146A2E
:10345000136AC4F2010523F4805313625368D2F84F
:103460001CC0AA428D68D1F800E024F4005444EA5C
:10347000053405D042F60045C4F20105AA4207D141
:10348000CD6844F6FF762D0324F44044B5432C4325
:10349000A2F18045A5F59635960546EA9525072DB6
:1034A0000CD8012606FA05F515F0E50F1FBFD1E986
:1034B000055623F44043354343EA851348F6FF4558
:1034C000CFF6FF650CEA050646EA0E265360D66184
:1034D00049681164146269E00268D2F820C0136A76
:1034E000A2F1804623F480331362A6F59636970541
:1034F0005368146D0D68D1F808E047EA9626072E48
:103500000AD8012707FA06F616F0E50F1EBF4E6926
:1035100023F4803343EA06234FF68C76CFF6FE760B
:103520000336344044EA0506536016652CF4003730
:10353000496847EA0E43916437E000BF0121002249
:1035400080F83C20084670470268D2F820C0136A11
:10355000A2F1804623F480131362A6F596369705F0
:103560005368156D0C68D1F808E047EA9626072ED7
:103570000AD8012707FA06F616F0E50F1EBF4E69B6
:1035800023F4802343EA862348F6FF46CFF6FF66FE
:1035900006F54076354045EA0426536016654968CD
:1035A0002CF4001747EA0E53D16413620021BDE8E2
:1035B000F040002280F83C20084670477047000029
:1035C000002804BF0120704710B5044690F83D0064
:1035D00028B9002084F83C00204600F023F802209F
:1035E00084F83D002068211D01F0CEF8012084F808
:1035F000480084F83E0084F83F0084F8400084F8D6
:10360000410084F8420084F8430084F8440084F8C0
:10361000450084F8460084F8470084F83D00002007
:1036200010BD00007047000070470000B0B5016891
:1036300041F20002C4F2000291421DD041F2004268
:10364000C4F20002914218BFB0BDFFF7CDFA4FF0AF
:1036500090400121FEF764F938B940F20040C4F609
:1036600000004FF48051FEF761F940F24800C2F2C9
:10367000000000210170B0BD40F22440C4F20000FF
:10368000D0F800E040F2D420C2F20000006842F21C
:10369000107C006844F63825C0F3001140F24C401D
:1036A000C2F200008389426801751CFB03E1541AD1
:1036B000AC42816002DD012107E000BF8C1A44F6B4
:1036C0003925AC4206DB4FF6FF71194481811CFBA2
:1036D00001E181608A1A00EE102A9FED0C1AB8EE03
:1036E000C00A80EE010A9FED0A1A416020EE010A2D
:1036F00080ED040A10EE100AFCF73FFE024605A01A
:103700000B46BDE8B04001F041BE00BF0000C84319
:1037100000007A44252E32660D0A00007047000032
:1037200090F88410012904BF022070472421C0F8BA
:10373000881002681168136823F00103136021F0F8
:1037400000530021416613602022C0F8882080F8D1
:103750008410084670470000704700007047000062
:1037600090F88420012A04BF02207047B0B52422BB
:10377000C0F888200268D0F864E0D2F800C013686E
:10378000BEF1000F23F001031360936823F0606320
:1037900041EA0301916019D09368916845F66C6E17
:1037A000490FC0F6000E45F674651EF80140C0F6DC
:1037B0000005695CC3F34263E400B4FBF1F11EF859
:1037C0000340EB5CE500B5FBF3F301E001210123CD
:1037D000A0F86A102021A0F86830C2F800C0C0F834
:1037E0008810002180F88410BDE8B040084670477A
:1037F00090F88420012A04BF02207047B0B524222B
:10380000C0F888200268D0F864E0D2F800C01368DD
:10381000BEF1000F23F001031360936823F06043AF
:1038200041EA0301916019D09368916845F66C6E86
:10383000490FC0F6000E45F674651EF80140C0F64B
:103840000005695CC3F34263E400B4FBF1F11EF8C8
:103850000340EB5CE500B5FBF3F301E0012101233C
:10386000A0F86A102021A0F86830C2F800C0C0F8A3
:103870008810002180F88410BDE8B04008467047E9
:1038800070470000704700007047000070B5016885
:1038900040F62F03CA69044608688E681340202B3F
:1038A0000CD100F0200306F080555B1917D0616F32
:1038B00069B32046BDE87040084700BF40F60F03DB
:1038C0001A420CD00123C1F2000306EA030C40F2B5
:1038D0002013C0F20043034013EB0C0328D1E36E26
:1038E000D50615D5012B13D110F0100310D01020E0
:1038F00008628868400627D4B4F85C00B4F85E100B
:10390000B4F85E20002A18BF884240F03F8270BDA4
:10391000D30240F1D58016F4800300F0D1804FF43B
:10392000801220460A62BDE87040FFF7ABBF00BFBF
:10393000D30718BF10F4807340F00C81930706F092
:10394000010E00F113811CE1D4F880000068416889
:103950008AB2002ADBD0B4F85C309A42D7D2A4F8FD
:103960005E100068800600F19E80206850E8000F1D
:10397000216820F4807041E80002DAB1206850E844
:10398000000F216820F4807041E8000292B12068A5
:1039900050E8000F216820F4807041E800024AB12D
:1039A000206850E8000F216820F4807041E8000290
:1039B000002ADAD1206850E8020F216820F00100C7
:1039C00041E80202BAB3206850E8020F216820F0F3
:1039D000010041E8020272B3206850E8020F21683A
:1039E00020F0010041E802022AB3206850E8020FEB
:1039F000216820F0010041E80202002ADAD11AE031
:103A0000206850E8020F216820F0400041E80202DF
:103A1000DAB1206850E8020F216820F0400041E848
:103A2000020292B1206850E8020F216820F04000A5
:103A300041E802024AB1206850E8020F216820F0F4
:103A4000400041E80202002ADAD12020C4F88C00AC
:103A50000020E066206850E8000F216820F0100088
:103A600041E80002DAB1206850E8000F216820F038
:103A7000100041E8000292B1206850E8000F216870
:103A800020F0100041E800024AB1206850E8000F21
:103A9000216820F0100041E80002002ADAD1D4F8B1
:103AA0008000FDF74BFC02202067B4F85C00B4F8FE
:103AB0005E10401A81B22046BDE87040FFF74CBE50
:103AC000110606D500F0800106F40003C91840F085
:103AD000DF81510632D510F040012FD0206850E828
:103AE000000F216820F0400041E80002DAB12068B0
:103AF00050E8000F216820F0400041E8000292B138
:103B0000206850E8000F216820F0400041E80002E2
:103B10004AB1206850E8000F216820F0400041E8D9
:103B20000002002ADAD120200021C4F888002046B3
:103B3000A167BDE8704000F0E5BA00BF110240F196
:103B4000B38110F0804100F0AF812046BDE87040A5
:103B5000FFF796BE01230B62D4F8903043F00103C7
:103B6000C4F89030930706F0010E0AD5BEF1000F9D
:103B700007D002230B62D4F8903043F00403C4F85A
:103B8000903053070AD5BEF1000F07D004230B6213
:103B9000D4F8903043F00203C4F8903013070CD5EA
:103BA00000F0200353EA0C0307D008230B62D4F87B
:103BB000903043F00803C4F8903013050BD510F093
:103BC000806308D04FF400630B62D4F8903043F068
:103BD0002003C4F89030D4F89030002B3FF497AE17
:103BE00092060AD500F0200006F08052801804D01A
:103BF000626F12B1204690472168D4F8900089681E
:103C000000F0280001F04001401807D12046FFF7DE
:103C10003BFE0020C4F8900070BD00BF206850E853
:103C2000000F216820F4907041E80002DAB12068AA
:103C300050E8000F216820F4907041E8000292B132
:103C4000206850E8000F216820F4907041E80002DD
:103C50004AB1206850E8000F216820F4907041E8D4
:103C60000002002ADAD14FF6FE70CEF6FF7000BFD8
:103C7000216851E8021F2268014042E80213C3B1E3
:103C8000216851E8021F2268014042E8021383B113
:103C9000216851E8021F2268014042E8021343B143
:103CA000216851E8021F2268014042E80213002BFC
:103CB000DED1E06E012824D1206850E8000F216891
:103CC00020F0100041E80002DAB1206850E8000F4F
:103CD000216820F0100041E8000292B1206850E80D
:103CE000000F216820F0100041E800024AB120686E
:103CF00050E8000F216820F0100041E80002002A7F
:103D0000DAD12020C4F88C000020E06621686067CA
:103D10008868400640F1C280206850E8020F2168A0
:103D200020F0400041E80202DAB1206850E8020FBA
:103D3000216820F0400041E8020292B1206850E87A
:103D4000020F216820F0400041E802024AB12068D9
:103D500050E8020F216820F0400041E80202002AEA
:103D6000DAD1D4F88000002800F0988044F60931B8
:103D7000C0F600018163FDF719FB00283FF4C7ADD1
:103D8000D4F88000816BBDE870400847401A00BF3E
:103D9000216851E8001F226821F4907142E8001365
:103DA000DBB1216851E8001F226821F4907142E8DC
:103DB000001393B1216851E8001F226821F490712B
:103DC00042E800134BB1216851E8001F226821F43A
:103DD000907142E80013002BDAD14FF6FE71CEF657
:103DE000FF7100BF226852E8022F23680A4043E8AF
:103DF0000226C6B1226852E8022F23680A4043E82F
:103E0000022686B1226852E8022F23680A4043E85E
:103E1000022646B1226852E8022F23680A4043E88E
:103E20000226002EDED12021C4F88C100021E1668C
:103E3000616700BF216851E8001F226821F010016E
:103E400042E80013DBB1216851E8001F226821F02D
:103E5000100142E8001393B1216851E8001F226865
:103E600021F0100142E800134BB1216851E8001F16
:103E7000226821F0100142E80013002BDAD102225F
:103E800081B220462267BDE87040FFF765BC00BFE5
:103E9000A16F00297FF40DAD39E500BF2046BDE8D4
:103EA0007040FFF7F1BC00BFD1017FF530ADB0F13C
:103EB000FF3FC8BF70BD2046BDE87040FFF74EBC55
:103EC00010B5D0B10446D0F8880028B9002084F895
:103ED0008400204600F026F82420C4F888002068DA
:103EE000A16A026822F00102026011B1204600F0CE
:103EF000DDFC204600F05AFF10B1012010BD00BFCC
:103F00002168486820F490404860886820F02A00C2
:103F10008860086840F0010220460A60BDE8104051
:103F200000F03ABD2DE9F04196B0044668460830ED
:103F30003C21FCF7A5F9206843F60001C4F2010119
:103F4000884203D016B0BDE8F08100BF0120009088
:103F5000002668460196FDF747FE002818BFFCF7CB
:103F600057FD41F24C00C4F20200416940F21C08C6
:103F700041F4804141614169C4F2020801F4804189
:103F800011911199016841F002010160006811A9C5
:103F900000F0020011901198C02011900220CDE98C
:103FA00012060720159040F20040C4F60000149657
:103FB000FDF7E6FB40F27815C2F20005192010214A
:103FC000C5E9008005F108008027C2C0C5E9056683
:103FD000EE614FF4805628462E62FDF77DFA0028E8
:103FE00018BFFCF715FDE567AC6240F2181508F143
:103FF0001400C2F200051821002285E807002846B7
:10400000C5E90327C5E90522C5E90726FDF764FAD6
:10401000002818BFFCF7FCFC252000210022C4F872
:104020008050AC62FDF706FD2520FDF7F1FC16B0CF
:10403000BDE8F081B0B50446D0F8880020281CBF48
:104040000220B0BD00294FF0010059D0002A1346CC
:1040500008BFB0BD002221202165A4F85430A4F887
:104060005630C4F89020C4F88800E06FF0B144F6F0
:104070001935C0F600054563256844F6F54C44F64D
:10408000A55EC0F6000CC0F6000E826305F12802A2
:10409000C0E90BCEFDF7B6FA40B11020C4F890008D
:1040A0002020C4F888000120B0BD00BF2068402156
:1040B000016200BF206850E8020F216840F08000D4
:1040C00041E80202DAB1206850E8020F216840F0AE
:1040D000800041E8020292B1206850E8020F216896
:1040E00040F0800041E802024AB1206850E8020F27
:1040F000216840F0800041E80202002ADAD1002065
:10410000B0BD00007047000070470000FEE70000EF
:1041100010B58CB040F24C00C2F200004FF0A04C41
:104120004FF44032002401230421C0E900C24FF4BF
:1041300080720B94CDE90944CDE90744CDE90544EB
:10414000CDE90344CDE90144C0E90244C0E9044398
:1041500081618283016280F82440C0E90B4480F8C9
:104160003830C46380F84040FCF7F2FE002818BFE6
:10417000FCF74EFC40F24C00C2F2000009A9099481
:10418000FCF7B6FC002818BFFCF742FC0220C0F286
:104190003040019006200290022003907F2004907E
:1041A000042005900020069040F24C00C2F200006E
:1041B00001A9FCF7F9FC002818BFFCF729FC042032
:1041C000C0F6600001900C20029040F24C00C2F258
:1041D000000001A9FCF7E8FC002818BFFCF718FC58
:1041E0000820C0F6904001901220029040F24C004E
:1041F000C2F2000001A9FCF7D7FC002818BFFCF7A9
:1042000007FC1020C1F2C00001901820029040F27B
:104210004C00C2F2000001A9FCF7C6FC002818BF40
:10422000FCF7F6FB0CB010BD80B582B041F248003F
:10423000C4F202000168002241F00401016001683B
:1042400001F0040101910199016841F0010101604F
:104250000068002100F00100009000980B20FDF79D
:10426000E9FB0B20FDF7D4FB0C2000210022FDF719
:10427000E1FB0C20FDF7CCFB0D2000210022FDF717
:10428000D9FB0D2002B0BDE88040FDF7C1BB0000A6
:104290002DE9F04387B0002641F24C00CDE90566D8
:1042A000C4F20200016840F2004441F020010160C4
:1042B0000168C4F6000401F0200101910199016830
:1042C000002241F00101016001684FF4805801F0C3
:1042D000010101910199016841F00201016000684A
:1042E0004FF4805100F00200019001982046FDF744
:1042F00025FB4FF090404FF4006100224FF400691D
:10430000FDF71CFB4FF090404FF4004101220127C4
:10431000FDF714FB102002904FF4041002ADCDE91C
:1043200003074FF090402946FDF72AFA4FF4881012
:10433000039002200490204629460297FDF720FAB8
:1043400020462946CDE902960496FDF719FA204643
:104350002946CDE90287CDE90476FDF711FA4FF43D
:104360000840CDE902074FF090402946CDE90466A8
:10437000FDF706FA062001210022FDF75BFB06206F
:10438000FDF746FB0A2000210022FDF753FB0A201F
:10439000FDF73EFB07B0BDE8F0830000B0B540F28A
:1043A000D81043F20001C2F20000C4F201014FF440
:1043B000827200234FF4706C4FF0010E4FF40074C2
:1043C000202580E80E100721C0E9043EC0E906451B
:1043D000C0E90833C0E90A31C0E90C33FEF798F9A7
:1043E000002808BFB0BDBDE8B040FCF711BB00001D
:1043F00010B59CB0002401A834211B94CDE91944C8
:10440000CDE91644CDE91444CDE91244CDE9104478
:10441000CDE90E44FBF734FF40F23C2042F6004168
:10442000C2F20000C4F201014FF6FF72C0E90014AD
:10443000C0E90242C0E904448461FEF7EFFA0028B3
:1044400018BFFCF7E5FA4FF48050189040F23C207A
:10445000C2F2000018A9FEF7E5FB002818BFFCF720
:10446000D7FA40F23C20C2F20000FFF7A9F800287A
:1044700018BFFCF7CDFA40F23C200024C2F2000045
:1044800015A9CDE915441794FEF772FA002818BF54
:10449000FCF7BEFA40F23C20C2F200000EA9002256
:1044A0001494CDE91244CDE91044CDE90E44FEF751
:1044B000E7FE002818BFFCF7ABFA40F23C20C2F23E
:1044C00000000EA90422FEF7DBFE002818BFFCF74F
:1044D0009FFA40F23C20C2F200000EA90822FEF72B
:1044E000CFFE002818BFFCF793FA00204FF40051CC
:1044F000CDE906104FF000710590CDE90300CDE93C
:104500000100CDE90800CDE90A10CDE90C0040F228
:104510003C20C2F2000001A9FEF7BCF9002818BF38
:10452000FCF776FA40F23C20C2F20000FEF758FE9B
:104530001CB010BD80B588B040F288200021C2F2C6
:1045400000004FF080424FF0FF330791CDE9051195
:104550000291C0E90021C0E9021301618161FEF707
:104560005DFA002818BFFCF753FA4FF4805004900E
:1045700040F28820C2F2000004A9FEF753FB002895
:1045800018BFFCF745FA00200190039040F2882004
:10459000C2F2000001A9FEF7EBF9002818BFFCF7F2
:1045A00037FA08B080BD000010B58CB040F2D420BE
:1045B00040F200410024C2F20000C4F20001C0E950
:1045C00000140321CDE9031401214FF6FF72CDE958
:1045D0000514CDE9091403A90194C0E9024204615C
:1045E0008461CDE907440B94FEF71EFC002818BF38
:1045F000FCF70EFA40F2D420C2F2000069460094A3
:104600000294FEF7B5F9002818BFFCF701FA0CB0C8
:1046100010BD000010B584B040F2203041F200011E
:104620000024C2F20000C4F2000140F2E733029419
:10463000A72280E81600C3608461FEF7EFF9002826
:1046400018BFFCF7E5F940F22030C2F2000001A9E2
:1046500001940394FEF78CF9002818BFFCF7D8F9F1
:1046600004B010BD10B584B040F26C3041F200418E
:104670000024C2F20000C4F2000140F2E7330294C9
:1046800040F28F6280E81600C3608461FEF7C6F9CD
:10469000002818BFFCF7BCF940F26C30C2F20000F1
:1046A00001A901940394FEF763F9002818BFFCF7F1
:1046B000AFF904B010BD000080B540F2B83043F649
:1046C0000001C2F20000C4F2010100234FF00C0C03
:1046D0004FF4E13280E80E00C0E90333C0E905C3BE
:1046E000C0E90733C0E90933FFF7EAFB002818BF28
:1046F000FCF78EF940F2B830C2F200000021FFF75B
:1047000077F8002818BFFCF783F940F2B830C2F2FE
:1047100000000021FFF724F8002818BFFCF778F903
:1047200040F2B830C2F20000FEF7FAFF002808BFDE
:1047300080BDBDE88040FCF76BB90000FEE70000DB
:10474000FEE700007047000070470000FDF702B967
:104750004EF68850CEF20000016841F4700101600D
:104760007047000040F2D420C2F20000FEF752BCB5
:1047700040F22030C2F20000FEF74CBC40F26C3038
:10478000C2F20000FEF746BC40F2FF7C0268C4F2B1
:10479000000C604522DD40F60003C4F2000398429D
:1047A00025D043F20043C4F2010398421FD042F6E1
:1047B0000043C4F20103984219D043F2FF33C4F21C
:1047C000010398421DDC60452ADCB0F1804F3DD0EA
:1047D00040F20043C4F2000336E000BFB0F1804F66
:1047E00005D040F20043C4F200039842E5D14B6883
:1047F00022F070021A4343F2FF33C4F201039842DD
:10480000E1DD44F2FF33C4F20103984212DC43F2CB
:104810000043C4F20103984218D044F2000311E0AF
:1048200040F60003C4F2000398420FD042F6004362
:1048300008E000BF44F60003C4F20103984205D02B
:1048400044F20043C4F20103984203D1CB6822F43E
:1048500040721A4380B54B6922F0800E8A6843EAA1
:104860000E03D1F800C00360C262A0F18042A2F53D
:104870009632830543EA9222072AC0F828C0BDE891
:10488000804007D8012303FA02F212F0E50F1CBFA3
:1048900009690163012141610169C90708BF7047C6
:1048A000016921F00101016170470000816A0A0776
:1048B0000ED4CA0717D18A0720D44A0729D4CA06BA
:1048C00032D48A063BD480B54A0644D458E000BFAF
:1048D0000268D0F838C0536823F4004343EA0C035D
:1048E0005360CA07E7D00268D0F82CC0536823F49D
:1048F000003343EA0C0353608A07DED50268D0F820
:1049000030C0536823F4803343EA0C0353604A07F2
:10491000D5D50268D0F834C0536823F4802343EA25
:104920000C035360CA06CCD50268D0F83CC093682B
:1049300023F4805343EA0C0393608A06C3D50268CC
:10494000D0F840C0936823F4005343EA0C0393600B
:1049500080B54A0614D50268D0F844C05368BCF547
:10496000801F23F4801343EA0C03536008D1D2F86C
:1049700004C0D0F848E02CF4C00343EA0E035360AF
:10498000090658BF80BD0168C06C4A6822F4002245
:104990001043486080BD0000B0B582B004460020DE
:1049A000C4F89000FCF7D0FF216805460A6812079A
:1049B00037D56FF07E4C20464FF4001100222B4675
:1049C000CDF800C000F03EFB50B300BF206850E8B7
:1049D000000F216820F0800041E80002DAB1206871
:1049E00050E8000F216820F0800041E8000292B1F9
:1049F000206850E8000F216820F0800041E80002A4
:104A00004AB1206850E8000F216820F0800041E89A
:104A10000002002ADAD12020C4F8880060E000BF3C
:104A200021680868400761D56FF07E4C20464FF43E
:104A3000800100222B46CDF800C000F003FB0028C7
:104A400054D000BF206850E8000F216820F4907017
:104A500041E80002E2B1206850E8000F216820F42C
:104A6000907041E800029AB1206850E8000F216878
:104A700020F4907041E8000252B1206850E8000F25
:104A8000216820F4907041E80002002ADAD100BFCA
:104A9000206850E8020F216820F0010041E802027E
:104AA000DAB1206850E8020F216820F0010041E8E7
:104AB000020292B1206850E8020F216820F0010044
:104AC00041E802024AB1206850E8020F216820F054
:104AD000010041E80202002ADAD12020C4F88C004B
:104AE0000320002184F8841002B0B0BD2020C4F857
:104AF0008800C4F88C000020E0662067002184F85C
:104B0000841002B0B0BD0000806A0021A0F85E10E1
:104B1000A0F85610FEF7B8BE806A0268D0F8883058
:104B2000D0F88CC09168090653D5212B51D10021B2
:104B3000A0F85610016851E8001F026821F0C0017A
:104B400042E80013BBB3016851E8001F026821F07E
:104B5000C00142E8001373B3016851E8001F026806
:104B600021F0C00142E800132BB3016851E8001F97
:104B7000026821F0C00142E80013002BDAD11AE0EC
:104B8000016851E8021F026821F4000142E80213A3
:104B9000DBB1016851E8021F026821F4000142E81C
:104BA000021393B1016851E8021F026821F4000169
:104BB00042E802134BB1016851E8021F026821F478
:104BC000000142E80213002BDAD12021C0F888103E
:104BD00002689168490640F18480BCF1220F40F0E0
:104BE00080800021A0F85E10016851E8001F026873
:104BF00021F4907142E80013DBB1016851E8001F15
:104C0000026821F4907142E8001393B1016851E801
:104C1000001F026821F4907142E800134BB1016853
:104C200051E8001F026821F4907142E80013002B44
:104C3000DAD14FF6FE7CCEF6FF7C00BF026852E868
:104C4000022F036802EA0C0243E80221D9B101688D
:104C500051E8021F026801EA0C0142E8021393B115
:104C6000016851E8021F026801EA0C0142E80213E0
:104C70004BB1016851E8021F026801EA0C0142E8E9
:104C80000213002BDAD1C16E012924D1016851E849
:104C9000001F026821F0100142E80013DBB1016837
:104CA00051E8001F026821F0100142E8001393B19F
:104CB000016851E8001F026821F0100142E800136A
:104CC0004BB1016851E8001F026821F0100142E871
:104CD0000013002BDAD12021C0F88C100021C1660E
:104CE0004167D0F8901041F01001C0F89010FEF725
:104CF000CBBD00000168806A0968890648BFFFF7DC
:104D000001BA0021A0F85610016851E8021F02689C
:104D100021F0800142E8021383B3016851E8021FC9
:104D2000026821F0800142E802133BB3016851E8B8
:104D3000021F026821F0800142E80213F3B101680A
:104D400051E8021F026821F0800142E80213002BA3
:104D5000DAD113E0016851E8001F026841F0400118
:104D600042E80013002B08BF7047016851E8001F9C
:104D7000026841F0400142E8001393B1016851E834
:104D8000001F026841F0400142E800134BB1016886
:104D900051E8001F026841F0400142E80013002B77
:104DA000D8D17047806AFFF7AFB9000070B50546EB
:104DB00005F108041ECC0068194341EA0403EE69BA
:104DC000046846F6F311CCF6FF71214019433143D4
:104DD0000160416848F2000C21F4405111434160E8
:104DE000AA69C4F2000C60451CBF296A0A438168A5
:104DF0004FF2FF43C1F2FF13194011438160C16AB2
:104E0000D5F824E021F00F0141EA0E01C16244F619
:104E1000FF31C4F2000188424FF0100314DD44F664
:104E20000041C4F20001884222D0604528D043F6F8
:104E30000001C4F20101884238D141F28801C4F274
:104E400002010B687BA22DE044F20041C4F2000194
:104E500088421DD044F60001C4F20001884225D1E9
:104E600041F28801C4F2020109680B0916E000BF93
:104E700041F28801C4F2020109688B090EE000BF0B
:104E800041F28801C4F2020109688B0A06E000BF02
:104E900041F28801C4F2020109688B0845F65C62A0
:104EA000C0F6000203F0030152F82130604542F2DF
:104EB0000040C0F2F40015D0B6F5004F22D1082B07
:104EC0004FF0010100F2AD80DFE803F0065C6AAB51
:104ED00060ABABAB680000BFFDF742F9002840F0C3
:104EE00059809AE0082B4FF0010100F29A80DFE828
:104EF00003F0059825981B9898982300FDF730F942
:104F0000B0B98AE0082B4FF0010100F28A80DFE897
:104F100003F005636F88678888886D00FDF720F9C6
:104F2000002860D179E000BFFDF746F9002874D071
:104F3000D5F824E002E000BF4FF4004045F644619C
:104F4000C0F6000131F81E106A68B0FBF1F002EB08
:104F5000420188424FF0010163D31303984260D8A5
:104F6000010E000210EB520041F100010023FBF79B
:104F70004FF94FF60052A0F54071C0F20F02914276
:104F800049D34DE0FDF702F920B946E0FDF714F9E9
:104F9000002842D0D5F824E002E000BF4FF40040E2
:104FA00045F64461C0F6000131F81E106A68B0FB96
:104FB000F1F0510801EB4000B0FBF2F04FF6EF7258
:104FC000A0F1100191422BD84FF6F0710140C0F3CF
:104FD000420008441FE000BFFDF7D8F818B91CE0F4
:104FE000FDF7EAF8C8B1D5F824E001E04FF400403D
:104FF00045F64461C0F6000131F81E104FF6EF721D
:10500000B0FBF1F0696800EB5100B0FBF1F0A0F1EA
:105010001001914204D82968C860002101E000BF56
:1050200001214FF00110A866002208466A67AA67AE
:1050300070BD00BF0100000004000000020000007D
:10504000080000002DE9F041804600681546C2695D
:105050000E461140891BB1FA81F14909A94223D1B9
:10506000069C2CB3611C29D1C1693140891BB1FA5E
:1050700081F14909A94217D1C1693140891BB1FAAF
:1050800081F14909A9420FD1C1693140891BB1FAA7
:1050900081F14909A94207D1C1693140891BB1FA9F
:1050A00081F14909A942DFD00020BDE8F08100BFAD
:1050B000FCF74AFC0320BDE8F08100BF1F4607E073
:1050C000C0693040801BB0FA80F04009A842EBD1A3
:1050D000FCF73AFCC01BA04200F2AE80D8F80000FA
:1050E00001684907ECD5402EEAD0802EE8D0C1698E
:1050F000090700F1A580C1690905E1D54FF40061F8
:105100000162D8F8000050E8000FD8F8001020F431
:10511000907041E800020AB3D8F8000050E8000F90
:10512000D8F8001020F4907041E80002B2B1D8F82D
:10513000000050E8000FD8F8001020F4907041E80B
:1051400000025AB1D8F8000050E8000FD8F800105B
:1051500020F4907041E80002002AD2D14FF6FE7090
:10516000CEF6FF70D8F8001051E8021FD8F80020E2
:10517000014042E80213F3B1D8F8001051E8021FD1
:10518000D8F80020014042E80213A3B1D8F800107B
:1051900051E8021FD8F80020014042E8021353B141
:1051A000D8F8001051E8021FD8F80020014042E86A
:1051B0000213002BD6D1D8F86C0001282CD1D8F8D6
:1051C000000050E8000FD8F8001020F0100041E86F
:1051D00000020AB3D8F8000050E8000FD8F8001019
:1051E00020F0100041E80002B2B1D8F8000050E809
:1051F000000FD8F8001020F0100041E800025AB16A
:10520000D8F8000050E8000FD8F8001020F0100087
:1052100041E80002002AD2D120200021C8F88C00E9
:10522000C8F86C10C8F87410C8F89000032088F80B
:105230008410BDE8F08100BF0320BDE8F08100BF0D
:1052400008210162D8F8000050E8000FD8F80010DB
:1052500020F4907041E800020AB3D8F8000050E84A
:10526000000FD8F8001020F4907041E80002B2B1AD
:10527000D8F8000050E8000FD8F8001020F4907023
:1052800041E800025AB1D8F8000050E8000FD8F801
:10529000001020F4907041E80002002AD2D14FF6AD
:1052A000FE70CEF6FF70D8F8001051E8021FD8F853
:1052B0000020014042E80213F3B1D8F8001051E891
:1052C000021FD8F80020014042E80213A3B1D8F829
:1052D000001051E8021FD8F80020014042E80213F4
:1052E00053B1D8F8001051E8021FD8F8002001404F
:1052F00042E80213002BD6D1D8F86C0001282CD13B
:10530000D8F8000050E8000FD8F8001020F0100086
:1053100041E800020AB3D8F8000050E8000FD8F8BE
:10532000001020F0100041E80002B2B1D8F80000EF
:1053300050E8000FD8F8001020F0100041E80002FB
:105340005AB1D8F8000050E8000FD8F8001020F04B
:10535000100041E80002002AD2D12020C8F88C00B9
:1053600000200821C8F86C00C8F87400C8F8901034
:1053700088F884000120BDE8F081000040F2B830D8
:10538000C2F20000FEF782BAFEE7000083B010B55B
:105390009BB084461DA802AC0EC01DAB2046642104
:1053A0006246019300F0B4F882B240F2B830C2F223
:1053B00000002146FEF73EFE1BB0BDE8104003B0E2
:1053C0007047000094B0FCF7D3FA002400200C943E
:1053D000CDE90A44CDE90844FCF768FB01204FF40D
:1053E00080310325069007910221CDE90E502A2035
:1053F000CDE9100106A80D91CDE91211FCF71EFFB1
:1054000020B1EFF3108072B6FEE700BF0F20CDE9A8
:10541000010501A80421CDE903440594FCF71AFD18
:1054200020B1EFF3108072B6FEE700BFFEF730FF49
:10543000FEF7FAFEFEF76CFEFEF7B0FFFEF7D8FFB0
:10544000FFF7B2F8FFF738F9FFF70CF9FFF7E2F8CA
:10545000FFF770F80A20FCF749F940F24C04C2F259
:10546000000420467F21FBF7D9FA40F20C01C2F27A
:10547000000120460422FBF7EFFE40F21800C2F2C2
:105480000000FBF78BFA40F24C40C2F2000000F043
:1054900003F800BFFEE7000010B54FF0FF310160D8
:1054A00040F21801C2F2000191E81C1000F1180E40
:1054B0008EE81C10D1E90423D1E906CEC0E90A2305
:1054C000D1E90842D1E90A31C0E90E42C0E9103100
:1054D0000021C0E90CCE0161C0E901118181017593
:1054E00040F22030C2F20000FDF734FB40F2D42439
:1054F000C2F2000420463C21FDF72CFD2068C16863
:1055000041F00101C16042F21071416210BD000022
:105510007CB50C001D461646014601D0601E00E019
:105520000020CDE90010064B6A462946304600F0BF
:10553000DBF8002C02D0009A002111707CBD000025
:10554000175E000802E008C8121F08C1002AFAD13D
:1055500070477047002001E001C1121F002AFBD1F3
:10556000704700002DE9FF5F82B00021DDE90430C3
:10557000020DDDF840B0034318D044F61050A2F2FB
:10558000FF3242431514119801281FD0A5EB0B00E0
:10559000401C5FEA000A4FF000064E4FDFF83891DA
:1055A000B046504615D5CAF1000413E01198012405
:1055B0004AA3012801D16FEA0B010298119AC0E9B0
:1055C0000031C0E9024206B0BDE8F09FCBF1000017
:1055D000DFE704460021404A491842EB0450CDE978
:1055E000001012E0E00707D032463B4640464946ED
:1055F000FAF751FE8046894632463B461046194628
:10560000FAF749FE06460F466410002CEAD1DDE9A0
:105610000401DDE90023BAF1000F06DAFAF73BFED8
:1056200042464B46FAF737FE05E0FAF7F2FF4246EC
:105630004B46FAF7EEFF04460E460022284BFBF7D6
:105640006FF803D84FF0FF30014607E00022254BEA
:1056500020463146FAF736FFFBF74AF8102409E0F6
:10566000002C0ADB0A220023FAF7D2FD039B30321A
:105670001A55641E50EA0102F2D1641C039AC4F167
:1056800011031444119A012A03D0012208430DD1B9
:105690000AE0084304D000204FF0110B119072E78C
:1056A000A3EB0B056D1E0DE05B4504DD4FF0000222
:1056B00005F1010504E003DA4FF00002A5F1010550
:1056C000002AECD002981199C0E90231C0E90045E6
:1056D00079E70000000014400000F03F30000000B7
:1056E0000000F0430000E03F2DE9FF4F95B09B46DE
:1056F0008946064600250FE2252877D10024274653
:10570000F84A0121059400E0044316F8013F203BCC
:1057100001FA03F01042F7D130782A2811D06FF047
:105720002F033078A0F13002092A16D8059A44F0E8
:10573000020402EB820203EB42021044761C059045
:10574000EFE759F8042B0592002A03DA504244F49B
:105750000054059044F00204761C30782E2816D1AF
:1057600016F8010F44F004042A280DD06FF02F0220
:105770003078A0F13003092B09D807EB870302EB3F
:105780004303C718761CF3E759F8047B761C30787E
:105790006C280FD006DC4C2817D068280DD06A285A
:1057A00014D104E0742810D07A280FD10DE044F40D
:1057B00000140AE044F4801401E044F440147278C8
:1057C000824202D104F58014761C761C307866285B
:1057D0000BD013DC582877D009DC002875D0452879
:1057E000F6D04628F4D047281AD19DE118E0632866
:1057F00035D0642879D0652812D195E1702873D00E
:1058000008DC6728F1D069286FD06E280DD06F288A
:1058100006D1B5E073282CD0752875D0782874D0BF
:105820005A46179990476D1C75E1C4F3025002283F
:1058300009D003280DD0D9F8001004280DD00D6030
:1058400009F1040967E1D9F80010EA17C1E900522B
:10585000F6E7D9F800100D80F2E70D70F0E719F8BF
:10586000041B8DF8001000208DF80100EA4601208D
:1058700003E059F804AB4FF0FF3061074FF000012F
:1058800002D40DE008F101018846B9420FDA8045E3
:10589000F8DB1AF808100029F4D108E008F101013A
:1058A00088468142FADB1AF808100029F6D10598DB
:1058B0005B46A0EB080721463846179A00F094FA99
:1058C000284400EB080507E04DE029E10DE01AF857
:1058D000010B5A4617999047B8F10108F7D25B4679
:1058E00021463846179A13E142E00A220092C4F397
:1058F00002524FF0000A022A08D059F804CB032ABA
:105900004FEAEC710AD00DE029E02AE009F1070125
:1059100021F00702F2E802C1914609E00FFA8CFC7F
:105920004FEAEC71042A03D14FFA8CFC4FEAEC7178
:10593000002907DA0A460021DCF1000C61EB0201C4
:105940002D2202E0220504D52B228DF8042001220D
:1059500003E0E20701D02022F7E7904659E00A2150
:1059600002E010220DE010214FF0000A00910BE040
:1059700010224FF0000A44F004040827009203E0CC
:1059800008224FF0000A0092C4F30252022A05D006
:1059900059F804CB0021032A08D009E009F10701D6
:1059A00021F00702F2E802C1914605E01FFA8CFCE3
:1059B000042A01D10CF0FF0C4FF00008220728D573
:1059C000702806D0009B83F0100353EA0A0305D029
:1059D0000EE040228DF80420012208E05CEA01027A
:1059E00006D030228DF804208DF805000222904662
:1059F000009B83F0080353EA0A030AD15CEA010220
:105A000001D1620705D530228DF804204FF001083E
:105A10007F1E582804D034A003900EA802900DE0F9
:105A200036A0F9E753466046009AFAF7F1FB844640
:105A30000398825C0298401E029002705CEA0100AA
:105A4000F0D1029806A9081A00F1200A600702D5D1
:105A500024F4803400E00127574502DDA7EB0A005B
:105A600000E0002000EB0A01009005984144401A34
:105A70000590E00306D45B462146179A059800F08E
:105A8000B3F90544002706E001A85A46C05D1799FE
:105A900090476D1C7F1C4745F6DBE0030CD55B4649
:105AA0002146179A059800F09FF9054404E030203C
:105AB0005A46179990476D1C0099481E009000297E
:105AC000F5DC08E0029802995A460078491C0291D8
:105AD000179990476D1CBAF10001AAF1010AF1DC97
