:020000040800F2
:1000000010060020ED0100082D2D0008E928000849
:10001000292D000805030008A13600080000000093
:10002000000000000000000000000000352D000866
:100030000903000800000000312D0008392D0008D8
:10004000070200080702000807020008070200086C
:10005000070200080702000807020008070200085C
:10006000070200080702000807020008070200084C
:10007000070200080702000807020008070200083C
:10008000070200080000000007020008070200083D
:10009000070200080702000807020008070200081C
:1000A000070200080702000807020008070200080C
:1000B00007020008070200080702000807020008FC
:1000C00007020008070200080702000807020008EC
:1000D00007020008070200080702000807020008DC
:1000E00007020008070200080702000807020008CC
:1000F00007020008070200080702000800000000CD
:1001000000000000070200080000000007020008CD
:1001100007020008000000000702000807020008AC
:10012000070200080702000807020008070200088B
:10013000070200080000000000000000070200089D
:10014000070200080702000800000000000000008D
:10015000000000000000000000000000000000009F
:10016000000000000000000000000000070200087E
:10017000070200080000000000000000000000006E
:10018000000000000702000800000000000000005E
:10019000000000000000000000000000000000005F
:1001A000000000000000000007020008070200082D
:1001B000070200080702000807020008000000000C
:1001C000000000000702000800000000000000001E
:1001D0000702000807020008DFF80CD000F07AF8E8
:1001E00000480047A5360008100600200648804752
:1001F00006480047FEE7FEE7FEE7FEE7FEE7FEE70C
:10020000FEE7FEE7FEE7FEE73D2D0008D901000806
:100210002DE9F05F0546002092469B46884606463B
:10022000814640241BE0284641464746224600F0CE
:1002300041F853465A46C01A914110D31146184608
:10024000224600F028F82D1A67EB01084F46224697
:100250000120002100F01FF817EB00094E41201E7D
:10026000A4F10104DFDC484631462A464346BDE896
:10027000F09FD2B201E000F8012B491EFBD270477B
:100280000022F6E710B513460A4604461946FFF762
:10029000F0FF204610BD202A04DB203A00FA02F1CC
:1002A000002070479140C2F1200320FA03F3194364
:1002B00090407047202A04DB203A21FA02F0002106
:1002C000704721FA02F3D040C2F120029140084366
:1002D000194670471CB50948009009480190054629
:1002E000009C06E0E06840F0010394E807009847AE
:1002F0001034AC42F6D3FFF773FF000094370008C8
:10030000B4370008FEE7000070470000EFF31080EC
:1003100072B600BFFEE7000090F85820012A04BF23
:100320000220704770B582B00022019200920268EC
:10033000B2F1A04F30D140F208324FF6006C4FF6C8
:100340000055C5F20002CFF6FF7CCFF6FF7552F8DC
:100350000C40535923435B071ED4D1F800E01368C7
:10036000BEF1000F23F4604424D04B6890F838604D
:1003700043EA463323431360535952F80C60334326
:10038000DB0723D1136840F61F768968B34319430E
:1003900041EA0E0119E000BFC16D41F02001C165C5
:1003A0000121002280F8582002B0BDE870400846C4
:1003B000704700BF1460515952F80C301943C907F7
:1003C00004D1116840F61F73994311600021E8E7DA
:1003D000F0B581B00022009290F85820012A03D194
:1003E0000221084601B0F0BD0123076880F85830AB
:1003F000BB685B0734D4D1E900351F26C5F301245F
:1004000007EB8404226B05F01F05AE40C3F3846341
:10041000B243AB401A432263BA68BB6802F00402DD
:1004200003F00803D21840F0BC800A6807F11403F7
:100430000426C2F34064D1F808E006EAD25C53F81F
:100440002440C2F304550722AA40BEF1004F24EA1B
:1004500002040BD143F80C401A6842F000430DE04F
:10046000C16D41F02001C165012178E10EFA05F26C
:10047000224343F80C201A6822F000437B61D1E943
:100480000435FC68042B5FD13A6E3A6E0B68C2F3F8
:10049000846293FAA3F6C3F3846C6FF3DF43B6FA76
:1004A00086F5002B2C464FF6FF7E08BF6446A2421D
:1004B000C0F2070E0CD13A6E22F000423A660A688A
:1004C00002EA0E03C2F3846C92FAA2F2B2FA82F547
:1004D0007A6E7A6E002BC2F384622C4608BF6446A3
:1004E000A2420CD17A6E22F000427A660A6802EAD1
:1004F0000E03C2F3846C92FAA2F2B2FA82F5BA6EDB
:10050000BA6E002BC2F384622C4608BF6446A24236
:100510000CD1BA6E22F00042BA660A6802EA0E03F3
:10052000C2F3846C92FAA2F2B2FA82F5FA6EFA6E13
:10053000002BC2F3846208BF6546AA4231D1FA6E2D
:1005400022F00042FA662CE0062202EA940205FA42
:1005500002FC0E6807F1600555F823404FF20002D7
:10056000C0F2FF3206F0F846224046EA0C0632435B
:1005700042F0004245F823200A698B6955F8226051
:1005800026F08076334345F822300A690B7F55F810
:100590002260012B26F0007608BF06F1007645F8B0
:1005A0002260BA680D68D20750D1CA68D7F8B06027
:1005B0002B466FF3DF4326EA030C4FF6FF7602F07B
:1005C0001804C0F20706E64000242E40C4F27F045F
:1005D00046EA0C06A242C7F8B06037D193B195FA4B
:1005E000A5F2B2FA82F2013202F01E03092B02F0E8
:1005F0001F0310D801229A4003EB430342EA03533E
:1006000015E000BF012202EB956202F01E030A2BE7
:1006100002F01F03EED3012200269A4003EB4303AE
:10062000CFF6206606EB03531A4342F00073C3F380
:10063000406607EB86068A687569C3F3045307248E
:100640009C40A5439A402A4372610D680021C8F27C
:1006500008010D4200F0828040F2083CC5F2000C17
:10066000DCF800400021CCF221318D4204F0E07E24
:1006700004D01021C9F2C0018D4241D1B7F1A04F81
:100680004FF0000108BF14F4000268D1DCF800103C
:1006900042F6635221F0E07141EA0E0141F400019B
:1006A000CCF8001040F20801C2F200010968C0F263
:1006B0003E528909A1FB0212910901EB41010C2272
:1006C00002EB810100910099002947D0009901397E
:1006D00000910099002941D00099013900910099B9
:1006E000E1B30099013900910099B9B3009901393A
:1006F0000091009900294FF00001E7D12FE000BFE1
:100700000021CCF252718D4210D10021B1EB1E6F4D
:100710000CD1ACF502718F4220D0DCF8001021F032
:10072000E07141EA0E0141F0807115E0ACF5027113
:100730008F424FF0000112D00022CCF68432954255
:1007400008BF14F480020AD1DCF8001021F0E07137
:1007500041EA0E0141F48001CCF800100021002292
:1007600080F85820084601B0F0BD0000B0B582B056
:100770000446002001904CB1E06D58B121688868B2
:10078000800012D48868C00019D54CE0012002B066
:10079000B0BD00BF204600F009F90020206684F8B3
:1007A0005800216888688000ECD588684FF6C072D0
:1007B000C5F6FF72104088608868C00033D44FF6D9
:1007C000C0728868C5F6FF7202F18052104000F1D5
:1007D0008050886040F20800C2F20000006842F6D3
:1007E00063528009C0F23E52A0FB0202900902222D
:1007F00002EB400001900198A8B100BF01980138B8
:100800000190019878B1019801380190019850B198
:10081000019801380190019828B1019801380190A0
:1008200001980028EAD18868C00009D4E06D40F042
:100830001000E065206E40F001002066012000E01D
:1008400000208A68E36D02F0040203F01003D2185E
:10085000E26D71D122F481720232E2658A68D207B8
:100860001AD140F2083C4FF600534FF60062C5F231
:10087000000CCFF6FF73CFF6FF725CF803305CF824
:1008800002201A43D20707D16268DCF8003023F453
:100890007C131A43CCF8002094F81DE0E36BD4E9F4
:1008A00002C243EA4E331A4394F8243042EA0C025F
:1008B000012B42EA034207D1D4F828C00023CFF627
:1008C000FE7303EB4C431A43E36A33B1D4F830C0F0
:1008D00003F4787343EA0C031A43D1F80CC044F2D2
:1008E0000703CFF6F07303EA0C031A43CA600A69E0
:1008F000636B22F040621A430A618A68120744D48B
:1009000094F83820237F520042EA833CCB6844F2BB
:10091000020223EA020242EA0C02CA6022690B695F
:1009200082B143F480330B61D1F8C0C043F6FF734A
:100930002CEA03031A430DE042F010010120E165A7
:1009400002B0B0BD23F480320A61D1F8C02043F672
:10095000FF739A43C1F8C02094F840300A69012B14
:1009600010D140F2FD7322EA030CD4E91132D4E92C
:1009700013E543EA0C031A4342EA0E022A4342F00B
:10098000010201E022F001020A6162690B6B012A97
:1009900023F00F0202D1236A013B1A430A63E16D7F
:1009A000012262F30101E16502B0B0BD10B598B05B
:1009B00004460020CDE9160002A804304021FFF7CC
:1009C0005FFC2068B0F1A04F02D018B010BD00BF8E
:1009D0004FF4004002904FF00050119002A800F038
:1009E0003BFA002818BFFFF791FC41F24C00C4F21B
:1009F0000200016841F400510160016801F40051F6
:100A000001910199016841F001010160006813A999
:100A100000F00100019001980F2013900320149022
:100A2000002015904FF0904000F002F818B010BD73
:100A30002DE9F04F82B00D68002D00F0C58000F167
:100A40003847860546EA972741F20046C4F6000675
:100A5000062240F2004EB04208BF0522C4F2010E49
:100A6000052F38BF3A464FF0000C0124002700261E
:100A7000009209E00D68013635FA06F207F1020727
:100A80000CF1040C00F0A08004FA06FB15EA0B0838
:100A9000F0D0D1F804A003230AF003056A1EBB407E
:100AA000012A6FEA03090FD88268CB6802EA0902BB
:100AB000BB401A4382604268CAF3001322EA0B0269
:100AC000B3401A43426003E0032D01D103251FE028
:100AD000C2688B6802EA0902BB401A43022DC26059
:100AE00016D16FF0030202EA560202440CF01C0514
:100AF0000F23D2F820A003FA05FB0B692AEA0B0AA0
:100B0000AB4043EA0A031362D1F804A00AF00305DC
:100B1000026805FA07F302EA09021A431AF4403F91
:100B20000260A7D041F26003C4F202031A684FF6D4
:100B3000084A42F001021A601A68CFF6FF7A02F002
:100B400001020192019A26F00302724452F80A90BF
:100B50000CF00C050F23009CAB4029EA030304FAB8
:100B600005F52B4342F80A30DEF808204B6842EACC
:100B7000080540F20C49DC0258BF22EA0805CEF80D
:100B80000850C4F20109D9F800209D0242EA080485
:100B900058BF22EA0804C9F80040DEF804209D038B
:100BA00042EA080458BF22EA0804CEF80440DEF8FE
:100BB0000020DB0342EA080458BF22EA0804CEF80A
:100BC0000040012456E700BF02B0BDE8F08F0000EE
:100BD0001823002A08BF2823C150704740F20C2078
:100BE000C2F200000068704740F2000040F20C21A1
:100BF000C2F20000C2F2000140680A6810440860B6
:100C00007047000080B5032000F078F80F2000F056
:100C100009F800281CBF012080BD00F029F8002041
:100C200080BD000070B540F20006C2F20006716897
:100C3000E1B1044640F20800C2F200004FF47A72BB
:100C40000068B2FBF1F1B0FBF1F000F03FFF0F2CB8
:100C50004FF0010508D838B94FF0FF302146002287
:100C6000002500F01FF83460284670BD012070BDDB
:100C700082B041F25800C4F20200816841F00101E3
:100C80008160816801F0010101910199016841F0E1
:100C900080510160006800F080500090009802B020
:100CA00000F0D0B810B54EF60C5CCEF2000CDCF8BB
:100CB0000030C3F3022E8EF00704042C28BF042456
:100CC000BEF103034FF0FF3E0EFA04F438BF0023D9
:100CD000A14399400EFA03F39A43114300F00F0227
:100CE00000F160430901043A03F5644362440028BB
:100CF00048BF02F10C03197010BD00004EF60C51F4
:100D0000CEF200010A684FF6FF031A4060F30A2290
:100D100042F0806040F0FD7008607047B0F5007FE1
:100D200042D0002840F0808047F21400C4F2000056
:100D300050F8141CC26E01F4C06122F48072B1F547
:100D4000806FC2662ED150F8141C012262F34A2132
:100D500040F8141C40F20801C2F200010968322276
:100D600051434DF68362C4F21B32A1FB0212910C77
:100D70000268520511D54A1C0FD0026852050CD5E5
:100D800059B10268520508D5012906D002685205FA
:100D900003D50229A1F10401EAD10068400544BF4E
:100DA000032070470020704747F21400C4F200008F
:100DB00050F8141CC26E01F4C06142F48072B1F5A7
:100DC000806FC266EED150F8141C012262F34A21F2
:100DD00040F8141C40F20801C2F2000109683222F6
:100DE00051434DF68362C4F21B32A1FB0212910CF7
:100DF0000268520511D54A1C0FD0026852050CD565
:100E000059B10268520508D5012906D00268520579
:100E100003D50229A1F10401EAD10068400544BFCD
:100E200003207047BEE700BF47F21400C4F2000081
:100E300050F8141C022262F34A2140F8141C0020CE
:100E40007047000047F20800C4F20000016841F456
:100E500080410160704700002DE9F04182B00446F6
:100E6000807841F288060007C4F2020602D400200E
:100E70002FE000BF56F8300C5FEAC0080BD456F8DC
:100E8000300C40F0805046F8300C56F8300C00F032
:100E900080500190019847F20007C4F200073868BB
:100EA00040F480703860FFF799FE05463868C00549
:100EB00000F1D680FFF792FE401B0228F6D90320EE
:100EC000B8F1000F05D456F8301C21F0805146F8D7
:100ED000301C2168CA0713D18A0719D44A071FD4C6
:100EE0000A0725D48A062BD44A0631D40A0637D4F9
:100EF000CA053DD48A0543D44A0549D457E000BF0A
:100F00003268636822F003021A4332608A07E5D52B
:100F10003268A36822F00C021A4332604A07DFD518
:100F20003268E36822F030021A4332600A07D9D5EA
:100F30003268236922F0C0021A4332608A06D3D590
:100F40003268636922F440621A4332604A06CDD5A2
:100F50003268A36922F440521A4332600A06C7D5A8
:100F60003268E36922F440421A433260CA05C1D5AF
:100F70003268236A22F440321A4332608A05BBD5B4
:100F80003268636A22F440221A4332604A050ED561
:100F90003268A36A22F440121A43B3F5801F32600C
:100FA00005D156F87C2C42F4801246F87C2C0A05B8
:100FB0000ED53268E36A22F440021A43B3F5800F7B
:100FC000326005D156F87C2C42F4801246F87C2C15
:100FD000CA040ED53268236B22F040721A43B3F173
:100FE000807F326005D156F87C2C42F4801246F89E
:100FF0007C2C8A040ED53268636B22F040621A435F
:10100000B3F1006F326005D156F87C2C42F48012A7
:1010100046F87C2C4A040ED53268A36B22F040625D
:101020001A43B3F1006F326005D156F87C2C42F4BC
:10103000801246F87C2C09040ED53168E26B21F051
:1010400040511143B2F1805F316005D156F87C1CEC
:1010500041F4803146F87C1C02B0BDE8F08100BF4D
:10106000B06810F4407010D0216C88420BD0B0688A
:10107000B16820F4407041F48031B160B16821F46E
:101080008031B160B060C0070CD1B068216C20F431
:1010900040700843B0600020B8F1000F3FF519AF71
:1010A00011E700BFFFF79AFD054641F2883700BF00
:1010B000B0688007E9D4FFF791FD401BB842F7D92B
:1010C000FDE600002DE9F047002865D042F2000A55
:1010D000C4F2020A0446DAF800000D4600F00F00E0
:1010E00088420CD2DAF8000020F00F002843CAF83A
:1010F0000000DAF8000000F00F00A8424CD121688F
:1011000041F20808C807C4F2020803D1880740F179
:10111000D480B9E0606802283AD0032840D158F85A
:10112000082C920138D5D8F80420D8F8043042F2BF
:101130000046C3F3031302F00302D8F8047001332E
:10114000C0F2F406032A04BF41F20026C0F27A0678
:10115000B6FBF3F2D8F80430C7F306277A43C3F39B
:101160004163022707EB4303B2FBF3F24BF2004368
:10117000C0F2C4439A425DD9D8F8002012F0F00FB3
:101180004DD0890756D5A168002953D147E000BF4B
:1011900058F8081C890307D40120BDE8F08700BF78
:1011A00058F8081C4905F7D5D8F8001001F00C01D3
:1011B00004293FD0D8F8001001F00C01082939D0DB
:1011C000D8F8001001F00C010C2933D1D8F8041024
:1011D000D8F8042042F20047C2F3031201F00301E1
:1011E000D8F804300132C0F2F407032904BF41F2F9
:1011F0000027C0F27A07B7FBF2F1D8F80420C3F356
:1012000006235943C2F34162022303EB4202B1FBBE
:10121000F2F14BF20042C0F2C44291420AD9D8F82E
:101220000010082262F307114FF00109C8F80010FE
:1012300002E000BF4FF00009D8F8001021F00301D0
:101240000843C8F80000FFF7C9FC064641F288379A
:10125000D8F80000616800F00C00B0EB810F07D0F7
:10126000FFF7BCFC801BB842F2D90320BDE8F08731
:101270002168880708D4B9F1000F1ED0D8F8000003
:1012800020F0F00017E000BF480705D5D8F80000AF
:1012900040F4E060C8F80000080706D5D8F8000060
:1012A000072262F30D20C8F80000D8F80000A268F9
:1012B00020F0F0001043C8F80000DAF8000000F059
:1012C0000F00A8421BD9DAF8000020F00F002843D5
:1012D000CAF80000FFF782FC064641F2883700BFDB
:1012E000DAF8000000F00F00A84207D0FFF776FC04
:1012F000801BB842F4D90320BDE8F0872168480775
:1013000007D5D8F80000E26820F4E0601043C8F880
:101310000000080708D5D8F80000216920F46050C3
:1013200040EAC100C8F80000D8F8000042F20041CD
:10133000C0F2F40100F00C00042808462DD0D8F8C3
:10134000000000F00C00082841F20020C0F27A00F2
:1013500023D0D8F8002002F00C020C2A1CD1D8F8B7
:101360000420D8F8043002F00302C3F30313D8F8C2
:1013700004700133032A08BF0146B1FBF3F0D8F82B
:101380000410C7F30627C1F341610222784302EB40
:101390004101B0FBF1F000E00020D8F8001043F26A
:1013A0004472C1F30311C0F60002515C40F208021E
:1013B00001F01F0120FA01F140F20000C2F200002A
:1013C0000068C2F200021160BDE8F047FFF72ABCD6
:1013D00040F2080041F20801C2F20000C4F202012A
:1013E0000068096843F25472C1F30221C0F600029A
:1013F000515C01F01F01C8407047000040F2080036
:1014000041F20801C2F20000C4F20201006809685A
:1014100043F25472C1F3C221C0F60002515C01F0E4
:101420001F01C8407047000041F20C01C4F20201E4
:1014300051F8040C42F20042C0F2F40200F00C0039
:101440000428104608BF704751F8040C00F00C0047
:10145000082841F20020C0F27A0025D051F8043C5F
:1014600003F00C030C2B1CBF0020704780B5D1F893
:1014700000C00B680CF0030CC3F3031E0B680EF1E5
:10148000010EBCF1030F08BF02460968B2FBFEF073
:10149000C3F30623C1F341610222584302EB410129
:1014A000B0FBF1F0BDE8804070470000002804BFA9
:1014B000012070472DE9F04182B00446007841F2E6
:1014C0000006C007C4F202061ED1207880073DD472
:1014D0002078000764D42078400700F187802078C6
:1014E000800600F1D980E569002D00F04482B068E3
:1014F00000F00C000C2840F03181012D40F090816B
:10150000012002B0BDE8F081B06800F00C01F06885
:10151000082961D0032281F00C0122EA000008446E
:10152000B0FA80F0400957D16068B0F5803F07D02D
:10153000B0F5A02F40F0E480306840F480203060A7
:10154000306840F480303060E5E000BFB068F1689A
:1015500000F00C00042871D001F0030180F00C00B1
:1015600081F002010844B0FA80F0400966D1E168D8
:101570003068002900F0E08040F480703060FFF7B0
:101580002DFB05463068400500F10A81FFF726FB78
:10159000401B0228F6D9032002B0BDE8F08100BF4D
:1015A0006169D6F89400002900F0948040F00100B1
:1015B000C6F89400FFF712FB054600BFD6F894006A
:1015C00080073FF588AFFFF709FB401B0228F5D9DC
:1015D000032002B0BDE8F081306880037FF575AF6D
:1015E000606800287FF471AF3EE000BFB06D5FEA35
:1015F000C00808D4B06D40F08050B065B06D00F008
:1016000080500190019847F20007C4F20007386843
:10161000C0052DD4386840F480703860FFF7DEFADA
:10162000054600BF3868C00522D4FFF7D7FA401B33
:101630000228F7D9032002B0BDE8F08130684005E8
:1016400001D5E06880B17068216920F0FE4040EA71
:101650000160706040F20000C2F200000068FFF715
:10166000E1FA00283FF434AF012002B0BDE8F08178
:10167000A068012808D0052840F0B080D6F8900076
:1016800040F00400C6F89000D6F8900040F0010049
:10169000C6F89000B0E000BFA169D6F89800002914
:1016A00000F0868040F00100C6F89800FFF796FA37
:1016B000054600BFD6F8980080073FF514AFFFF746
:1016C0008DFA401B02284FF00300F3D902B0BDE8A9
:1016D000F08100BF20F00100C6F89400FFF77EFA09
:1016E000054600BFD6F8940080077FF5F4AEFFF7FB
:1016F00075FA401B0228F5D9032002B0BDE8F0813D
:101700003168002821F480313160316821F4802172
:10171000316000F0BF80FFF761FA05463068800352
:101720003FF5D3AEFFF75AFA401B6428F6D90320E1
:1017300002B0BDE8F08100BF20F480703060FFF798
:101740004DFA0546306840057FF5C2AEFFF746FA10
:10175000401B02284FF00300F4D9B7E7306820F0AF
:1017600080703060FFF73AFA022D05460CD100BFB9
:101770003068800140F1BA80FFF730FA401B022840
:101780004FF00300F4D9A1E73068800140F1EC800C
:10179000FFF724FA401B02284FF00300F4D995E725
:1017A0007068216920F0FE4040EA016070608FE6B9
:1017B00020F00100C6F89800FFF710FA054600BFB8
:1017C000D6F8980080077FF58EAEFFF707FA401B2A
:1017D00002284FF00300F3D978E700BFD6F8901045
:1017E000002821F00101C6F89010D6F8901021F0E1
:1017F0000401C6F890105DD0FFF7F0F9054641F2FC
:10180000883700BFD6F89000800765D4FFF7E6F967
:10181000401BB842F6D9032002B0BDE8F08100BFFA
:10182000F068216A00F003028A427FF41DAF626A09
:101830006FF00F0300F0F00103EB021291427FF40E
:1018400013AFA16A00F4FE42B2EB012F7FF40CAF9C
:10185000E16A00F07842B2EBC16F7FF405AF226B12
:101860000023CFF6E07303EA025200F4C001A2F5B0
:10187000001291427FF4F8AE616B4FF07E4202EAB3
:10188000016100F0C06001F17E4188427FF4ECAE5E
:1018900071E000BFFFF7A2F9054600BF3068800382
:1018A0007FF513AEFFF79AF9401B64284FF0030051
:1018B000F4D90BE7FFF792F9054641F2883700BFEC
:1018C000D6F89000800707D5FFF788F9401BB8428B
:1018D0004FF00300F4D9F9E6B8F1000F3FF5FFAD82
:1018E000B06D20F08050B065F9E500BFF06848F2B7
:1018F0000C01C0F29F1104F1200700EA010C8ECF09
:101900006FF00F00D4E90C5400EB02100022CFF668
:10191000E07241EA0C0102EA05520843A2F5001206
:101920004FF07E4540EA032005EA0465104305F1C7
:101930007E4540EAC7602843F060306840F0807020
:101940003060F06840F08070F060FFF747F90446BF
:10195000306880010FD4FFF741F9001B02284FF0D7
:101960000300F5D9B2E600BFF0684FF6FC71CFF680
:10197000EE610840F060002002B0BDE8F081000098
:10198000002804BF01207047B0B50446406A28B162
:101990000020206104F1140006E000BF6068B0F58B
:1019A000827F03D004F11C00002101600025A562A4
:1019B00094F85D0020B9204684F85C5000F052F89D
:1019C000022084F85D002068D4F80CE00268BEF5BF
:1019D000E06F22F0400202604EF4006298BF0125E1
:1019E000B2F5706F1CBF0023A3624FEA053CD4E937
:1019F0000135D4E9042103F4827305F404452B4432
:101A000002F002021A44A36901F00101E5691144E0
:101A100003F40072114405F03802256A114405F000
:101A20008002A56A114405F40052114301600421AB
:101A3000626A0EF4706501EA1341636B45EA0C05B6
:101A400002F01002294303F00803114319434160D7
:101A5000C16921F40061C16100200121206684F880
:101A60005D10B0BD006843F20001C4F2010188427C
:101A700018BF704780B586B041F24C00C4F2020036
:101A8000416941F480514161416901F48051019102
:101A90000199016841F002010160006801A900F0AC
:101AA000020001900198382001900220029000204D
:101AB000CDE903000520059040F20040C4F6000087
:101AC000FEF7B6FF06B0BDE880407047411E00201B
:101AD000B0EB116F1CBF012070474EF21002CEF226
:101AE000000251604EF62351CEF20001F0230B703C
:101AF000072190601160704790F83C20012A04BFD4
:101B000002207047B0B5D1E90232D1E900CE22F40B
:101B10007C5223F4705343EA020448F2FF73CEF67A
:101B2000F0730EEA0302224303F5006404EA0C0496
:101B300042EA040C0C6903F5C05222404C6942EAA7
:101B40000C02224303F5605422400C6B03F5F04372
:101B500023401A438B6940F2000CCC69CEF6FF7C1F
:101B60000CEA03431443D0F800C043F20042C4F22D
:101B70000102944543EA040305D042F60042C4F250
:101B80000102944516D14FF6FF72CDF60F421A406E
:101B9000D1E9083ED1E90A410025CDF6F04505EA34
:101BA0000454224323F008531A432EF000531A43DF
:101BB00042EA01030021CCF8443080F83C10BDE833
:101BC000B04008467047000090F83C20012A4FF0D2
:101BD00002024AD070B580F83D20026843F2004C02
:101BE00054689368C4F2010C42F6004E6245C4F298
:101BF000010E01D0724503D14D6824F470042C43CA
:101C00004FF68F75CFF6FF550E682C4042F6FF3524
:101C1000C4F201053443AA4254600FDCB2F1804F94
:101C200016D040F20046C4F20006B24210D040F690
:101C30000006C4F20006B2420AD00EE0724507D098
:101C400044F20006C4F20106B24201D0624504D15A
:101C5000896823F08003194391600121002280F8F4
:101C60003D1080F83C20BDE87040104670470000F1
:101C7000002804BF0120704710B5044690F83D00CD
:101C800028B9002084F83C00204600F023F8022008
:101C900084F83D002068211D01F05AF8012084F8E5
:101CA000480084F83E0084F83F0084F8400084F83F
:101CB000410084F8420084F8430084F8440084F82A
:101CC000450084F8460084F8470084F83D00002071
:101CD00010BD0000006842F60041C4F201018842D4
:101CE00018BF704781B041F26000C4F20200016881
:101CF00041F400610160006800F400600090009809
:101D000001B0704790F83C20012A4FF0020200F029
:101D1000AC8080B580F83D20D0F800C08822DCF887
:101D20000830CFF6CE721A40CCF808200B686F2B23
:101D300010DD1F22C0F21002934237DCB3F5005FC2
:101D400046DA702B00F09480B3F5805F00F0848059
:101D5000D8E000BF2F2B35DD4F2B3FDC302B6FD071
:101D6000402B40F0CF80D1F804E0C968DCF8203087
:101D7000DCF8202022F00102CCF82020DCF818202A
:101D800022F0F00242EA011123F00A0242EA0E02B6
:101D9000CCF81810CCF82020DCF808104FF6887228
:101DA000CFF6CF721140473154E000BF3F21C0F25F
:101DB00010018B423ADC2021C0F210018B423FD04F
:101DC000302139E0E3B3102B3AD0202B38D099E002
:101DD00062D0B3F1101F33D094E000BF502B6FD00E
:101DE000602B40F08F80D1F804E0C968DCF8203027
:101DF000DCF8202022F01002CCF82020DCF818209B
:101E000022F4704242EA013123F0A00242EA0E12AB
:101E1000CCF81810CCF82020DCF808104FF68872A7
:101E2000CFF6CF721140673114E000BF4021C0F2FD
:101E300010018B4204D07021C0F210018B4261D19D
:101E4000DCF808104FF68872CFF6CF7211401943B4
:101E500041F00701CCF808100022012180F83D1064
:101E6000002180F83C10BDE880401046704700BF5C
:101E7000D1E901E3C968DCF8082043EA0E0322F443
:101E80007F4243EA01211143CCF80810DCF8081026
:101E900041F07701DEE700BFD1E901E3C968DCF872
:101EA000082043EA0E0322F47F4243EA0121114352
:101EB000CCF80810DCF8081041F48041CAE700BFF4
:101EC000D1F804E0C968DCF82030DCF8202022F0EA
:101ED0000102CCF82020DCF8182022F0F00242EABF
:101EE000011123F00A0242EA0E02CCF81810CCF8D5
:101EF0002020DCF808104FF68872CFF6CF72114020
:101F00005731A7E70122A8E7002804BF0120704746
:101F10002DE9F047044690F83D000D4628B9002011
:101F200084F83C00204600F04BF8022084F83D0085
:101F300020684BF6F8728168CFF6FE72114081601E
:101F4000211D00F005FF20684FF6FF788168826947
:101F5000D0F820C0D5E9003ED5E9026A43EA01097C
:101F6000AB6922EA080246EA03234FF6FC46B34374
:101F7000D5E9076742EA0A0229691A4342EA0622BA
:101F800042EA01112CF0AA026B6942EA0E0241EA10
:101F9000073142EA0312C0F8089081610262012011
:101FA00084F8480084F83E0084F83F0084F8440038
:101FB00084F8450084F83D000020BDE8F08700006B
:101FC0007047000090F83C30012B04BF022070479E
:101FD0004FEAB202032A2DD8F0B5DFE802F0033150
:101FE0004F6F00BF0368D1E900C5D1F80CE01C6A4F
:101FF0001A6A42F6FF3722F001021A621A4652F8B4
:10200000186FC4F20107BB4200F37E80B3F1804F2A
:1020100000F08C8040F20047C4F20007BB4200F0A1
:10202000858040F60007C4F20007BB4200F07E80C6
:1020300098E000BF0121002280F83C20084670474C
:102040000368D1E900E6D1E902C11C6A1A6A3602C6
:1020500022F010021A621A4652F8185F4FF2FF0778
:10206000BE4325F4734561F30F3624F0A0040EF04F
:102070000A0746EA050144EA07173CE00768D1E988
:1020800000C5D1E902313C6A3A6A61F3071522F4CE
:1020900080723A623A4652F81C6F26F0F30645EA1F
:1020A000060124F420660CF00A0546EA05261160B4
:1020B0003E62116821F00C01116048E00368D1E92B
:1020C00000E6D1E902C11C6A1A6A360222F4805283
:1020D0001A621A4652F81C5F4FF2FF07BE4325F4FE
:1020E000734561F30F3624F420440EF00A0746EAE4
:1020F000050144EA073711601F6211684FEA0C239B
:1021000021F44061116022E042F60047C4F2010769
:10211000BB420BD044F20007C4F20107BB4205D01A
:1021200043F20047C4F20107BB421BD126F003066D
:10213000354324F00A070CF00A066EF307153744FE
:102140009D611F629F6927F00C079F618B68116872
:10215000194311600021BDE8F040002280F83C20C6
:102160000846704746F00105E3E70000002804BF79
:102170000120704710B5044690F83D0028B90020B2
:1021800084F83C00204600F023F8022084F83D004B
:102190002068211D00F0DCFD012084F8480084F84F
:1021A0003E0084F83F0084F8400084F8410084F841
:1021B000420084F8430084F8440084F8450084F821
:1021C000460084F8470084F83D00002010BD000060
:1021D000006840F20041C4F20001884218BF704715
:1021E00070B586B041F24C00C4F20200C16801AC87
:1021F00041F00201C160C168022501F002010191B4
:1022000001990168002641F001010160016801F0B7
:10221000010101910199016841F00201016000682A
:10222000214600F0020001900198C02001904FF07B
:1022300090400295CDE903660595FEF7F9FB012074
:1022400001A961C140F20040C4F600002146CDE979
:102250000465FEF7EDFB06B0BDE870407047000076
:10226000006842F60041C4F20101884218BF70477D
:102270002DE9F04186B041F24C00C4F20200016841
:1022800040F2004441F0020101600168C4F600041C
:1022900001F0020101910199016801AD41F00101D4
:1022A00001600068022600F00100019001984FF4DF
:1022B000C040019000274FF00608204629460296AC
:1022C000CDE90376CDF81480FEF7B2FB4FF4004061
:1022D00001A9C1C104200590204629460496FEF7B5
:1022E000A7FB4FF4E06001A9C1C14FF0904029461F
:1022F000CDE90468FEF79CFB06B0BDE8F0417047ED
:1023000090F83C30012B04BF022070474FEAB20224
:10231000052A00F25381F0B5DFE812F0060046000E
:102320008E00D6001E0156010268146A136AA2F1DB
:10233000804523F001031362A5F596359605536891
:10234000D2F818C046EA95258E68D1F800E024F04E
:102350000204072D44EA06040AD80126AE4016F00E
:10236000E50F1FBFCE6824F00C0426F004063443AA
:10237000072D0BD8012606FA05F515F0E50F1FBF4E
:10238000D1E9055623F440732B4333434FF68C7544
:10239000CFF6FE750CEA050646EA0E065360966116
:1023A00049685163146241E1026843F20045146ACE
:1023B000136AC4F2010523F0100313625368D2F8C4
:1023C00018C0AA428D68D1F800E024F0200444EA45
:1023D000051405D042F60045C4F20105AA4207D112
:1023E000CD686FF0400624F0C00406EA05152C43C2
:1023F000A2F18045A5F59635960546EA9525072D67
:102400000CD8012606FA05F515F0E50F1FBFD1E936
:10241000055623F44063354343EA850348F6FF45F8
:10242000CFF6FF650CEA050646EA0E265360966174
:10243000496891631462F9E0026843F20045146A46
:10244000136AC4F2010523F4807313625368D2F84F
:102450001CC0AA428D68D1F800E024F4007444EA5C
:10246000052405D042F60045C4F20105AA4207D171
:10247000CD6840F2FF462D0224F44064B5432C435E
:10248000A2F18045A5F59635960546EA9525072DD6
:102490000CD8012606FA05F515F0E50F1FBFD1E9A6
:1024A000055623F44053354343EA05134FF68C7524
:1024B000CFF6FE750CEA050646EA0E065360D661B5
:1024C0004968D1631462B1E0026843F20045146ABE
:1024D000136AC4F2010523F4805313625368D2F8DF
:1024E0001CC0AA428D68D1F800E024F4005444EAEC
:1024F000053405D042F60045C4F20105AA4207D1D1
:10250000CD6844F6FF762D0324F44044B5432C43B4
:10251000A2F18045A5F59635960546EA9525072D45
:102520000CD8012606FA05F515F0E50F1FBFD1E915
:10253000055623F44043354343EA851348F6FF45E7
:10254000CFF6FF650CEA050646EA0E265360D66113
:1025500049681164146269E00268D2F820C0136A05
:10256000A2F1804623F480331362A6F596369705D0
:102570005368146D0D68D1F808E047EA9626072ED7
:102580000AD8012707FA06F616F0E50F1EBF4E69B6
:1025900023F4803343EA06234FF68C76CFF6FE769B
:1025A0000336344044EA0506536016652CF40037C0
:1025B000496847EA0E43916437E000BF01210022D9
:1025C00080F83C20084670470268D2F820C0136AA1
:1025D000A2F1804623F480131362A6F59636970580
:1025E0005368156D0C68D1F808E047EA9626072E67
:1025F0000AD8012707FA06F616F0E50F1EBF4E6946
:1026000023F4802343EA862348F6FF46CFF6FF668D
:1026100006F54076354045EA04265360166549685C
:102620002CF4001747EA0E53D16413620021BDE871
:10263000F040002280F83C2008467047002804BF84
:102640000120704710B5044690F83D0028B90020DD
:1026500084F83C00204600F023F8022084F83D0076
:102660002068211D00F074FB012084F8480084F8E4
:102670003E0084F83F0084F8400084F8410084F86C
:10268000420084F8430084F8440084F8450084F84C
:10269000460084F8470084F83D00002010BD00008B
:1026A0007047000090F88410012904BF0220704791
:1026B0002421C0F8881002681168136823F0010310
:1026C000136021F000530021416613602022C0F8FE
:1026D000882080F8841008467047000090F8842015
:1026E000012A04BF02207047B0B52422C0F8882018
:1026F0000268D0F864E0D2F800C01368BEF1000FA1
:1027000023F001031360936823F0606341EA03013F
:10271000916019D09368916843F2847E490FC0F6A6
:10272000000E43F28C751EF80140C0F60005695C8E
:10273000C3F34263E400B4FBF1F11EF80340EB5C29
:10274000E500B5FBF3F301E001210123A0F86A10D5
:102750002021A0F86830C2F800C0C0F8881000211D
:1027600080F88410BDE8B0400846704790F8842097
:10277000012A04BF02207047B0B52422C0F8882087
:102780000268D0F864E0D2F800C01368BEF1000F10
:1027900023F001031360936823F0604341EA0301CF
:1027A000916019D09368916843F2847E490FC0F616
:1027B000000E43F28C751EF80140C0F60005695CFE
:1027C000C3F34263E400B4FBF1F11EF80340EB5C99
:1027D000E500B5FBF3F301E001210123A0F86A1045
:1027E0002021A0F86830C2F800C0C0F8881000218D
:1027F00080F88410BDE8B0400846704710B5D0B1ED
:102800000446D0F8880028B9002084F884002046C7
:1028100000F026F82420C4F888002068A16A026825
:1028200022F00102026011B1204600F023FB204695
:1028300000F04EFC10B1012010BD00BF21684868B7
:1028400020F490404860886820F02A00886008687A
:1028500040F0010220460A60BDE8104000F080BB55
:1028600010B596B00446684608303C21FDF708FDD7
:10287000206843F60001C4F20101884202D016B07C
:1028800010BD00BF01200090002468460194FEF7AF
:10289000E3FA002818BFFDF739FD41F24C00C4F2FD
:1028A0000200416941F480414161416901F4804184
:1028B00011911199016841F002010160006811A9AC
:1028C00000F0020011901198C02011900220CDE973
:1028D00012040720159040F20040C4F60000149442
:1028E000FEF7A6F816B010BDFEE7000010B58CB0DC
:1028F00040F21000C2F200004FF0A04100244FF45B
:102900004032042380E816000121CDE90A44CDE9D4
:102910000744CDE90544CDE90344CDE90144C0E9CC
:102920000344C0E905438483016280F82440C0E980
:102930000B4480F83840C46380F84040FDF716FF30
:10294000002818BFFDF7E2FC40F21000C2F20000C0
:1029500009A90994FDF7E0FC002818BFFDF7D6FC93
:102960000220C0F23040019006207F21029000201A
:10297000049104210390CDE9051040F21000C2F249
:10298000000001A9FDF724FD002818BFFDF7BEFCDB
:102990000CB010BD2DE9F04387B0002641F24C0089
:1029A000CDE90566C4F20200016840F2004441F03E
:1029B000200101600168C4F6000401F020010191CA
:1029C00001990168002241F00101016001684FF4A2
:1029D000805801F0010101910199016841F0020163
:1029E000016000684FF4805100F0020001900198EE
:1029F0002046FEF7EDF84FF090404FF400610022C2
:102A00004FF40069FEF7E4F84FF090404FF40041B6
:102A100001220127FEF7DCF8102002A902ADC1C196
:102A20004FF090402946FEF703F820462946CDE9AD
:102A300002960496FDF7FCFF20462946CDE9028761
:102A4000CDE90476FDF7F4FF4FF40840CDE9020725
:102A50004FF090402946CDE90466FDF7E9FF07B045
:102A6000BDE8F08310B540F27C0043F20001C2F2F1
:102A70000000C4F201014FF4827200234FF4407C45
:102A80004FF4007E082480E80E100721C0E90433CB
:102A9000C0E906E4C0E90833C0E90A31C0E90C34F2
:102AA000FEF76EFF002808BF10BDBDE81040FDF71F
:102AB0002DBC000010B59CB0002401A834211B944B
:102AC000CDE91944CDE91644CDE91444CDE91244C9
:102AD000CDE91044CDE90E44FDF7D2FB40F2E00011
:102AE00042F60041C2F20000C4F201014FF6FF724B
:102AF000C0E90014C0E90242C0E904448461FFF760
:102B0000B7F8002818BFFDF701FC4FF4805018906B
:102B100040F2E000C2F2000018A9FFF7F3F8002825
:102B200018BFFDF7F3FB40F2E000C2F20000FFF730
:102B300085FD002818BFFDF7E9FB40F2E000002406
:102B4000C2F2000015A9CDE915441794FFF73CF82F
:102B5000002818BFFDF7DAFB40F2E000C2F20000E7
:102B60000EA900221494CDE91244CDE91044CDE918
:102B70000E44FFF7C5FB002818BFFDF7C7FB40F266
:102B8000E000C2F200000EA90422FFF7B9FB002802
:102B900018BFFDF7BBFB40F2E000C2F200000EA937
:102BA0000822FFF7ADFB002818BFFDF7AFFB0020A0
:102BB0004FF40051CDE906104FF000710590CDE9BA
:102BC0000300CDE90100CDE90800CDE90A10CDE907
:102BD0000C0040F2E000C2F2000001A9FEF78CFFF9
:102BE000002818BFFDF792FB40F2E000C2F200009F
:102BF000FFF736FB1CB010BD10B590B040F22C10A2
:102C000040F200410024C2F20000C4F200014FF67D
:102C1000FF720694CDE90444CDE90244CDE90044B5
:102C2000C0E90014C0E9024204618461FFF79EFA22
:102C3000002818BFFDF76AFB0120CDE90704CDE9A4
:102C40000904CDE90D0440F22C10C2F2000007A9DE
:102C5000CDE90B440F94FFF757F9002818BFFDF793
:102C600055FB40F22C100024C2F2000004A9049489
:102C70000694FEF7A9FF002818BFFDF747FB0120C7
:102C8000CDE9010440F22C10C2F20000694608228E
:102C900000940394FFF796F9002818BFFDF736FB60
:102CA00010B010BD80B540F2781043F60001C2F2BA
:102CB0000000C4F2010100234FF00C0C4FF4E1328C
:102CC00080E80E00C0E90333C0E905C3C0E907335B
:102CD000C0E90933FFF792FD002818BFFDF716FB86
:102CE00040F27810C2F200000021FFF73FFD0028FB
:102CF00018BFFDF70BFB40F27810C2F20000002174
:102D0000FFF7ECFC002818BFFDF700FB40F278103D
:102D1000C2F20000FFF7C6FC002808BF80BDBDE876
:102D20008040FDF7F3BA0000FEE70000FEE7000078
:102D30007047000070470000FDF756BF4EF6885000
:102D4000CEF20000016841F470010160704700009C
:102D500040F2FF7C0268C4F2000C604522DD40F6C0
:102D60000003C4F20003984225D043F20043C4F2AA
:102D7000010398421FD042F60043C4F20103984277
:102D800019D043F2FF33C4F2010398421DDC6045C1
:102D90002ADCB0F1804F3DD040F20043C4F2000382
:102DA00036E000BFB0F1804F05D040F20043C4F2DE
:102DB00000039842E5D14B6822F070021A4343F2B7
:102DC000FF33C4F201039842E1DD44F2FF33C4F261
:102DD0000103984212DC43F20043C4F2010398421B
:102DE00018D044F2000311E040F60003C4F20003DF
:102DF00098420FD042F6004308E000BF44F60003BB
:102E0000C4F20103984205D044F20043C4F2010326
:102E1000984203D1CB6822F440721A4380B54B69C3
:102E200022F0800E8A6843EA0E03D1F800C00360E6
:102E3000C262A0F18042A2F59632830543EA922253
:102E4000072AC0F828C0BDE8804007D8012303FA4C
:102E500002F212F0E50F1CBF096901630121416113
:102E60000169C90708BF7047016921F001010161CB
:102E700070470000816A0A070ED4CA0717D18A0773
:102E800020D44A0729D4CA0632D48A063BD480B556
:102E90004A0644D458E000BF0268D0F838C05368EE
:102EA00023F4004343EA0C035360CA07E7D00268E7
:102EB000D0F82CC0536823F4003343EA0C0353606A
:102EC0008A07DED50268D0F830C0536823F4803317
:102ED00043EA0C0353604A07D5D50268D0F834C0E2
:102EE000536823F4802343EA0C035360CA06CCD50D
:102EF0000268D0F83CC0936823F4805343EA0C0383
:102F000093608A06C3D50268D0F840C0936823F462
:102F1000005343EA0C03936080B54A0614D5026857
:102F2000D0F844C05368BCF5801F23F4801343EAF3
:102F30000C03536008D1D2F804C0D0F848E02CF458
:102F4000C00343EA0E035360090658BF80BD016801
:102F5000C06C4A6822F400221043486080BD000023
:102F6000B0B582B004460020C4F89000FDF736FEEC
:102F7000216805460A68120737D56FF07E4C204657
:102F80004FF4001100222B46CDF800C000F0ECF900
:102F900050B300BF206850E8000F216820F0800087
:102FA00041E80002DAB1206850E8000F216820F003
:102FB000800041E8000292B1206850E8000F2168CB
:102FC00020F0800041E800024AB1206850E8000F7C
:102FD000216820F0800041E80002002ADAD1202098
:102FE000C4F8880060E000BF21680868400761D528
:102FF0006FF07E4C20464FF4800100222B46CDF826
:1030000000C000F0B1F9002854D000BF206850E89B
:10301000000F216820F4907041E80002E2B12068BE
:1030200050E8000F216820F4907041E800029AB146
:10303000206850E8000F216820F4907041E80002F9
:1030400052B1206850E8000F216820F4907041E8E8
:103050000002002ADAD100BF206850E8020F216880
:1030600020F0010041E80202DAB1206850E8020FC6
:10307000216820F0010041E8020292B1206850E886
:10308000020F216820F0010041E802024AB12068E5
:1030900050E8020F216820F0010041E80202002AF6
:1030A000DAD12020C4F88C000320002184F8841099
:1030B00002B0B0BD2020C4F88800C4F88C00002005
:1030C000E0662067002184F8841002B0B0BD0000E3
:1030D00070B5054605F108041ECC0068194341EAA5
:1030E0000403EE69046846F6F311CCF6FF71214043
:1030F000194331430160416848F2000C21F440510A
:1031000011434160AA69C4F2000C60451CBF296AE2
:103110000A4381684FF2FF43C1F2FF131940114384
:103120008160C16AD5F824E021F00F0141EA0E0167
:10313000C16244F6FF31C4F2000188424FF010032F
:1031400014DD44F60041C4F20001884222D06045FB
:1031500028D043F60001C4F20101884238D141F27F
:103160008801C4F202010B687BA22DE044F2004109
:10317000C4F2000188421DD044F60001C4F20001EF
:10318000884225D141F28801C4F2020109680B0985
:1031900016E000BF41F28801C4F2020109688B0900
:1031A0000EE000BF41F28801C4F2020109688B0AF7
:1031B00006E000BF41F28801C4F2020109688B08F1
:1031C00043F27472C0F6000203F0030152F821309A
:1031D000604542F20040C0F2F40015D0B6F5004F51
:1031E00022D1082B4FF0010100F2AD80DFE803F09F
:1031F000065C6AAB60ABABAB680000BFFEF7E8F8FB
:10320000002840F059809AE0082B4FF0010100F2AD
:103210009A80DFE803F0059825981B98989823007A
:10322000FEF7D6F8B0B98AE0082B4FF0010100F2A2
:103230008A80DFE803F005636F88678888886D00FF
:10324000FEF7C6F8002860D179E000BFFEF7ECF881
:10325000002874D0D5F824E002E000BF4FF400400D
:1032600043F25C71C0F6000131F81E106A68B0FBD1
:10327000F1F002EB420188424FF0010163D31303E6
:10328000984260D8010E000210EB520041F100019B
:103290000023FCF7BDFF4FF60052A0F54071C0F2CD
:1032A0000F02914249D34DE0FEF7A8F820B946E05D
:1032B000FEF7BAF8002842D0D5F824E002E000BFBB
:1032C0004FF4004043F25C71C0F6000131F81E106B
:1032D0006A68B0FBF1F0510801EB4000B0FBF2F07E
:1032E0004FF6EF72A0F1100191422BD84FF6F0711A
:1032F0000140C0F3420008441FE000BFFEF77EF823
:1033000018B91CE0FEF790F8C8B1D5F824E001E048
:103310004FF4004043F25C71C0F6000131F81E101A
:103320004FF6EF72B0FBF1F0696800EB5100B0FBB3
:10333000F1F0A0F11001914204D82968C860002181
:1033400001E000BF01214FF00110A86600220846ED
:103350006A67AA6770BD00BF01000000040000009A
:1033600002000000080000002DE9F04180460068DE
:103370001546C2690E461140891BB1FA81F149090F
:10338000A94223D1069C2CB3611C29D1C1693140CB
:10339000891BB1FA81F14909A94217D1C1693140AC
:1033A000891BB1FA81F14909A9420FD1C1693140A4
:1033B000891BB1FA81F14909A94207D1C16931409C
:1033C000891BB1FA81F14909A942DFD00020BDE88B
:1033D000F08100BFFDF702FC0320BDE8F08100BFD3
:1033E0001F4607E0C0693040801BB0FA80F04009FA
:1033F000A842EBD1FDF7F2FBC01BA04200F2AE8069
:10340000D8F8000001684907ECD5402EEAD0802E9C
:10341000E8D0C169090700F1A580C1690905E1D5B6
:103420004FF400610162D8F8000050E8000FD8F8AE
:10343000001020F4907041E800020AB3D8F80000B0
:1034400050E8000FD8F8001020F4907041E8000216
:10345000B2B1D8F8000050E8000FD8F8001020F4FE
:10346000907041E800025AB1D8F8000050E8000F0F
:10347000D8F8001020F4907041E80002002AD2D160
:103480004FF6FE70CEF6FF70D8F8001051E8021F1C
:10349000D8F80020014042E80213F3B1D8F8001038
:1034A00051E8021FD8F80020014042E80213A3B1FE
:1034B000D8F8001051E8021FD8F80020014042E877
:1034C000021353B1D8F8001051E8021FD8F80020B9
:1034D000014042E80213002BD6D1D8F86C00012835
:1034E0002CD1D8F8000050E8000FD8F8001020F0D8
:1034F000100041E800020AB3D8F8000050E8000FBD
:10350000D8F8001020F0100041E80002B2B1D8F85D
:10351000000050E8000FD8F8001020F0100041E83B
:1035200000025AB1D8F8000050E8000FD8F8001097
:1035300020F0100041E80002002AD2D12020002112
:10354000C8F88C00C8F86C10C8F87410C8F890005F
:10355000032088F88410BDE8F08100BF0320BDE897
:10356000F08100BF08210162D8F8000050E8000F88
:10357000D8F8001020F4907041E800020AB3D8F89F
:10358000000050E8000FD8F8001020F4907041E8D7
:103590000002B2B1D8F8000050E8000FD8F80010CF
:1035A00020F4907041E800025AB1D8F8000050E8C9
:1035B000000FD8F8001020F4907041E80002002AB3
:1035C000D2D14FF6FE70CEF6FF70D8F8001051E859
:1035D000021FD8F80020014042E80213F3B1D8F8E6
:1035E000001051E8021FD8F80020014042E8021301
:1035F000A3B1D8F8001051E8021FD8F8002001400C
:1036000042E8021353B1D8F8001051E8021FD8F86D
:103610000020014042E80213002BD6D1D8F86C00FC
:1036200001282CD1D8F8000050E8000FD8F800107D
:1036300020F0100041E800020AB3D8F8000050E87A
:10364000000FD8F8001020F0100041E80002B2B1DD
:10365000D8F8000050E8000FD8F8001020F0100053
:1036600041E800025AB1D8F8000050E8000FD8F83D
:10367000001020F0100041E80002002AD2D12020E2
:10368000C8F88C0000200821C8F86C00C8F8740045
:10369000C8F8901088F884000120BDE8F08100008F
:1036A000FEE7000094B0FDF7ADFA002400200C9472
:1036B000CDE90A44CDE90844FDF730FB012006902E
:1036C0004FF4803007900220032555210D90CDE95D
:1036D0000E50CDE91010CDE9120006A8FDF7E6FE68
:1036E00020B1EFF3108072B6FEE700BF0F20CDE9E6
:1036F000010501A80421CDE903440594FDF7E2FC8E
:1037000020B1EFF3108072B6FEE700BFFFF742F979
:10371000FFF7ECF8FFF7A6F9FFF7CCF9FFF76CFA23
:10372000FFF7C0FAFEE702E008C8121F08C1002A2E
:10373000FAD170477047002001E001C1121F002A32
:10374000FBD17047000000000000000001020304EC
:10375000060708090000000001020304010002003E
:103760000400060008000A000C00100020004000C1
:1037700080000001000000000400000002000000C2
:103780000800000001010103070100000804020411
:1037900008010101B83700080000002010000000F7
:1037A00026370008C8370008100000200006000077
:1037B0003637000800000000100000000100000083
:0837C0000024F40000000000E9
:04000005080001D915
:00000001FF
