:020000040800F2
:10000000E0080020ED010008D94D00082547000850
:10001000D54D0008F90900089957000800000000B4
:10002000000000000000000000000000E14D00089A
:10003000210A000800000000DD4D0008E54D000821
:10004000070200080702000807020008070200086C
:100050000702000807020008250A00080702000836
:1000600007020008070200082D0A0008FD09000821
:10007000090A0008150A000807020008070200081C
:10008000070200080000000007020008070200083D
:10009000070200080702000807020008070200081C
:1000A00007020008FD4D00080702000807020008CB
:1000B00007020008094E00080702000807020008AE
:1000C00007020008070200080702000807020008EC
:1000D000070200088D570008070200080702000801
:1000E00007020008070200080702000807020008CC
:1000F00007020008070200080702000800000000CD
:1001000000000000070200080000000007020008CD
:100110000702000800000000154E0008214E0008EC
:10012000070200080702000807020008070200088B
:10013000070200080000000000000000070200089D
:10014000070200080702000800000000000000008D
:10015000000000000000000000000000000000009F
:10016000000000000000000000000000070200087E
:10017000070200080000000000000000000000006E
:10018000000000000702000800000000000000005E
:10019000000000000000000000000000000000005F
:1001A000000000000000000007020008070200082D
:1001B000070200080702000807020008000000000C
:1001C000000000000702000800000000000000001E
:1001D0000702000807020008DFF80CD000F01EFB41
:1001E0000048004729580008E008002006488047DA
:1001F00006480047FEE7FEE7FEE7FEE7FEE7FEE70C
:10020000FEE7FEE7FEE7FEE7E94D0008D90100083A
:100210002DE9F05F0546002092469B46884606463B
:10022000814640241BE0284641464746224600F0CE
:100230009FF953465A46C01A914110D311461846A9
:10024000224600F086F92D1A67EB01084F46224638
:100250000120002100F07DF917EB00094E41201E1E
:10026000A4F10104DFDC484631462A464346BDE896
:10027000F09FD2B201E000F8012B491EFBD270477B
:100280000022F6E710B513460A4604461946FFF762
:10029000F0FF204610BD2DE9FE4F804681EA0300A5
:1002A000C00F0C46009021F0004123F00045B8EB50
:1002B0000200A94105D24046214690461C460B4605
:1002C000024623F00040104347D0270DC7F30A0031
:1002D000C3F30A510290401A019040286BDAC3F32D
:1002E000130040F4801B0098924620B10023D2EB0B
:1002F000030A63EB0B0B01985946C0F140025046CC
:1003000000F027F906460D4650465946019A00F07E
:100310003FF910EB08006141002487EA115284EA9A
:10032000E7731A4340D0009A62B3019A012A4FEA58
:10033000075215DC001B61EB02014FF0004202EA9C
:100340000752CDE90042001C41F5801132462B4690
:1003500000F076F903B0BDE8F08F40462146F9E79A
:10036000001B61EB0201001C41F5801300185B418A
:100370002018A2F5001747EB030140EAD570B61923
:100380006D4111E06D084FEA360645EAC0754FEA47
:100390000752001B61EB0201001C41F58011490866
:1003A0004FEA30000019514132462B4603B0BDE8F8
:1003B000F04F00F036B90098012240000023D0EB46
:1003C000020263EBE073009821464FEAE074B8EB59
:1003D000000061EB0401E9E783F000435BE781F093
:1003E000004158E72DE9FE4F81EA030404F0004480
:1003F00021F0004100944FF0000B23F0004350EA3D
:1004000001045ED052EA03045BD0C3F30A54C1F383
:100410000A552C44A4F2F3340194A0FB0254C1F316
:10042000130141F48011C3F3130343F4801301FB60
:10043000024400FB034E840A970A44EA815447EAC7
:100440008357A4FB076802958D0A05FB07854FEAD1
:10045000932C04FB0C542705029D4FEA065847EAEB
:100460001637B5EB08056EEB070C870E920E47EAC0
:10047000811742EA8312A7FB0201B6EB0B0164EB82
:1004800000042B0D43EA0C335E1844EB1C50DA4693
:100490005146E7FB0201C5F313044FEA0B3343EA6D
:1004A00014534FEA0432019C43EA0603A4F10C04FE
:1004B0000294009CCDE900B400F0C2F803B0BDE89E
:1004C000F08F00200146F9E700F0004230F00040D4
:1004D0000AD0C10D01F56071C0F3160042EA015166
:1004E000C20840071143704700200146704701F0E1
:1004F000004330B421F0004150EA010206D00A0D59
:10050000A2F56072C1F31301002A02DC30BC0020A6
:100510007047440F44EAC104C100E01830BC00EB4E
:10052000C25000F047B830B50B46014600202022EB
:10053000012409E021FA02F59D4205D303FA02F5F0
:10054000491B04FA02F52844151EA2F10102F1DC50
:1005500030BD202A04DB203A00FA02F10020704767
:100560009140C2F1200320FA03F3194390407047F1
:10057000202A04DB203A21FA02F00021704721FAF8
:1005800002F3D040C2F1200291400843194670475F
:10059000202A06DBCB17203A41FA02F043EAE07347
:1005A00006E041FA02F3D040C2F120029140084334
:1005B000194670470029A8BF7047401C490008BF72
:1005C00020F00100704710B4B0FA80FC00FA0CF083
:1005D00050EA010404BF10BC704749B1CCF12004BB
:1005E00021FA04F411FA0CF118BF01212143084348
:1005F000A3EB0C01CB1D4FEA00614FEA102042BF74
:10060000002010BC704700EBC35010440029A4BF69
:1006100010BC7047401C490008BF20F0010010BC0E
:10062000704710B5141E73F1000408DA401C41F144
:10063000000192185B411A4301D120F0010010BD66
:100640002DE9F04D92469B4611B1B1FA81F202E0DC
:10065000B0FA80F220329046FFF77BFF04460F4647
:1006600040EA0A0041EA0B0153465A46084313D0B8
:10067000114653EA010019D0C8F140025046FFF775
:1006800077FF05460E46504659464246FFF761FF42
:10069000084305D0012004E020463946BDE8F08D2E
:1006A0000020054346EAE0762C4337430A98630569
:1006B000E40AA0EB08000022FD0A44EA47540A308D
:1006C00002D500200146E9E7010510196941DDE97D
:1006D000084500196941BDE8F04DA2E72DE9F04D4C
:1006E00081EA030404F0004B21F0004514464FF06A
:1006F000000A23F0004150EA050220D054EA01022A
:100700001DD0C5F30A570246C5F31303C1F3130006
:10071000C1F30A5640F4801543F48013A7EB060892
:10072000101BD64608F2FD3873EB050002D308F122
:10073000010801E092185B41B8F1000F03DA0020D4
:100740000146BDE8F08D00204FF480110646844636
:100750000EE0171B73EB050705D3121B63EB0503B4
:1007600006434CEA010C49084FEA300092185B41FD
:1007700050EA0107EDD152EA030012D082EA0400E8
:1007800083EA0501084305D0101BAB4106D20122C4
:10079000002306E000224FF0004302E06FF0010268
:1007A00053101AEB06004CEB085110EB0A0041EB1A
:1007B0000B01BDE8F04DFFF734BFC1F30A52C1F39E
:1007C000130140F2FF3341F480119A4202DA002013
:1007D0000146704740F233439A42A2F2334202DCB0
:1007E0005242FFF7C5BEFFF7B4BE000030B5041E8D
:1007F00071F1000404DB4FF00044404264EB01015E
:10080000141E73F1000405DB1C464FF000435242F6
:1008100063EB0403994208BF904230BD1CB5094800
:100820000090094801900546009C06E0E06840F011
:10083000010394E8070098471034AC42F6D3FFF761
:10084000CFFC000058700008787000080EB5C10F8A
:1008500080EAE0700844CA07002140F233438DE883
:100860000E000A460B46FFF7EBFE03B000BD0EB5C7
:1008700040F2334102910021CDE900110A460B46B6
:10088000FFF7DEFE03B000BD70B5C1F30A5201F000
:1008900000450024C1F3130140F2FF3341F48011FD
:1008A0009A4201DA002070BD40F233439A42A2F22C
:1008B000334203DC5242FFF75BFE00E090402C43E2
:1008C000F1D0404270BD000070B582B004460020F7
:1008D000019021688A68D20711D14FF6C076C7F619
:1008E000FF76886806F17F0210420BD0E06D40F081
:1008F0001000E065206E40F001002066012002B08B
:1009000070BD00BF8868304040F00100886040F250
:100910000830C5F200000068000221D401F0AAF9F5
:1009200021680A68D20717D1054602E00868C007A7
:1009300012D18868C00704D18868304040F00100B7
:10094000886001F097F9401B21680328EED30868FE
:10095000C007EBD1CAE700BF002002B070BD00BFE6
:1009600040F21000C2F20000006842F663518009B4
:10097000C0F23E51A0FB0101880900EB40000C21B0
:1009800001EB8000019001980028C7D00198013840
:10099000019001980028C1D0019801380190019878
:1009A0000028BBD001980138019001980028B5D0EB
:1009B00001980138019001980028E7D1AEE70000C6
:1009C00040F2D811C2F2000101604FF09041816005
:1009D0004FF4004201618161802182814022818344
:1009E00040F2004100238282C4F60001838020305F
:1009F00001220EC070470000FEE7000040F2B80080
:100A0000C2F2000000F016BF40F27810C2F20000FF
:100A100000F010BF40F21810C2F2000000F00ABF50
:100A200070470000012001F035B80000102001F0EF
:100A300031B80000EFF3108072B600BFFEE700008F
:100A40002DE9F04181B00022009290F85820012A4F
:100A500006D14FF0020C604601B0BDE8F08100BF46
:100A60004269012380F8583012B10D6A012D21D15D
:100A70004A68092A1AD10A688B6A4FF4785606EA3E
:100A8000524223B1CE6A03F07C0333431A43D0F8B9
:100A9000008044F20005D8F84C60C0F210452E40AA
:100AA0001643C8F84C6042662EE000BFD0F80080C4
:100AB0002AE000BF846E1CB1436E00220AE000BF32
:100AC0008B6A6A1E23B1CE6A03F07C0333431A4358
:100AD00000232C46D1E90065D0F8008005F01F0501
:100AE000C6F38466AE403243661E42EA0302C0E9A2
:100AF000192609D1D8F84C6044F20005C0F210451F
:100B00002E403243C8F84C20D8F80820120714D4DD
:100B1000D8F80C2091F8256091F8265022F4401264
:100B20004FEA455516B12A4305E000BF91F824600D
:100B300042EA06522A43C8F80C20D8F80820D8F810
:100B4000086002F0040206F00806921916D18A6ABB
:100B5000C2B1CA6AB2B191F82520012A1CD1C26D76
:100B60004FF0010C42F02002C26591F83060D8F8D5
:100B70001020012E1ED022F0020223E04FF0000CC4
:100B8000E9E000BF91F82560D8F80C20012E05D1CE
:100B900042F0007204E000BFD8F80C2022F000728E
:100BA0004FF0000CC8F80C2091F83060D8F81020F5
:100BB000012EE0D1D1E90D6522F4FF7232432A43C0
:100BC00042F00202C8F810200D68042608F1140251
:100BD00006EAD55EC5F340668C6852F82660C5F318
:100BE00004550727AF40B4F1004F26EA070605D1A8
:100BF00042F80E60126842F0004206E0AC40344316
:100C000042F80E40126822F00042C8F81420D1E9E0
:100C10000425D8F80C60042A70D1D8F86020D8F8E0
:100C200060200C68C2F3846694FAA4F52246B5FAF3
:100C300085F5C4F3846E6FF3DF422C46002A08BFAB
:100C40007446A6424FF6FF74C0F207040ED1D8F8DE
:100C5000602022F00042C8F860200D6805EA040216
:100C6000C5F3846E95FAA5F5B5FA85F5D8F86460F4
:100C7000D8F86460002AC6F384662F4608BF77461A
:100C8000BE420ED1D8F8642022F00042C8F8642099
:100C90000D6805EA0402C5F3846E95FAA5F5B5FA68
:100CA00085F5D8F86860D8F86860002AC6F38466CD
:100CB0002F4608BF7746BE420ED1D8F8682022F0F2
:100CC0000042C8F868200D6805EA040295FAA5F408
:100CD000C5F3846EB4FA84F5D8F86C40D8F86C404B
:100CE000002AC4F3846408BF7546AC4233D1D8F8F7
:100CF0006C2022F00042C8F86C202CE0062707EA9E
:100D0000960705FA07FE0E6808F1600555F82240BF
:100D10004FF20007C0F2FF3706F0F8463C404EEABB
:100D20000607274347F0004745F822700A698F6994
:100D300055F8226026F08076374345F822700A691C
:100D40000F7F55F82260012F26F0007608BF06F1CC
:100D5000007645F82260D8F808200D68D2074ED1F9
:100D6000CF684FF6FF73D8F8B0602A4607F0180432
:100D7000C0F207036FF3DF42E34096432B40334357
:100D80000026C4F27F06B742C8F8B03037D18AB126
:100D900095FAA5F2B2FA82F2013202F01E03092B93
:100DA00002F01F020FD80123934002EB420243EAF4
:100DB000025214E0012202EB956202F01E030A2B9C
:100DC00002F01F02EFD301230027934002EB4202FF
:100DD000CFF6206707EB02521A4342F00072C2F3CB
:100DE000406708EB87078B687E69C2F304520725CA
:100DF0009540AE4303FA02F232437A610D68002156
:100E0000C8F208010D4216D040F20831C5F20001C7
:100E10000C680022CCF22132954204F0E07204D03A
:100E20001023C9F2C0039D420CD1B8F1A04F08BFF6
:100E300014F4000316D0002180F85810604601B069
:100E4000BDE8F0810023CCF252739D4242D10023D1
:100E5000B3EB126F3ED1A1F502739845EBD04FF082
:100E6000807345E00B6823F0E0731A4342F40002FC
:100E70000A6040F21001C2F20001096842F66352B2
:100E80008909C0F23E52A1FB0212910901EB410116
:100E9000182202EB8101009100990029CBD000BFFC
:100EA00000990139009100990029C4D000990139B5
:100EB000009100990029BED0009901390091009954
:100EC0000029B8D000990139009100990029E7D193
:100ED000B1E700BFA1F502739845ACD00023CCF672
:100EE00084339D4208BF14F48003A4D14FF48003DF
:100EF0000F6827F0E0773B431A430A609BE7000046
:100F000070B540F20015C5F200050446D5F8086238
:100F100000688168090744BF022070BDC168C06CC9
:100F200010F4C07F08D1002906D4E06D40F0200005
:100F3000E065012070BD00BF94F85800012804BF8F
:100F4000022070BD012084F858002046FFF7BCFC49
:100F500020B1002184F8581070BD00BFE06D43F24D
:100F60000101C00546BF206E20F008000020206669
:100F7000E06D884300F58050E065206806F01F01B1
:100F8000A84207D131B160222A60002284F858209B
:100F90000DE000BFE26DA84222F48012E2654FF03E
:100FA000600202604FF0000284F8582007D1072940
:100FB00014D8012202FA01F111F0C10F0ED0C1685C
:100FC000890144BF002070BD81684FF6C072C7F62A
:100FD000FF72114008318160002070BDE06D40F467
:100FE0008010E065002070BD90F85820012A04BFF1
:100FF0000220704770B582B0002201920092026810
:10100000B2F1A04F30D140F208324FF6006C4FF6EB
:101010000055C5F20002CFF6FF7CCFF6FF7552F8FF
:101020000C40535923435B071ED4D1F800E01368EA
:10103000BEF1000F23F4604424D04B6890F8386070
:1010400043EA463323431360535952F80C60334349
:10105000DB0723D1136840F61F768968B343194331
:1010600041EA0E0119E000BFC16D41F02001C165E8
:101070000121002280F8582002B0BDE870400846E7
:10108000704700BF1460515952F80C301943C9071A
:1010900004D1116840F61F73994311600021E8E7FD
:1010A000F0B581B00022009290F85820012A03D1B7
:1010B0000221084601B0F0BD0123076880F85830CE
:1010C000BB685B0734D4D1E900351F26C5F3012482
:1010D00007EB8404226B05F01F05AE40C3F3846365
:1010E000B243AB401A432263BA68BB6802F0040201
:1010F00003F00803D21840F0BC800A6807F114031B
:101100000426C2F34064D1F808E006EAD25C53F842
:101110002440C2F304550722AA40BEF1004F24EA3E
:1011200002040BD143F80C401A6842F000430DE072
:10113000C16D41F02001C165012178E10EFA05F28F
:10114000224343F80C201A6822F000437B61D1E966
:101150000435FC68042B5FD13A6E3A6E0B68C2F31B
:10116000846293FAA3F6C3F3846C6FF3DF43B6FA99
:1011700086F5002B2C464FF6FF7E08BF6446A24240
:10118000C0F2070E0CD13A6E22F000423A660A68AD
:1011900002EA0E03C2F3846C92FAA2F2B2FA82F56A
:1011A0007A6E7A6E002BC2F384622C4608BF6446C6
:1011B000A2420CD17A6E22F000427A660A6802EAF4
:1011C0000E03C2F3846C92FAA2F2B2FA82F5BA6EFE
:1011D000BA6E002BC2F384622C4608BF6446A2425A
:1011E0000CD1BA6E22F00042BA660A6802EA0E0317
:1011F000C2F3846C92FAA2F2B2FA82F5FA6EFA6E37
:10120000002BC2F3846208BF6546AA4231D1FA6E50
:1012100022F00042FA662CE0062202EA940205FA65
:1012200002FC0E6807F1600555F823404FF20002FA
:10123000C0F2FF3206F0F846224046EA0C0632437E
:1012400042F0004245F823200A698B6955F8226074
:1012500026F08076334345F822300A690B7F55F833
:101260002260012B26F0007608BF06F1007645F8D3
:101270002260BA680D68D20750D1CA68D7F8B0604A
:101280002B466FF3DF4326EA030C4FF6FF7602F09E
:101290001804C0F20706E64000242E40C4F27F0482
:1012A00046EA0C06A242C7F8B06037D193B195FA6E
:1012B000A5F2B2FA82F2013202F01E03092B02F00B
:1012C0001F0310D801229A4003EB430342EA035361
:1012D00015E000BF012202EB956202F01E030A2B0B
:1012E00002F01F03EED3012200269A4003EB4303D2
:1012F000CFF6206606EB03531A4342F00073C3F3A4
:10130000406607EB86068A687569C3F304530724B1
:101310009C40A5439A402A4372610D680021C8F29F
:1013200008010D4200F0828040F2083CC5F2000C3A
:10133000DCF800400021CCF221318D4204F0E07E47
:1013400004D01021C9F2C0018D4241D1B7F1A04FA4
:101350004FF0000108BF14F4000268D1DCF800105F
:1013600042F6635221F0E07141EA0E0141F40001BE
:10137000CCF8001040F21001C2F200010968C0F27E
:101380003E528909A1FB0212910901EB41010C2295
:1013900002EB810100910099002947D000990139A1
:1013A00000910099002941D00099013900910099DC
:1013B000E1B30099013900910099B9B3009901395D
:1013C0000091009900294FF00001E7D12FE000BF04
:1013D0000021CCF252718D4210D10021B1EB1E6F71
:1013E0000CD1ACF502718F4220D0DCF8001021F056
:1013F000E07141EA0E0141F0807115E0ACF5027137
:101400008F424FF0000112D00022CCF68432954278
:1014100008BF14F480020AD1DCF8001021F0E0715A
:1014200041EA0E0141F48001CCF8001000210022B5
:1014300080F85820084601B0F0BD0000B0B582B079
:101440000446002001904CB1E06D58B121688868D5
:10145000800012D48868C00019D54CE0012002B089
:10146000B0BD00BF204600F009F90020206684F8D6
:101470005800216888688000ECD588684FF6C072F3
:10148000C5F6FF72104088608868C00033D44FF6FC
:10149000C0728868C5F6FF7202F18052104000F1F8
:1014A0008050886040F21000C2F20000006842F6EE
:1014B00063528009C0F23E52A0FB02029009022250
:1014C00002EB400001900198A8B100BF01980138DB
:1014D0000190019878B1019801380190019850B1BC
:1014E000019801380190019828B1019801380190C4
:1014F00001980028EAD18868C00009D4E06D40F066
:101500001000E065206E40F001002066012000E040
:1015100000208A68E36D02F0040203F01003D21881
:10152000E26D71D122F481720232E2658A68D207DB
:101530001AD140F2083C4FF600534FF60062C5F254
:10154000000CCFF6FF73CFF6FF725CF803305CF847
:1015500002201A43D20707D16268DCF8003023F476
:101560007C131A43CCF8002094F81DE0E36BD4E917
:1015700002C243EA4E331A4394F8243042EA0C0282
:10158000012B42EA034207D1D4F828C00023CFF64A
:10159000FE7303EB4C431A43E36A33B1D4F830C013
:1015A00003F4787343EA0C031A43D1F80CC044F2F5
:1015B0000703CFF6F07303EA0C031A43CA600A6903
:1015C000636B22F040621A430A618A68120744D4AE
:1015D00094F83820237F520042EA833CCB6844F2DF
:1015E000020223EA020242EA0C02CA6022690B6983
:1015F00082B143F480330B61D1F8C0C043F6FF736E
:101600002CEA03031A430DE042F010010120E165CA
:1016100002B0B0BD23F480320A61D1F8C02043F695
:10162000FF739A43C1F8C02094F840300A69012B37
:1016300010D140F2FD7322EA030CD4E91132D4E94F
:1016400013E543EA0C031A4342EA0E022A4342F02E
:10165000010201E022F001020A6162690B6B012ABA
:1016600023F00F0202D1236A013B1A430A63E16DA2
:10167000012262F30101E16502B0B0BD70B598B01E
:1016800004460020CDE9160002A804304021FEF7F0
:10169000F7FD2068B0F1A04F02D018B070BD00BFB8
:1016A0004FF4004002904FF00050119002A800F05B
:1016B00031FC002818BFFFF7BDF941F24C00C4F21D
:1016C00002000168002641F400510160016801F444
:1016D000005101910199016841F001010160006828
:1016E00013A900F00100019001980F20139003202E
:1016F00014904FF09040159600F0D8F940F2B805DC
:101700000820C2F20005C4F2020005214FF48073E4
:1017100085E8430005F1140080224FF4806C4FF0FF
:10172000200E80E808502846C5E903622E6200F0CA
:10173000D7F8002818BFFFF77DF96565AC6218B0CF
:1017400070BD0000014690F82500022828D180B520
:101750000868D1E910CE8A6C036823F00E03036099
:10176000136823F480731360026822F001020260A0
:101770000EF01F00012202FA00F0CCF80400D1E9BB
:1017800013205060486D30B1026822F4807202600C
:10179000D1E9160242600020BDE8804003E000BFAE
:1017A0000420C8630120012281F82520002281F84D
:1017B0002420704790F82510022931D180B50168A6
:1017C000D0E910CE826C0B6823F00E030B600B681F
:1017D00023F001030B60116821F4807111600EF099
:1017E0001F02012101FA02F2CCF80420D0E91332E1
:1017F0005A60426D32B1136823F480731360D0E9EC
:101800001623536080F82510826B002180F8241085
:101810000AB190470021BDE880400846704700BFEC
:101820000421C1630121002280F8251080F82420C2
:1018300008467047B0B5D0E910C30268DCF8001064
:1018400003F01F030424D2F800E09C400C4218BFB0
:101850001EF0040522D102249C400C4218BF1EF049
:10186000020529D1D940090724D51EF0080108BF77
:10187000B0BD116821F00E011160012101FA03F2DF
:10188000CCF80420C16380F82510416B002280F859
:10189000242079B1BDE8B040084700BF116889062F
:1018A00003D4116821F004011160CCF80440016BED
:1018B0000029EFD1B0BD00BF1168890606D41168B8
:1018C00021F00A011160012180F82510CCF80440B4
:1018D000C16A0022002980F82420DBD1EAE7000059
:1018E00000284FF0010100F08E802DE9F04740F212
:1018F000000CC4F2020C03684FF6F8320CF5816E4E
:10190000CBF6FD72734538BF02F580624CF6CD44CC
:101910001A44CCF6CC44A2FB042803F0FC02A2F14A
:101920000802A2FB04290CF580656FF00304D0E9DE
:101930000262D0F810A03CBF0025C4F2020504EA00
:101940009804C0E91054022580F825501D6847F618
:10195000F07725EA07073A43476942EA0A028569B0
:101960003A43C7692A43056A3A432A4332431A6015
:101970000CF50262734538BF0CF50062A3180CF534
:101980000862C264C9F3041240F6840C01FA02F240
:10199000B6F5804FC4F2020C8364026506D10021C3
:1019A00041601960CCF800201EE000BF41685FFA7A
:1019B00081FE013903294FF00001C3F800E0CCF8A3
:1019C000002011D8AEF101020CEB820747F87C1F12
:1019D00002F01F01012202FA01F30CF1BC023946A8
:1019E000CCF8C03002E000BF0022002300F1540C0C
:1019F0008CE80E0000210122C16380F8252080F8C8
:101A00002410BDE8F047084670470000B0B5044612
:101A100000F030F9054640F20800C2F200004068CC
:101A2000611C18BF044400BF00F024F9401BA04211
:101A3000FAD3B0BD012811D0102829D140F24801B5
:101A4000C2F200010878002818BF704740F26C30DD
:101A50000122C2F200000A7001F01EBA40F22440D6
:101A6000C4F20000006840F2D420C2F20000006816
:101A700040F24C410068C2F20001CA6BC0064FF050
:101A8000FF334FF0FF3058BF01231A44CA63086088
:101A90007047000040F21441C4F201010A6802429A
:101AA00014BF08607047FFF7C5BF00002DE9F04F75
:101AB00082B00D68002D00F0C58000F13847860522
:101AC00046EA972741F20046C4F60006062240F295
:101AD000004EB04208BF0522C4F2010E052F38BFE8
:101AE0003A464FF0000C012400270026009209E03E
:101AF0000D68013635FA06F207F102070CF1040C05
:101B000000F0A08004FA06FB15EA0B08F0D0D1F82B
:101B100004A003230AF003056A1EBB40012A6FEAF2
:101B200003090FD88268CB6802EA0902BB401A4356
:101B300082604268CAF3001322EA0B02B3401A43E0
:101B4000426003E0032D01D103251FE0C2688B68CA
:101B500002EA0902BB401A43022DC26016D16FF09F
:101B6000030202EA560202440CF01C050F23D2F8CD
:101B700020A003FA05FB0B692AEA0B0AAB4043EAF3
:101B80000A031362D1F804A00AF00305026805FAFB
:101B900007F302EA09021A431AF4403F0260A7D091
:101BA00041F26003C4F202031A684FF6084A42F099
:101BB00001021A601A68CFF6FF7A02F00102019260
:101BC000019A26F00302724452F80A900CF00C05B8
:101BD0000F23009CAB4029EA030304FA05F52B43CD
:101BE00042F80A30DEF808204B6842EA080540F265
:101BF0000C49DC0258BF22EA0805CEF80850C4F2AE
:101C00000109D9F800209D0242EA080458BF22EADF
:101C10000804C9F80040DEF804209D0342EA0804E5
:101C200058BF22EA0804CEF80440DEF80020DB03A7
:101C300042EA080458BF22EA0804CEF80040012412
:101C400056E700BF02B0BDE8F08F00000069084011
:101C500018BF012070470000426902EA0103914366
:101C600041EA0341816170471823002A08BF2823F5
:101C7000C150704740F2D840C2F20000006870477F
:101C800040F2080040F2D841C2F20000C2F2000166
:101C900040680A68104408607047000080B503205F
:101CA00000F08AF80F2000F009F800281CBF01207E
:101CB00080BD00F029F8002080BD000070B540F222
:101CC0000806C2F200067168E1B1044640F2100055
:101CD000C2F200004FF47A720068B2FBF1F1B0FB7F
:101CE000F1F000F051FF0F2C4FF0010508D838B982
:101CF0004FF0FF3021460022002500F031F834601B
:101D0000284670BD012070BD82B041F25800C4F277
:101D10000200816841F001018160816801F00101E8
:101D200001910199016841F080510160006800F063
:101D300080500090009802B000F0E2B8002848BF40
:101D4000704700F01F01012202FA01F11C2202EA91
:101D5000D0004EF20012CEF2000281507047000017
:101D600010B54EF60C5CCEF2000CDCF80030C3F37C
:101D7000022E8EF00704042C28BF0424BEF10303B6
:101D80004FF0FF3E0EFA04F438BF0023A143994000
:101D90000EFA03F39A43114300F00F0200F160437F
:101DA0000901043A03F564436244002848BF02F184
:101DB0000C03197010BD00004EF60C51CEF200015C
:101DC0000A684FF6FF031A4060F30A2242F080606F
:101DD00040F0FD7008607047B0F5007F42D00028E9
:101DE00040F0808047F21400C4F2000050F8141C48
:101DF000C26E01F4C06122F48072B1F5806FC266D8
:101E00002ED150F8141C012262F34A2140F8141C10
:101E100040F21001C2F200010968322251434DF62E
:101E20008362C4F21B32A1FB0212910C02685205BC
:101E300011D54A1C0FD0026852050CD559B1026861
:101E4000520508D5012906D00268520503D502299A
:101E5000A1F10401EAD10068400544BF03207047A6
:101E60000020704747F21400C4F2000050F8141C20
:101E7000C26E01F4C06142F48072B1F5806FC26637
:101E8000EED150F8141C012262F34A2140F8141CD0
:101E900040F21001C2F200010968322251434DF6AE
:101EA0008362C4F21B32A1FB0212910C026852053C
:101EB00011D54A1C0FD0026852050CD559B10268E1
:101EC000520508D5012906D00268520503D502291A
:101ED000A1F10401EAD10068400544BF0320704726
:101EE000BEE700BF47F21400C4F2000050F8141C13
:101EF000022262F34A2140F8141C002070470000BF
:101F000047F20800C4F20000016841F4804101601A
:101F1000704700002DE9F04182B00446807841F21C
:101F200088060007C4F2020602D400202FE000BF9A
:101F300056F8300C5FEAC0080BD456F8300C40F06D
:101F4000805046F8300C56F8300C00F0805001906C
:101F5000019847F20007C4F20007386840F4807027
:101F60003860FFF787FE05463868C00500F1D68067
:101F7000FFF780FE401B0228F6D90320B8F1000FBE
:101F800005D456F8301C21F0805146F8301C2168E9
:101F9000CA0713D18A0719D44A071FD40A0725D4C0
:101FA0008A062BD44A0631D40A0637D4CA053DD452
:101FB0008A0543D44A0549D457E000BF32686368B4
:101FC00022F003021A4332608A07E5D53268A3681B
:101FD00022F00C021A4332604A07DFD53268E36808
:101FE00022F030021A4332600A07D9D532682369D9
:101FF00022F0C0021A4332608A06D3D53268636980
:1020000022F440621A4332604A06CDD53268A36991
:1020100022F440521A4332600A06C7D53268E36997
:1020200022F440421A433260CA05C1D53268236A9D
:1020300022F440321A4332608A05BBD53268636AA3
:1020400022F440221A4332604A050ED53268A36A50
:1020500022F440121A43B3F5801F326005D156F8BE
:102060007C2C42F4801246F87C2C0A050ED532688E
:10207000E36A22F440021A43B3F5800F326005D1BF
:1020800056F87C2C42F4801246F87C2CCA040ED5FB
:102090003268236B22F040721A43B3F1807F3260C2
:1020A00005D156F87C2C42F4801246F87C2C8A0428
:1020B0000ED53268636B22F040621A43B3F1006FB1
:1020C000326005D156F87C2C42F4801246F87C2C04
:1020D0004A040ED53268A36B22F040621A43B3F172
:1020E000006F326005D156F87C2C42F4801246F81D
:1020F0007C2C09040ED53168E26B21F0405111436C
:10210000B2F1805F316005D156F87C1C41F480311A
:1021100046F87C1C02B0BDE8F08100BFB06810F446
:10212000407010D0216C88420BD0B068B16820F4A8
:10213000407041F48031B160B16821F48031B16008
:10214000B060C0070CD1B068216C20F44070084327
:10215000B0600020B8F1000F3FF519AF11E700BFE4
:10216000FFF788FD054641F2883700BFB068800759
:10217000E9D4FFF77FFD401BB842F7D9FDE6000028
:102180002DE9F047002865D042F2000AC4F2020AA5
:102190000446DAF800000D4600F00F0088420CD229
:1021A000DAF8000020F00F002843CAF80000DAF83F
:1021B000000000F00F00A8424CD1216841F208084D
:1021C000C807C4F2020803D1880740F1D480B9E0FF
:1021D000606802283AD0032840D158F8082C9201B0
:1021E00038D5D8F80420D8F8043042F20046C3F3BA
:1021F000031302F00302D8F804700133C0F2F406AE
:10220000032A04BF41F20026C0F27A06B6FBF3F2BD
:10221000D8F80430C7F306277A43C3F34163022793
:1022200007EB4303B2FBF3F24BF20043C0F2C443AB
:102230009A425DD9D8F8002012F0F00F4DD08907EE
:1022400056D5A168002953D147E000BF58F8081CB3
:10225000890307D40120BDE8F08700BF58F8081CA7
:102260004905F7D5D8F8001001F00C0104293FD03A
:10227000D8F8001001F00C01082939D0D8F8001066
:1022800001F00C010C2933D1D8F80410D8F804203F
:1022900042F20047C2F3031201F00301D8F8043000
:1022A0000132C0F2F407032904BF41F20027C0F253
:1022B0007A07B7FBF2F1D8F80420C3F30623594399
:1022C000C2F34162022303EB4202B1FBF2F14BF293
:1022D0000042C0F2C44291420AD9D8F80010082244
:1022E00062F307114FF00109C8F8001002E000BFC7
:1022F0004FF00009D8F8001021F003010843C8F896
:102300000000FFF7B7FC064641F28837D8F8000016
:10231000616800F00C00B0EB810F07D0FFF7AAFC5A
:10232000801BB842F2D90320BDE8F08721688807F6
:1023300008D4B9F1000F1ED0D8F8000020F0F0004A
:1023400017E000BF480705D5D8F8000040F4E0606A
:10235000C8F80000080706D5D8F80000072262F385
:102360000D20C8F80000D8F80000A26820F0F000A6
:102370001043C8F80000DAF8000000F00F00A8428F
:102380001BD9DAF8000020F00F002843CAF800003B
:10239000FFF770FC064641F2883700BFDAF800000C
:1023A00000F00F00A84207D0FFF764FC801BB84282
:1023B000F4D90320BDE8F0872168480707D5D8F88D
:1023C0000000E26820F4E0601043C8F8000008074D
:1023D00008D5D8F80000216920F4605040EAC10017
:1023E000C8F80000D8F8000042F20041C0F2F40141
:1023F00000F00C00042808462DD0D8F8000000F0AA
:102400000C00082841F20020C0F27A0023D0D8F84E
:10241000002002F00C020C2A1CD1D8F80420D8F8B5
:10242000043002F00302C3F30313D8F8047001333D
:10243000032A08BF0146B1FBF3F0D8F80410C7F334
:102440000627C1F341610222784302EB4101B0FB50
:10245000F1F000E00020D8F8001047F20802C1F3C4
:102460000311C0F60002515C40F2100201F01F019E
:1024700020FA01F140F20800C2F200000068C2F246
:1024800000021160BDE8F047FFF718BC40F21000F1
:1024900041F20801C2F20000C4F2020100680968BA
:1024A00047F21802C1F30221C0F60002515C01F0AC
:1024B0001F01C8407047000040F2100041F20801BF
:1024C000C2F20000C4F202010068096847F2180273
:1024D000C1F3C221C0F60002515C01F01F01C840E7
:1024E0007047000041F20C01C4F2020151F8040CE3
:1024F00042F20042C0F2F40200F00C000428104640
:1025000008BF704751F8040C00F00C00082841F295
:102510000020C0F27A0025D051F8043C03F00C03EF
:102520000C2B1CBF0020704780B5D1F800C00B6891
:102530000CF0030CC3F3031E0B680EF1010EBCF18B
:10254000030F08BF02460968B2FBFEF0C3F306237F
:10255000C1F341610222584302EB4101B0FBF1F0AB
:10256000BDE8804070470000002804BF012070478C
:102570002DE9F04182B00446007841F20006C00720
:10258000C4F202061ED1207880073DD420780007CF
:1025900064D42078400700F187802078800600F11D
:1025A000D980E569002D00F04482B06800F00C008D
:1025B0000C2840F03181012D40F09081012002B0C3
:1025C000BDE8F081B06800F00C01F068082961D026
:1025D000032281F00C0122EA00000844B0FA80F0E6
:1025E000400957D16068B0F5803F07D0B0F5A02F03
:1025F00040F0E480306840F480203060306840F47F
:1026000080303060E5E000BFB068F16800F00C0099
:10261000042871D001F0030180F00C0081F0020168
:102620000844B0FA80F0400966D1E16830680029BA
:1026300000F0E08040F480703060FFF71BFB05463F
:102640003068400500F10A81FFF714FB401B0228A7
:10265000F6D9032002B0BDE8F08100BF6169D6F869
:102660009400002900F0948040F00100C6F8940026
:10267000FFF700FB054600BFD6F8940080073FF542
:1026800088AFFFF7F7FA401B0228F5D9032002B004
:10269000BDE8F081306880037FF575AF6068002881
:1026A0007FF471AF3EE000BFB06D5FEAC00808D4B0
:1026B000B06D40F08050B065B06D00F0805001907A
:1026C000019847F20007C4F200073868C0052DD40E
:1026D000386840F480703860FFF7CCFA054600BFD8
:1026E0003868C00522D4FFF7C5FA401B0228F7D985
:1026F000032002B0BDE8F0813068400501D5E068F4
:1027000080B17068216920F0FE4040EA016070608D
:1027100040F20800C2F200000068FFF7CFFA00287C
:102720003FF434AF012002B0BDE8F081A068012879
:1027300008D0052840F0B080D6F8900040F00400A2
:10274000C6F89000D6F8900040F00100C6F890005E
:10275000B0E000BFA169D6F89800002900F086809B
:1027600040F00100C6F89800FFF784FA054600BF64
:10277000D6F8980080073FF514AFFFF77BFA401BAF
:1027800002284FF00300F3D902B0BDE8F08100BF8A
:1027900020F00100C6F89400FFF76CFA054600BF70
:1027A000D6F8940080077FF5F4AEFFF763FA401B7C
:1027B0000228F5D9032002B0BDE8F0813168002875
:1027C00021F480313160316821F48021316000F0E2
:1027D000BF80FFF74FFA0546306880033FF5D3AE60
:1027E000FFF748FA401B6428F6D9032002B0BDE881
:1027F000F08100BF20F480703060FFF73BFA05469F
:10280000306840057FF5C2AEFFF734FA401B02285E
:102810004FF00300F4D9B7E7306820F080703060E3
:10282000FFF728FA022D05460CD100BF3068800161
:1028300040F1BA80FFF71EFA401B02284FF0030058
:10284000F4D9A1E73068800140F1EC80FFF712FA7B
:10285000401B02284FF00300F4D995E77068216906
:1028600020F0FE4040EA016070608FE620F0010039
:10287000C6F89800FFF7FEF9054600BFD6F89800A5
:1028800080077FF58EAEFFF7F5F9401B02284FF069
:102890000300F3D978E700BFD6F89010002821F0A4
:1028A0000101C6F89010D6F8901021F00401C6F886
:1028B00090105DD0FFF7DEF9054641F2883700BF82
:1028C000D6F89000800765D4FFF7D4F9401BB842D2
:1028D000F6D9032002B0BDE8F08100BFF068216A9C
:1028E00000F003028A427FF41DAF626A6FF00F03AB
:1028F00000F0F00103EB021291427FF413AFA16AE2
:1029000000F4FE42B2EB012F7FF40CAFE16A00F05D
:102910007842B2EBC16F7FF405AF226B0023CFF694
:10292000E07303EA025200F4C001A2F500129142E2
:102930007FF4F8AE616B4FF07E4202EA016100F075
:10294000C06001F17E4188427FF4ECAE71E000BFCF
:10295000FFF790F9054600BF306880037FF513AE9E
:10296000FFF788F9401B64284FF00300F4D90BE708
:10297000FFF780F9054641F2883700BFD6F890008E
:10298000800707D5FFF776F9401BB8424FF00300E8
:10299000F4D9F9E6B8F1000F3FF5FFADB06D20F0C6
:1029A0008050B065F9E500BFF06848F20C01C0F254
:1029B0009F1104F1200700EA010C8ECF6FF00F0089
:1029C000D4E90C5400EB02100022CFF6E07241EA89
:1029D0000C0102EA05520843A2F500124FF07E45B1
:1029E00040EA032005EA0465104305F17E4540EA0C
:1029F000C7602843F060306840F080703060F06855
:102A000040F08070F060FFF735F9044630688001CF
:102A10000FD4FFF72FF9001B02284FF00300F5D960
:102A2000B2E600BFF0684FF6FC71CFF6EE610840E9
:102A3000F060002002B0BDE8F0810000002804BF73
:102A400001207047B0B50446406A28B100202061DB
:102A500004F1140006E000BF6068B0F5827F03D087
:102A600004F11C00002101600025A56294F85D00BE
:102A700020B9204684F85C5000F052F8022084F817
:102A80005D002068D4F80CE00268BEF5E06F22F02B
:102A9000400202604EF4006298BF0125B2F5706FEB
:102AA0001CBF0023A3624FEA053CD4E90135D4E9F9
:102AB000042103F4827305F404452B4402F002025E
:102AC0001A44A36901F00101E569114403F400729D
:102AD000114405F03802256A114405F08002A56A08
:102AE000114405F40052114301600421626A0EF49E
:102AF000706501EA1341636B45EA0C0502F01002B0
:102B0000294303F00803114319434160C16921F4CB
:102B10000061C16100200121206684F85D10B0BD14
:102B2000006843F20001C4F20101884218BF7047F7
:102B300080B586B041F24C00C4F20200416941F414
:102B400080514161416901F480510191019901680D
:102B500041F002010160006801A900F0020001904B
:102B6000019838200190022002900020CDE9030056
:102B70000520059040F20040C4F60000FEF796FFE5
:102B800006B0BDE880407047411E0020B0EB116FD9
:102B90001CBF012070474EF21002CEF200025160BD
:102BA0004EF62351CEF20001F0230B700721906006
:102BB00011607047704700007047000070470000C8
:102BC00090F83C20012A04BF02207047B0B5D1E93B
:102BD0000232D1E900CE22F47C5223F4705343EA4E
:102BE000020448F2FF73CEF6F0730EEA03022243AA
:102BF00003F5006404EA0C0442EA040C0C6903F5D2
:102C0000C05222404C6942EA0C02224303F5605450
:102C100022400C6B03F5F04323401A438B6940F2CA
:102C2000000CCC69CEF6FF7C0CEA03431443D0F8C9
:102C300000C043F20042C4F20102944543EA040397
:102C400005D042F60042C4F20102944516D14FF677
:102C5000FF72CDF60F421A40D1E9083ED1E90A4190
:102C60000025CDF6F04505EA0454224323F008532D
:102C70001A432EF000531A4342EA01030021CCF814
:102C8000443080F83C10BDE8B04008467047000072
:102C900070470000704700007047000090F83C202B
:102CA000012A4FF002024AD070B580F83D20026838
:102CB00043F2004C54689368C4F2010C42F6004E93
:102CC0006245C4F2010E01D0724503D14D6824F46F
:102CD00070042C434FF68F75CFF6FF550E682C40CD
:102CE00042F6FF35C4F201053443AA4254600FDCBA
:102CF000B2F1804F16D040F20046C4F20006B24254
:102D000010D040F60006C4F20006B2420AD00EE02F
:102D1000724507D044F20006C4F20106B24201D067
:102D2000624504D1896823F0800319439160012131
:102D3000002280F83D1080F83C20BDE8704010462D
:102D40007047000070470000002804BF0120704752
:102D500010B5044690F83D0028B9002084F83C00E6
:102D6000204600F023F8022084F83D002068211D51
:102D700002F05CF8012084F8480084F83E0084F8F2
:102D80003F0084F8400084F8410084F8420084F851
:102D9000430084F8440084F8450084F8460084F831
:102DA000470084F83D00002010BD000080B582B0CF
:102DB000006841F2FF31C4F20001884220DCB0F12A
:102DC000804F41D041F20001C4F20001884248D155
:102DD00041F25800C4F202000168002241F01001E3
:102DE00001600068002100F0100001900198362079
:102DF000FEF7B6FF362002B0BDE88040FEF79EBF6A
:102E000041F20041C4F2000188422DD042F6004157
:102E1000C4F20101884224D141F25800C4F20200F8
:102E20008168002241F4006181608068002100F423
:102E30000060019001981920FEF792FF192002B05E
:102E4000BDE88040FEF77ABF41F25800C4F20200AC
:102E5000016841F001010160006800F0010001908B
:102E6000019802B080BD00BF41F25800C4F20200D8
:102E70000168002241F0200101600068002100F09B
:102E80002000019001983720FEF76AFF372002B03A
:102E9000BDE88040FEF752BF90F83D1001291DD1DA
:102EA000022180F83D10016842F6FF32C868C4F282
:102EB0000102914240F00100C86011DCB1F1804F85
:102EC00020D040F20040C4F2000081421AD040F607
:102ED0000000C4F20000814214D020E001207047BD
:102EE00042F60040C4F2010081420BD044F20000DF
:102EF000C4F20100814205D043F20040C4F2010057
:102F000081420CD188680722C0F201020240062AE1
:102F10004FF00000E3D0B2F5803F08BF704708686B
:102F200040F0010008600020704700000146006882
:102F300041F21113C26822F00102C260026A1A4211
:102F400004D00122002081F83D207047026A44F23B
:102F500044431A42F5D1026822F0010202600122C4
:102F6000002081F83D20704790F83C20012A4FF066
:102F7000020200F0AC8080B580F83D20D0F800C09F
:102F80008822DCF80830CFF6CE721A40CCF8082040
:102F90000B686F2B10DD1F22C0F21002934237DC4A
:102FA000B3F5005F46DA702B00F09480B3F5805FD4
:102FB00000F08480D8E000BF2F2B35DD4F2B3FDCA5
:102FC000302B6FD0402B40F0CF80D1F804E0C9689F
:102FD000DCF82030DCF8202022F00102CCF82020A0
:102FE000DCF8182022F0F00242EA011123F00A0274
:102FF00042EA0E02CCF81810CCF82020DCF80810B9
:103000004FF68872CFF6CF721140473154E000BFBF
:103010003F21C0F210018B423ADC2021C0F21001A6
:103020008B423FD0302139E0E3B3102B3AD0202B34
:1030300038D099E062D0B3F1101F33D094E000BFD4
:10304000502B6FD0602B40F08F80D1F804E0C9681E
:10305000DCF82030DCF8202022F01002CCF8202010
:10306000DCF8182022F4704242EA013123F0A00279
:1030700042EA0E12CCF81810CCF82020DCF8081028
:103080004FF68872CFF6CF721140673114E000BF5F
:103090004021C0F210018B4204D07021C0F2100117
:1030A0008B4261D1DCF808104FF68872CFF6CF72F0
:1030B0001140194341F00701CCF80810002201210A
:1030C00080F83D10002180F83C10BDE8804010469B
:1030D000704700BFD1E901E3C968DCF8082043EA82
:1030E0000E0322F47F4243EA01211143CCF8081079
:1030F000DCF8081041F07701DEE700BFD1E901E319
:10310000C968DCF8082043EA0E0322F47F4243EA50
:1031100001211143CCF80810DCF8081041F480417B
:10312000CAE700BFD1F804E0C968DCF82030DCF859
:10313000202022F00102CCF82020DCF8182022F018
:10314000F00242EA011123F00A0242EA0E02CCF830
:103150001810CCF82020DCF808104FF68872CFF653
:10316000CF7211405731A7E70122A8E7002804BF1A
:10317000012070472DE9F047044690F83D000D46C8
:1031800028B9002084F83C00204600F04BF80220CB
:1031900084F83D0020684BF6F8728168CFF6FE7225
:1031A00011408160211D01F041FE20684FF6FF783B
:1031B00081688269D0F820C0D5E9003ED5E9026A6D
:1031C00043EA0109AB6922EA080246EA03234FF603
:1031D000FC46B343D5E9076742EA0A0229691A4364
:1031E00042EA062242EA01112CF0AA026B6942EA85
:1031F0000E0241EA073142EA0312C0F808908161E9
:103200000262012084F8480084F83E0084F83F0000
:1032100084F8440084F8450084F83D000020BDE8AF
:10322000F0870000006840F20041C4F200018842CB
:1032300018BF704780B586B041F24C00C4F202005E
:10324000C16841F00201C160C16801F00201019151
:103250000199016841F0010101600068002100F05E
:10326000010001900198C020019002200290CDE958
:103270000311059001A94FF09040FEF717FC1D20A7
:1032800000210022FEF76CFD1D20FEF757FD06B061
:10329000BDE880407047000080B590F83E2090F86F
:1032A0003F3090F844E090F845C004290AD0B9B9FD
:1032B000012A4FF0010208BFBEF1010F34D01046C1
:1032C00080BD00BF012B4FF0010208BFBCF1010F10
:1032D000F5D1022180F83F1080F8451000681EE00B
:1032E000012A4FF0010208BF012BE8D1BEF1010F06
:1032F000E5D1BCF1010FE2D1022280F83E2080F836
:103300003F2080F8442080F8452091B10068016A90
:1033100021F001010162016A41F001010162102105
:103320006FF0100209E000BF022180F83E1080F823
:103330004410006801216FF00102036A1A40026222
:10334000026A114301620168002241F0010101603B
:10335000104680BD70470000F0B581B0044600689B
:10336000C5680669B10717D515F0020114D06FF0D2
:1033700002010161012121778069800704D0204684
:10338000FFF7E8FF06E000BF204600F01BF92046EB
:1033900000F03CFB00202077700719D515F00400E1
:1033A00016D020686FF00401016102212177806945
:1033B00010F4407F04D02046FFF7CCFF06E000BFAA
:1033C000204600F0FFF8204600F020FB0020207788
:1033D000300717D515F0080014D020686FF00801E9
:1033E000016104212177C069800703D02046FFF7DF
:1033F000B1FF05E0204600F0E5F8204600F006FBAE
:1034000000202077F00619D515F0100016D020689E
:103410006FF01001016108212177C06910F4407F2D
:1034200004D02046FFF796FF06E000BF204600F0DC
:10343000C9F8204600F0EAFA00202077F00718BF0C
:1034400015F0010006D020686FF0010101612046EF
:1034500000F0A6FB16F4025F05F0800718BF002FEE
:1034600002D1F00509D410E020686FF40251016127
:103470002046FFF7A1FBF00507D537B120686FF4B0
:10348000807101612046FFF795FB700609D515F0A4
:10349000400006D020686FF040010161204600F036
:1034A000E9FBB00609D515F0200006D020686FF0C2
:1034B000200101612046FFF781FBF00209D515F4D8
:1034C000801006D020686FF4801101612046FFF75C
:1034D000E1FBB00209D515F4001006D020686FF4A6
:1034E000001101612046FFF7D3FB700209D515F4E6
:1034F000800006D020686FF4800101612046FFF74C
:10350000CBFB30020CD515F4000009D021686FF414
:10351000000220460A6101B0BDE8F040FFF712BC8E
:1035200001B0F0BD006842F60041C4F201018842DA
:1035300018BF70472DE9F04186B041F24C00C4F24B
:103540000200016840F2004441F00201016001689C
:10355000C4F6000401F0020101910199016801AD76
:1035600041F0010101600068022600F001000190B5
:1035700001984FF4C040019000274FF00608204604
:1035800029460296CDE90376CDF81480FEF78EFA2F
:103590004FF4004001A9C1C10420059020462946EE
:1035A0000496FEF783FA4FF4E06001A9C1C14FF021
:1035B00090402946CDE90468FEF778FA06B0BDE8E8
:1035C000F04170477047000090F83C30012B04BF79
:1035D000022070474FEAB202052A00F293812DE9DA
:1035E000F041DFE812F007005500A900FD0051018D
:1035F000950100BF03681D6A1A6AA3F1804622F094
:1036000001021A621A46A6F596369F05D3F804C041
:1036100052F818EF47EA96268F68D1F8008025F017
:103620000205072E45EA07050AD80127B74017F01B
:10363000E50F1FBFCF6825F00C0527F004073D43B9
:10364000072E0CD8012707FA06F616F0E50F1FBF64
:10365000D1E905672CF44074264346EA070C4FF67F
:103660008C74CFF6FE740EEA040747EA0807C3F825
:1036700004C09F614F6809695F631D629F6947F0DD
:1036800008079F619F6927F004079F617EE100BFE3
:10369000036843F200461D6A1A6AC4F2010622F06A
:1036A00010021A621A46D3F804C052F8188FB342B7
:1036B0008E68D1F800E025F0200545EA061505D012
:1036C00042F60046C4F20106B34207D1CE686FF05D
:1036D000400725F0C00507EA06163543A3F18046EA
:1036E000A6F596369F0547EA9626072E0CD80127A1
:1036F00007FA06F616F0E50F1FBFD1E905672CF4AF
:103700004064374344EA870C48F6FF44CFF6FF6431
:1037100004EA080444EA0E27C3F804C09F614F6816
:1037200009699F631D629F6947F400679F619F69F4
:1037300027F480679F6128E1036843F200461D6A11
:103740001A6AC4F2010622F480721A621A46D3F889
:1037500004C052F81C8FB3428E68D1F800E025F403
:10376000007545EA062505D042F60046C4F201067A
:10377000B34207D1CE6840F2FF47360225F44065D8
:10378000BE433543A3F18046A6F596369F0547EA2A
:103790009626072E0CD8012707FA06F616F0E50F35
:1037A0001FBFD1E905672CF44054374344EA071C96
:1037B0004FF68C74CFF6FE7404EA080444EA0E0750
:1037C000C3F804C0DF614F680969DF631D62DF6908
:1037D00047F00807DF61DF6927F00407DF61D5E004
:1037E000036843F200461D6A1A6AC4F2010622F415
:1037F00080521A621A46D3F804C052F81C8FB342A2
:103800008E68D1F800E025F4005545EA063505D06C
:1038100042F60046C4F20106B34207D1CE6844F630
:10382000FF77360325F44045BE433543A3F1804678
:10383000A6F596369F0547EA9626072E0CD801274F
:1038400007FA06F616F0E50F1FBFD1E905672CF45D
:103850004044374344EA871C48F6FF44CFF6FF64F0
:1038600004EA080444EA0E27C3F804C0DF614F6885
:1038700009691F641D62DF6947F40067DF61DF6962
:1038800027F48067DF6180E00368D3F820C01A6AFC
:10389000A3F1804722F480321A621A46A7F59637C0
:1038A0009C055D6852F8508FD1F800E08E6844EABC
:1038B0009727072F09D80124BC4014F0E50F1EBF3D
:1038C0004C6925F4803545EA04252CF4003747EA95
:1038D00006474FF68C76CFF6FE76033606EA0806E4
:1038E00046EA0E065D601E654E6809699E641F62A9
:1038F0001F6D47F008071F651F6D27F004071F6540
:1039000044E000BF0121002280F83C2008467047B7
:103910000368D3F820C01A6AA3F1804722F480120A
:103920001A621A46A7F596379C055D6852F8508FC3
:10393000D1F800E08E6844EA9727072F09D80124C0
:10394000BC4014F0E50F1EBF4C6925F4802545EA04
:1039500084252CF4001747EA065748F6FF46CFF6B1
:10396000FF6606F5407606EA080646EA0E265D6022
:103970001E654E680969DE641F621F6D47F40067AB
:103980001F651F6D27F480671F65090213681943BF
:1039900011600021BDE8F041002280F83C2008467B
:1039A00070470000002804BF0120704710B504468E
:1039B00090F83D0028B9002084F83C00204600F033
:1039C00023F8022084F83D002068211D01F02EFA22
:1039D000012084F8480084F83E0084F83F0084F811
:1039E000400084F8410084F8420084F8430084F8E1
:1039F000440084F8450084F8460084F8470084F8C1
:103A00003D00002010BD000070470000704700001E
:103A100071B10A1F8B0743EA9202032A12D8DFE82A
:103A200002F00315191D00BF00F13F0318E000BFAD
:103A300090F83E20012A1CBF01207047022280F826
:103A40003E202CE000F143030AE000BF00F14003F8
:103A500006E000BF00F1410302E000BF00F14203B5
:103A60001B78012B1CBF01207047032A08D8DFE810
:103A700002F0030B0F1300BF022280F83F200EE07C
:103A8000022280F843200AE0022280F8402006E06B
:103A9000022280F8412002E0022280F842200268DF
:103AA00001F01F014FF0010C136A0CFA01F18B4376
:103AB0001362136A90050B43A2F18041A1F5963180
:103AC00040EA91210629136244D80CFA01F010F063
:103AD000650F3FD0506C42F6FF31C4F2010140F453
:103AE00000408A4250640FDCB2F1804F1ED040F299
:103AF0000040C4F20000824218D040F60000C4F238
:103B00000000824212D01EE042F60040C4F20100E2
:103B100082420BD044F20000C4F20100824205D080
:103B200043F20040C4F2010082420CD190680721A8
:103B3000C0F20101014006294FF0000008D0B1F5A4
:103B4000803F08BF7047106840F0010010600020FF
:103B5000704700BF42F6FF30C4F201008242C3DD6D
:103B600043F6FF70C4F20100824207DC42F60040D7
:103B7000C4F201008242D3D1D8E700BF44F2000072
:103B8000C4F201008242D1D044F60000C4F2010028
:103B9000824202BF506C40F400405064D3E7000002
:103BA00080B5016841F20002C4F2000291421DD0CA
:103BB00041F20042C4F20002914218BF80BDFFF7FB
:103BC000B5F94FF090400121FEF740F838B940F2C6
:103BD0000040C4F600004FF48051FEF73DF840F27B
:103BE0004800C2F200000021017080BD01F014FF06
:103BF00040F2D42140F24C40C2F20001C2F2000077
:103C0000096890ED011A80ED010A096830EE410A59
:103C1000C90613D49FED151AB5EE400A30EE012AFD
:103C2000F1EE10FAB8BFB0EE420A80EE010A9FED45
:103C3000101A20EE010A80ED030A80BD9FED0A1ADA
:103C4000B5EE400A9FED092A30EE011AF1EE10FAA6
:103C5000C8BFB0EE410A80EE020A9FED051A20EEC1
:103C6000010A80ED030A80BD0000B4C30000B44324
:103C700000007A447047000090F88410012904BFC6
:103C8000022070472421C0F8881002681168136868
:103C900023F00103136021F00053002141661360FB
:103CA0002022C0F8882080F8841008467047000061
:103CB000704700007047000090F88420012A04BF7C
:103CC00002207047B0B52422C0F888200268D0F8DE
:103CD00064E0D2F800C01368BEF1000F23F00103C6
:103CE0001360936823F0606341EA0301916019D087
:103CF0009368916847F2480E490FC0F6000E47F2EC
:103D000050051EF80140C0F60005695CC3F342632C
:103D1000E400B4FBF1F11EF80340EB5CE500B5FBF9
:103D2000F3F301E001210123A0F86A102021A0F89B
:103D30006830C2F800C0C0F88810002180F88410F4
:103D4000BDE8B0400846704790F88420012A04BFBF
:103D500002207047B0B52422C0F888200268D0F84D
:103D600064E0D2F800C01368BEF1000F23F0010335
:103D70001360936823F0604341EA0301916019D016
:103D80009368916847F2480E490FC0F6000E47F25B
:103D900050051EF80140C0F60005695CC3F342639C
:103DA000E400B4FBF1F11EF80340EB5CE500B5FB69
:103DB000F3F301E001210123A0F86A102021A0F80B
:103DC0006830C2F800C0C0F88810002180F8841064
:103DD000BDE8B040084670477047000070470000DB
:103DE0007047000070B5016840F62F03CA690446A9
:103DF00008688E681340202B0CD100F0200306F0D9
:103E000080555B1917D0616F69B32046BDE87040DB
:103E1000084700BF40F60F031A420CD00123C1F23D
:103E2000000306EA030C40F22013C0F200430340F3
:103E300013EB0C0328D1E36ED50615D5012B13D156
:103E400010F0100310D0102008628868400627D4B4
:103E5000B4F85C00B4F85E10B4F85E20002A18BF15
:103E6000884240F03F8270BDD30240F1D58016F405
:103E7000800300F0D1804FF4801220460A62BDE832
:103E80007040FFF7ABBF00BFD30718BF10F48073BB
:103E900040F00C81930706F0010E00F113811CE144
:103EA000D4F88000006841688AB2002ADBD0B4F8F8
:103EB0005C309A42D7D2A4F85E100068800600F108
:103EC0009E80206850E8000F216820F4807041E84F
:103ED0000002DAB1206850E8000F216820F48070F9
:103EE00041E8000292B1206850E8000F216820F4F8
:103EF000807041E800024AB1206850E8000F216854
:103F000020F4807041E80002002ADAD1206850E8ED
:103F1000020F216820F0010041E80202BAB32068D4
:103F200050E8020F216820F0010041E8020272B35C
:103F3000206850E8020F216820F0010041E80202E9
:103F40002AB3206850E8020F216820F0010041E800
:103F50000202002ADAD11AE0206850E8020F216834
:103F600020F0400041E80202DAB1206850E8020F78
:103F7000216820F0400041E8020292B1206850E838
:103F8000020F216820F0400041E802024AB1206897
:103F900050E8020F216820F0400041E80202002AA8
:103FA000DAD12020C4F88C000020E066206850E8B8
:103FB000000F216820F0100041E80002DAB120680B
:103FC00050E8000F216820F0100041E8000292B193
:103FD000206850E8000F216820F0100041E800023E
:103FE0004AB1206850E8000F216820F0100041E835
:103FF0000002002ADAD1D4F88000FDF7A3FB0220EA
:104000002067B4F85C00B4F85E10401A81B2204614
:10401000BDE87040FFF74CBE110606D500F08001E8
:1040200006F40003C91840F0DF81510632D510F0C4
:1040300040012FD0206850E8000F216820F0400098
:1040400041E80002DAB1206850E8000F216820F052
:10405000400041E8000292B1206850E8000F21685A
:1040600020F0400041E800024AB1206850E8000F0B
:10407000216820F0400041E80002002ADAD1202027
:104080000021C4F888002046A167BDE8704000F018
:1040900047BB00BF110240F1B38110F0804100F036
:1040A000AF812046BDE87040FFF796BE01230B624A
:1040B000D4F8903043F00103C4F89030930706F031
:1040C000010E0AD5BEF1000F07D002230B62D4F80F
:1040D000903043F00403C4F8903053070AD5BEF182
:1040E000000F07D004230B62D4F8903043F0020392
:1040F000C4F8903013070CD500F0200353EA0C03EA
:1041000007D008230B62D4F8903043F00803C4F8BA
:10411000903013050BD510F0806308D04FF4006386
:104120000B62D4F8903043F02003C4F89030D4F8F8
:104130009030002B3FF497AE92060AD500F0200095
:1041400006F08052801804D0626F12B1204690476A
:104150002168D4F89000896800F0280001F040013F
:10416000401807D12046FFF73BFE0020C4F890001E
:1041700070BD00BF206850E8000F216820F49070E7
:1041800041E80002DAB1206850E8000F216820F40D
:10419000907041E8000292B1206850E8000F216859
:1041A00020F4907041E800024AB1206850E8000F06
:1041B000216820F4907041E80002002ADAD14FF61D
:1041C000FE70CEF6FF7000BF216851E8021F226822
:1041D000014042E80213C3B1216851E8021F22687E
:1041E000014042E8021383B1216851E8021F2268AE
:1041F000014042E8021343B1216851E8021F2268DE
:10420000014042E80213002BDED1E06E012824D1E8
:10421000206850E8000F216820F0100041E80002FB
:10422000DAB1206850E8000F216820F0100041E862
:10423000000292B1206850E8000F216820F01000C1
:1042400041E800024AB1206850E8000F216820F0E0
:10425000100041E80002002ADAD12020C4F88C00C6
:104260000020E066216860678868400640F1C280EF
:10427000206850E8020F216820F0400041E8020267
:10428000DAB1206850E8020F216820F0400041E8D0
:10429000020292B1206850E8020F216820F040002D
:1042A00041E802024AB1206850E8020F216820F07C
:1042B000400041E80202002ADAD1D4F88000002848
:1042C00000F0988045F2AD11C0F600018163FDF762
:1042D00071FA00283FF4C7ADD4F88000816BBDE8C7
:1042E00070400847401A00BF216851E8001F22684B
:1042F00021F4907142E80013DBB1216851E8001FFE
:10430000226821F4907142E8001393B1216851E8CA
:10431000001F226821F4907142E800134BB121681C
:1043200051E8001F226821F4907142E80013002B2D
:10433000DAD14FF6FE71CEF6FF7100BF226852E867
:10434000022F23680A4043E80226C6B1226852E8D9
:10435000022F23680A4043E8022686B1226852E809
:10436000022F23680A4043E8022646B1226852E839
:10437000022F23680A4043E80226002EDED12021C6
:10438000C4F88C100021E166616700BF216851E824
:10439000001F226821F0100142E80013DBB1216800
:1043A00051E8001F226821F0100142E8001393B188
:1043B000216851E8001F226821F0100142E8001333
:1043C0004BB1216851E8001F226821F0100142E83A
:1043D0000013002BDAD1022281B220462267BDE809
:1043E0007040FFF765BC00BFA16F00297FF40DADE1
:1043F00039E500BF2046BDE87040FFF7F1BC00BFC3
:10440000D1017FF530ADB0F1FF3FC8BF70BD204690
:10441000BDE87040FFF74EBC10B5D0B10446D0F8EF
:10442000880028B9002084F88400204600F026F88F
:104430002420C4F888002068A16A026822F00102E2
:10444000026011B1204600F083FD204600F0B6FE68
:1044500010B1012010BD00BF2168486820F49040D1
:104460004860886820F02A008860086840F00102EF
:1044700020460A60BDE8104000F0E0BD2DE9F041A3
:1044800096B00446684608303C21FBF7F9FE2068E8
:1044900043F60001C4F20101884203D016B0BDE822
:1044A000F08100BF01200090002668460196FDF7CC
:1044B00031FD002818BFFCF7BDFA41F24C00C4F2F0
:1044C0000200416940F21C0841F4804141614169A8
:1044D000C4F2020801F4804111911199016841F080
:1044E00002010160006811A900F00200119011980A
:1044F000C02011900220CDE912060720159040F24D
:104500000040C4F600001496FDF7D0FA40F278158A
:10451000C2F2000519201021C5E9008005F108004C
:104520008027C2C0C5E90566EE614FF48056284673
:104530002E62FDF7D5F9002818BFFCF77BFAE56776
:10454000AC6240F2181508F11400C2F200051821FF
:10455000002285E807002846C5E90327C5E90522AA
:10456000C5E90726FDF7BCF9002818BFFCF762FA79
:10457000252000210022C4F88050AC62FDF7F0FB3A
:104580002520FDF7DBFB16B0BDE8F0812DE9F041F9
:104590000446D0F8880020281CBF0220BDE8F08126
:1045A0000D4600294FF0010000F0B8801646002AA1
:1045B00008BFBDE8F0810020C4F890002120984693
:1045C000C4F88800FDF756FBA4F85460A4F85660C0
:1045D000A1680646B1F5805F02D1206900286BD042
:1045E0002F460025B4F8560000286BD018F10100C2
:1045F0001CD0B8F1000F3DD121680BE017F8010B7A
:104600008862B4F856000138A4F85600B4F8560091
:10461000002858D0C869000640F17A80002FEDD1FB
:1046200035F8020B00276FF35F20E9E7216802E00D
:10463000C869000609D4C869000606D4C86900061E
:104640005CBFC8695FEA0060F2D51FB117F8010BC3
:1046500005E000BF35F8020B00276FF35F2088628A
:10466000B4F856000138A4F85600B4F856000028F3
:10467000E1D128E0216800BFC869000608D4FDF731
:10468000F9FA801B404545D821680868F4E700BF67
:1046900017B117F8010B04E035F8020B00276FF390
:1046A0005F208862B4F856000138A4F85600B4F8C8
:1046B00056000028E0D106E00027B4F85600002894
:1046C0007FF494AF2168C86940061FD4B8F1000F89
:1046D0001ED018F101000FD1C869400616D4C86970
:1046E000400613D4C869400610D4C86940064FF08C
:1046F0000000F1D50FE000BFFDF7BCFA801B40457C
:1047000008D820680168C0694006F5D5002002E09D
:10471000FDF7B0FA03202021C4F88810BDE8F0812D
:1047200070470000FEE7000070B59AB000246846AC
:104730003C211994CDE91744CDE91544CDE9134442
:10474000CDE91144CDE90F44FBF79AFD40F24C004E
:10475000C2F200004FF0A041012304264FF4403282
:1047600080E81600C0E90344C0E90536848303628B
:1047700080F82440C0E90B4480F83840C46380F8D6
:104780004040FCF75BFE002818BFFCF753F940F2ED
:104790004C00C2F2000017A91794FCF725FC002872
:1047A00018BFFCF747F90020CCF221300F9006200B
:1047B000109040F24C0000247F260425C2F2000035
:1047C0000FA911941296CDE91354FCF769FC002847
:1047D00018BFFCF72FF90220C0F2304000900920EA
:1047E00001A951C184200A904FF480700B9040F2CF
:1047F0004C00C2F200006946CDE904540895ADF8BA
:1048000024408DF826408DF83040FCF719F9002837
:1048100018BFFCF70FF90420C0F66000009040F2CA
:104820000F10019040F24C00C2F200006946FCF704
:1048300007F9002818BFFCF7FDF80820C0F69040E3
:10484000009040F21520019040F24C00C2F20000AE
:104850006946FCF7F5F8002818BFFCF7EBF81020C4
:10486000C1F2C000009040F21B30019040F24C00B9
:10487000C2F200006946FCF7E3F8002818BFFCF715
:10488000D9F81AB070BD000080B582B041F248007E
:10489000C4F202000168002241F0040101600168D5
:1048A00001F0040101910199016841F001010160E9
:1048B0000068002100F00100009000980B20FDF737
:1048C0004FFA0B20FDF73AFA0C2000210022FDF7E9
:1048D00047FA0C20FDF732FA0D2000210022FDF7E7
:1048E0003FFA0D2002B0BDE88040FDF727BA000076
:1048F0002DE9F04387B0002641F24C00CDE9056672
:10490000C4F20200016840F2004441F0200101605D
:104910000168C4F6000401F02001019101990168C9
:10492000002241F00101016001684FF4805801F05C
:10493000010101910199016841F0020101600068E3
:104940004FF4805100F00200019001982046FDF7DD
:104950008BF94FF090404FF4006100224FF4006952
:10496000FDF782F94FF090404FF4004101220127FA
:10497000FDF77AF9102002904FF4041002ADCDE952
:1049800003074FF090402946FDF790F84FF4881048
:10499000039002200490204629460297FDF786F8EE
:1049A00020462946CDE902960496FDF77FF8204679
:1049B0002946CDE90287CDE90476FDF777F84FF473
:1049C0000840CDE902074FF090402946CDE9046642
:1049D000FDF76CF8062001210022FDF7C1F9062041
:1049E000FDF7ACF90A2000210022FDF7B9F90A20F1
:1049F000FDF7A4F907B0BDE8F0830000B0B540F2C0
:104A0000D81043F20001C2F20000C4F201014FF4D9
:104A1000827200234FF4706C4FF0010E4FF400745B
:104A2000202580E80E100721C0E9043EC0E90645B4
:104A3000C0E90833C0E90A31C0E90C33FDF7FEFFD5
:104A4000002808BFB0BDBDE8B040FBF7F3BF0000D1
:104A500010B59CB0002401A834211B94CDE9194461
:104A6000CDE91644CDE91444CDE91244CDE9104412
:104A7000CDE90E44FBF704FC40F23C2042F6004135
:104A8000C2F20000C4F2010120224FF0800CC0E904
:104A9000001400F1080141F267031CC1C0E9054C94
:104AA000FEF752F9002818BFFBF7C4FF4FF48050FF
:104AB000189040F23C20C2F2000018A9FEF754FA08
:104AC000002818BFFBF7B6FF40F23C20C2F20000FE
:104AD000FEF768FF002818BFFBF7ACFF40F23C2050
:104AE0000024C2F2000015A9CDE915441794FEF781
:104AF000D5F8002818BFFBF79DFF60200E904FF4FB
:104B00001660CDE90F0440F23C20C2F200000EA96D
:104B10000022CDE91144CDE91344FEF755FD0028EC
:104B200018BFFBF787FF40F23C20C2F200000EA93D
:104B30000422FEF749FD002818BFFBF77BFF40F277
:104B40003C20C2F200000EA90822FEF73DFD00281D
:104B500018BFFBF76FFF40F23C200024C2F20000B8
:104B60000EA90C220F94FEF72FFD002818BFFBF7AB
:104B700061FF4FF4006001904FF4806002904FF4A9
:104B8000807003906420CDE904044FF40050CDE917
:104B900006044FF00070CDE90A044FF480400D90F8
:104BA00040F23C20C2F2000001A9CDE908440C9477
:104BB000FEF706F8002818BFFBF73CFF40F23C2048
:104BC000C2F20000FEF7AEFC1CB010BD80B588B08C
:104BD00040F288200021C2F200004FF080424FF0E6
:104BE000FF330791CDE905110291C0E90021C0E929
:104BF000021301618161FEF7A7F8002818BFFBF7D7
:104C000019FF4FF48050049040F28820C2F2000057
:104C100004A9FEF7A9F9002818BFFBF70BFF002035
:104C20000190039040F28820C2F2000001A9FEF733
:104C300035F8002818BFFBF7FDFE08B080BD000066
:104C400010B58CB040F2D42040F200410024C2F2F2
:104C50000000C4F20001C0E90014032140F6FF7215
:104C6000CDE903140121C0E90242CDE90514052272
:104C7000CDE9091403A9019404618461CDE90724F5
:104C80000B94FEF773FA002818BFFBF7D3FE40F22F
:104C9000D420C2F20000694600940294FDF7FEFFA2
:104CA000002818BFFBF7C6FE0CB010BD10B584B0CD
:104CB00040F2203041F200010024C2F20000C4F2B0
:104CC000000140F2E7330294A72280E81600C36097
:104CD0008461FEF739F8002818BFFBF7ABFE40F2FD
:104CE0002030C2F2000001A901940394FDF7D6FF21
:104CF000002818BFFBF79EFE04B010BD10B584B0AD
:104D000040F26C3041F200410024C2F20000C4F2D3
:104D1000000140F2E733029440F28F6280E816000F
:104D2000C3608461FEF710F8002818BFFBF782FE0D
:104D300040F26C30C2F2000001A901940394FDF727
:104D4000ADFF002818BFFBF775FE04B010BD0000D2
:104D500080B540F2B83043F60001C2F20000C4F260
:104D6000010100234FF00C0C4FF4E13280E80E00FB
:104D7000C0E90333C0E905C3C0E90733C0E909331B
:104D8000FFF74AFB002818BFFBF754FE40F2B8308B
:104D9000C2F200000021FEF7D7FF002818BFFBF782
:104DA00049FE40F2B830C2F200000021FEF784FF55
:104DB000002818BFFBF73EFE40F2B830C2F20000F8
:104DC000FEF75AFF002808BF80BDBDE88040FBF712
:104DD00031BE0000FEE70000FEE700007047000063
:104DE00070470000FCF74CBF4EF68850CEF2000032
:104DF000016841F4700101607047000040F23C20FE
:104E0000C2F20000FEF7A8BA40F2D420C2F20000BD
:104E1000FEF7A2BA40F22030C2F20000FEF79CBAC0
:104E200040F26C30C2F20000FEF796BA40F2FF7C0E
:104E30000268C4F2000C604522DD40F60003C4F2B3
:104E40000003984225D043F20043C4F20103984284
:104E50001FD042F60043C4F20103984219D043F236
:104E6000FF33C4F2010398421DDC60452ADCB0F137
:104E7000804F3DD040F20043C4F2000336E000BF53
:104E8000B0F1804F05D040F20043C4F200039842D5
:104E9000E5D14B6822F070021A4343F2FF33C4F2AB
:104EA00001039842E1DD44F2FF33C4F2010398426A
:104EB00012DC43F20043C4F20103984218D044F2DA
:104EC000000311E040F60003C4F2000398420FD043
:104ED00042F6004308E000BF44F60003C4F20103B9
:104EE000984205D044F20043C4F20103984203D132
:104EF000CB6822F440721A4380B54B6922F0800ED1
:104F00008A6843EA0E03D1F800C00360C262A0F1D0
:104F10008042A2F59632830543EA9222072AC0F81E
:104F200028C0BDE8804007D8012303FA02F212F03E
:104F3000E50F1CBF09690163012141610169C907CE
:104F400008BF7047016921F001010161704700004D
:104F5000816A0A070ED4CA0717D18A0720D44A07E4
:104F600029D4CA0632D48A063BD480B54A0644D432
:104F700058E000BF0268D0F838C0536823F40043FB
:104F800043EA0C035360CA07E7D00268D0F82CC08C
:104F9000536823F4003343EA0C0353608A07DED5D9
:104FA0000268D0F830C0536823F4803343EA0C031E
:104FB00053604A07D5D50268D0F834C0536823F44B
:104FC000802343EA0C035360CA06CCD50268D0F8AC
:104FD0003CC0936823F4805343EA0C0393608A0631
:104FE000C3D50268D0F840C0936823F4005343EA65
:104FF0000C03936080B54A0614D50268D0F844C00B
:105000005368BCF5801F23F4801343EA0C035360FC
:1050100008D1D2F804C0D0F848E02CF4C00343EA29
:105020000E035360090658BF80BD0168C06C4A6812
:1050300022F400221043486080BD0000B0B582B069
:1050400004460020C4F89000FCF714FE21680546D1
:105050000A68120737D56FF07E4C20464FF40011D6
:1050600000222B46CDF800C000F0F4F950B300BF89
:10507000206850E8000F216820F0800041E800021D
:10508000DAB1206850E8000F216820F0800041E884
:10509000000292B1206850E8000F216820F08000E3
:1050A00041E800024AB1206850E8000F216820F072
:1050B000800041E80002002ADAD12020C4F88800EC
:1050C00060E000BF21680868400761D56FF07E4C42
:1050D00020464FF4800100222B46CDF800C000F09E
:1050E000B9F9002854D000BF206850E8000F2168AB
:1050F00020F4907041E80002E2B1206850E8000F0F
:10510000216820F4907041E800029AB1206850E8CC
:10511000000F216820F4907041E8000252B120682D
:1051200050E8000F216820F4907041E80002002A46
:10513000DAD100BF206850E8020F216820F001009A
:1051400041E80202DAB1206850E8020F216820F03D
:10515000010041E8020292B1206850E8020F216884
:1051600020F0010041E802024AB1206850E8020F35
:10517000216820F0010041E80202002ADAD1202053
:10518000C4F88C000320002184F8841002B0B0BD64
:105190002020C4F88800C4F88C000020E066206756
:1051A000002184F8841002B0B0BD0000806A0021A4
:1051B000A0F85E10A0F85610FEF712BE70B50546B6
:1051C00005F108041ECC0068194341EA0403EE69A6
:1051D000046846F6F311CCF6FF71214019433143C0
:1051E0000160416848F2000C21F4405111434160D4
:1051F000AA69C4F2000C60451CBF296A0A43816891
:105200004FF2FF43C1F2FF13194011438160C16A9D
:10521000D5F824E021F00F0141EA0E01C16244F605
:10522000FF31C4F2000188424FF0100314DD44F650
:105230000041C4F20001884222D0604528D043F6E4
:105240000001C4F20101884238D141F28801C4F260
:1052500002010B687BA22DE044F20041C4F2000180
:1052600088421DD044F60001C4F20001884225D1D5
:1052700041F28801C4F2020109680B0916E000BF7F
:1052800041F28801C4F2020109688B090EE000BFF7
:1052900041F28801C4F2020109688B0A06E000BFEE
:1052A00041F28801C4F2020109688B0847F2380212
:1052B000C0F6000203F0030152F82130604542F2CB
:1052C0000040C0F2F40015D0B6F5004F22D1082BF3
:1052D0004FF0010100F2AD80DFE803F0065C6AAB3D
:1052E00060ABABAB680000BFFDF7D0F8002840F022
:1052F00059809AE0082B4FF0010100F29A80DFE814
:1053000003F0059825981B9898982300FDF7BEF8A0
:10531000B0B98AE0082B4FF0010100F28A80DFE883
:1053200003F005636F88678888886D00FDF7AEF825
:10533000002860D179E000BFFDF7D4F8002874D0D0
:10534000D5F824E002E000BF4FF4004047F220010E
:10535000C0F6000131F81E106A68B0FBF1F002EBF4
:10536000420188424FF0010163D31303984260D891
:10537000010E000210EB520041F100010023FAF788
:1053800047FF4FF60052A0F54071C0F20F02914264
:1053900049D34DE0FDF790F820B946E0FDF7A2F8BB
:1053A000002842D0D5F824E002E000BF4FF40040CE
:1053B00047F22001C0F6000131F81E106A68B0FB08
:1053C000F1F0510801EB4000B0FBF2F04FF6EF7244
:1053D000A0F1100191422BD84FF6F0710140C0F3BB
:1053E000420008441FE000BFFDF766F818B91CE052
:1053F000FDF778F8C8B1D5F824E001E04FF400409B
:1054000047F22001C0F6000131F81E104FF6EF728E
:10541000B0FBF1F0696800EB5100B0FBF1F0A0F1D6
:105420001001914204D82968C860002101E000BF42
:1054300001214FF00110A866002208466A67AA679A
:1054400070BD00BF01000000040000000200000069
:10545000080000002DE9F041804600681546C26949
:105460000E461140891BB1FA81F14909A94223D1A5
:10547000069C2CB3611C29D1C1693140891BB1FA4A
:1054800081F14909A94217D1C1693140891BB1FA9B
:1054900081F14909A9420FD1C1693140891BB1FA93
:1054A00081F14909A94207D1C1693140891BB1FA8B
:1054B00081F14909A942DFD00020BDE8F08100BF99
:1054C000FCF7D8FB0320BDE8F08100BF1F4607E0D2
:1054D000C0693040801BB0FA80F04009A842EBD18F
:1054E000FCF7C8FBC01BA04200F2AE80D8F8000059
:1054F00001684907ECD5402EEAD0802EE8D0C1697A
:10550000090700F1A580C1690905E1D54FF40061E3
:105510000162D8F8000050E8000FD8F8001020F41D
:10552000907041E800020AB3D8F8000050E8000F7C
:10553000D8F8001020F4907041E80002B2B1D8F819
:10554000000050E8000FD8F8001020F4907041E8F7
:1055500000025AB1D8F8000050E8000FD8F8001047
:1055600020F4907041E80002002AD2D14FF6FE707C
:10557000CEF6FF70D8F8001051E8021FD8F80020CE
:10558000014042E80213F3B1D8F8001051E8021FBD
:10559000D8F80020014042E80213A3B1D8F8001067
:1055A00051E8021FD8F80020014042E8021353B12D
:1055B000D8F8001051E8021FD8F80020014042E856
:1055C0000213002BD6D1D8F86C0001282CD1D8F8C2
:1055D000000050E8000FD8F8001020F0100041E85B
:1055E00000020AB3D8F8000050E8000FD8F8001005
:1055F00020F0100041E80002B2B1D8F8000050E8F5
:10560000000FD8F8001020F0100041E800025AB155
:10561000D8F8000050E8000FD8F8001020F0100073
:1056200041E80002002AD2D120200021C8F88C00D5
:10563000C8F86C10C8F87410C8F89000032088F8F7
:105640008410BDE8F08100BF0320BDE8F08100BFF9
:1056500008210162D8F8000050E8000FD8F80010C7
:1056600020F4907041E800020AB3D8F8000050E836
:10567000000FD8F8001020F4907041E80002B2B199
:10568000D8F8000050E8000FD8F8001020F490700F
:1056900041E800025AB1D8F8000050E8000FD8F8ED
:1056A000001020F4907041E80002002AD2D14FF699
:1056B000FE70CEF6FF70D8F8001051E8021FD8F83F
:1056C0000020014042E80213F3B1D8F8001051E87D
:1056D000021FD8F80020014042E80213A3B1D8F815
:1056E000001051E8021FD8F80020014042E80213E0
:1056F00053B1D8F8001051E8021FD8F8002001403B
:1057000042E80213002BD6D1D8F86C0001282CD126
:10571000D8F8000050E8000FD8F8001020F0100072
:1057200041E800020AB3D8F8000050E8000FD8F8AA
:10573000001020F0100041E80002B2B1D8F80000DB
:1057400050E8000FD8F8001020F0100041E80002E7
:105750005AB1D8F8000050E8000FD8F8001020F037
:10576000100041E80002002AD2D12020C8F88C00A5
:1057700000200821C8F86C00C8F87400C8F8901020
:1057800088F884000120BDE8F081000040F2B830C4
:10579000C2F20000FEF726BBFEE7000080B582B033
:1057A000019040F2B830C2F2000001A90122642346
:1057B000FEF7ECFE019802B080BD000010B5044673
:1057C0008068FAF781FE41EC100B00F095FA51EC7D
:1057D000100BFAF78CFEE063A068FAF775FE41EC57
:1057E000100B00F025FA51EC100BFAF780FE94ED47
:1057F000011A94ED0F2A94ED003A00EE100A22EE01
:10580000014A23EE005A23EE022A21EE000A35EE69
:10581000444A30EE020A206484ED034A84ED040A0F
:1058200010BD00000000000098B0FCF737FA00241B
:1058300000201094CDE90E44CDE90C44FCF7CCFADD
:1058400001204FF4803103250A900B910221CDE90C
:1058500012502A20CDE914010AA81191CDE91611A0
:10586000FCF782FE20B1EFF3108072B6FEE700BFB6
:105870000F20CDE9050505A80421CDE907440994C9
:10588000FCF77EFC20B1EFF3108072B6FEE700BF9C
:10589000FFF72EF8FEF7F8FFFEF746FFFFF7AEF82A
:1058A000FFF7D6F8FFF7CCF9FFF752FAFFF726FA21
:1058B000FFF7FCF9FFF78AF90A20FCF7A7F840F296
:1058C0004C04C2F200042046FBF71AFB206840F2A9
:1058D0003C244168C2F2000441F0200141602046AE
:1058E0000C21FEF795F82068C16841F00101C16004
:1058F00042F64040C4F201004FF47A71016040F278
:105900001800C2F20000FBF75BF840F24C44C2F210
:105910000004204600F042F89FED190B04F1440BFF
:105920005AEC109BE06CFAF7CFFD4A465346FAF763
:10593000B2FCFAF7DCFDE0645846FFF73FFF58463B
:1059400000F080F804F15807C1CFFAF7BDFD054615
:1059500030468846FAF7B8FD41EC180B3846FAF79E
:10596000B3FD41EC100B08A02A4643468DED008B99
:105970008DED020B00F032F9D4E700BF00BF00BF8D
:105980009A9999999999B93F252E32662C252E32EC
:10599000662C252E32660D0A00000000B0B54FF0CF
:1059A000FF31016040F21801C2F2000191E82C00C1
:1059B000CC6883614B6942610A69C561C0E90842EC
:1059C000836201F1180E9EE81C50C96AC0E90B23DE
:1059D00000254FF08042C56045600581057400F1E7
:1059E0003403C0E91015C0E9122540F22030C2F29C
:1059F000000083E81050FDF799FA40F2D424C2F277
:105A0000000420463C21FDF747FC2068C16841F0B6
:105A10000101C1604562B0BD40F22440C4F2000003
:105A200090ED000A9FED051AB8EEC00A9FED042A1A
:105A300020EE010A20EE020A704700BF0000803904
:105A40000000B44390ED034A90ED041A9FED5F3AD5
:105A5000B6EE000A9FED5E5A21EE002A24EE033ACC
:105A600033EE426A24EE054A0021B5EE401A34EEC8
:105A7000425AF1EE10FAC8BF0121B5EE406AF1EECC
:105A800010FAC8BF0231B5EE405AF1EE10FAC8BFA5
:105A900004310139052900F297809FED4E6A21EE0D
:105AA000065A33EE021A21EE063A34EE021A21EEBD
:105AB000061AB0EE432ADFE801F01F03090F151B99
:105AC000B1EE452AB0EE431A16E000BFB1EE411A1E
:105AD000B0EE452A10E000BFB0EE412AB1EE451A03
